:100000000C9462000C948A000C948A000C948A0070
:100010000C948A000C948A000C948A000C948A0038
:100020000C948A000C948A000C948A000C948A0028
:100030000C948A000C948A000C948A000C948A0018
:100040000C94E3010C948A000C9453020C942D023E
:100050000C948A000C948A000C948A000C948A00F8
:100060000C948A000C948A000000000023002600F3
:10007000290000000008000201000003040700003E
:1000800000000000000000000000250028002B00F8
:1000900000000000240027002A00040404040404D3
:1000A0000404020202020202030303030303010227
:1000B00004081020408001020408102001020408F6
:1000C0001020960311241FBECFEFD8E0DEBFCDBFB6
:1000D00011E0A0E0B1E0EAEDF7E002C005900D927A
:1000E000A631B107D9F721E0A6E1B1E001C01D9228
:1000F000AC3BB207E1F710E0C2E6D0E004C02197C4
:10010000FE010E94E503C136D107C9F70E948502AE
:100110000C94EB030C940000AF92BF92CF92DF924D
:10012000EF92FF920F931F93CF93DF936C017B01AC
:100130008B01040F151FEB015E01AE18BF08C0173D
:10014000D10759F06991D601ED91FC910190F081B0
:10015000E02DC6010995892B79F7C501DF91CF9173
:100160001F910F91FF90EF90DF90CF90BF90AF90D5
:100170000895FC01538D448D252F30E0842F90E0AD
:10018000821B930B541710F0CF9608950197089592
:10019000FC01918D828D981761F0A28DAE0FBF2F5B
:1001A000B11D5D968C91928D9F5F9F73928F90E0B1
:1001B00008958FEF9FEF0895FC01918D828D981720
:1001C00031F0828DE80FF11D858D90E008958FEF5D
:1001D0009FEF0895FC01918D228D892F90E0805C26
:1001E0009F4F821B91098F739927089586E191E0B3
:1001F0000E94EA0021E0892B09F420E0822F089573
:1002000080E090E0892B29F00E94F60081110C9487
:1002100000000895FC01A48DA80FB92FB11DA35AA9
:10022000BF4F2C91848D90E001968F739927848F16
:10023000A689B7892C93A089B1898C918370806439
:100240008C93938D848D981306C00288F389E02DDA
:1002500080818F7D80830895EF92FF920F931F938B
:10026000CF93DF93EC0181E0888F9B8D8C8D981369
:100270001AC0E889F989808185FF15C09FB7F89475
:10028000EE89FF896083E889F989808183708064C1
:1002900080839FBF81E090E0DF91CF911F910F910C
:1002A000FF90EF900895F62E0B8D10E00F5F1F4F1B
:1002B0000F731127E02E8C8D8E110CC00FB607FC2A
:1002C000FACFE889F989808185FFF5CFCE010E94B8
:1002D0000A01F1CFEB8DEC0FFD2FF11DE35AFF4F1B
:1002E000F0829FB7F8940B8FEA89FB898081806246
:1002F000CFCFCF93DF93EC01888D8823B9F0AA8903
:10030000BB89E889F9898C9185FD03C0808186FDD0
:100310000DC00FB607FCF7CF8C9185FFF2CF80811F
:1003200085FFEDCFCE010E940A01E9CFDF91CF9189
:10033000089590E0FC01EE58FF4F2491FC01E25536
:10034000FF4F3491FC01E656FF4FE491EE23C1F1DB
:10035000222339F02330E9F090F4213001F12230EA
:1003600011F1F0E0EE0FFF1FE859FF4FA591B49196
:10037000EC91E32381E090E029F580E008952730B7
:10038000A9F02830C9F0243061F7809180008F7D7A
:1003900003C0809180008F7780938000E2CF84B586
:1003A0008F7784BDDECF84B58F7DFBCF8091B00089
:1003B0008F778093B000D5CF8091B0008F7DF9CF3B
:1003C00080E090E008951F920F920FB60F921124D3
:1003D0002F933F938F939F93AF93BF938091B801D7
:1003E0009091B901A091BA01B091BB013091B701D0
:1003F00023E0230F2D3758F50196A11DB11D209341
:10040000B7018093B8019093B901A093BA01B0935A
:10041000BB018091B3019091B401A091B501B0915D
:10042000B6010196A11DB11D8093B3019093B40153
:10043000A093B501B093B601BF91AF919F918F91F9
:100440003F912F910F900FBE0F901F90189526E8A7
:10045000230F0296A11DB11DD2CF1F920F920FB68E
:100460000F9211242F933F934F935F936F937F933A
:100470008F939F93AF93BF93EF93FF9386E191E0A8
:100480000E940A01FF91EF91BF91AF919F918F91CF
:100490007F916F915F914F913F912F910F900FBE80
:1004A0000F901F9018951F920F920FB60F92112464
:1004B0002F938F939F93EF93FF93E0912601F091F9
:1004C00027018081E0912C01F0912D0182FD1BC05C
:1004D000908180912F018F5F8F732091300182175F
:1004E00041F0E0912F01F0E0EA5EFE4F958F80939E
:1004F0002F01FF91EF919F918F912F910F900FBE40
:100500000F901F9018958081F4CFCF93DF93CDB7D4
:10051000DEB7A1970FB6F894DEBF0FBECDBF7894BB
:1005200084B5826084BD84B5816084BD85B58260F8
:1005300085BD85B5816085BD80916E0081608093A9
:100540006E00109281008091810082608093810012
:100550008091810081608093810080918000816022
:10056000809380008091B10084608093B10080917D
:10057000B00081608093B00080917A0084608093A5
:100580007A0080917A00826080937A0080917A006C
:10059000816080937A0080917A00806880937A00ED
:1005A0001092C100E4EBF0E02491E0EAF0E08491E5
:1005B0008823C9F090E0880F991FFC01E057FF4F96
:1005C00045915491FC01EA57FF4FA591B4919FB713
:1005D000F894FA013081822F809583238083EC91F7
:1005E000E22BEC939FBFE0912601F091270182E07E
:1005F0008083E0912201F09123011082E091240197
:10060000F09125018FEC808310922E01E0912A0158
:10061000F0912B0186E08083E0912801F09129017F
:10062000808180618083E0912801F091290180819F
:1006300088608083E0912801F091290180818068A1
:100640008083E0912801F091290180818F7D808352
:100650008AE0882E912CA12CB12C00E010E086E0DD
:100660000E949901892B09F03FC086E00E94990100
:100670006C01990FEE08FF08F7FE42C06DE286E1BB
:1006800091E00E942C0122273327A9012C193D0952
:100690004E095F0919A2CE0181967C01CA01B901F8
:1006A000A50194010E94C303605DF70162937F017D
:1006B000211531054105510589F7E114F10461F077
:1006C00001900020E9F73197AF014E195F09B7019A
:1006D00086E191E00E948C0042E050E062E171E02E
:1006E00086E191E00E948C000115110509F4B7CF55
:1006F0000E94F600882309F4B2CF0E940000AFCF19
:10070000A701960119A2CE0181967C01CA01B90107
:10071000A50194010E94C303605DF70162937F010C
:10072000211531054105510589F7C7CFE6E1F1E013
:100730001382128288EE93E0A0E0B0E08483958378
:10074000A683B78384E091E09183808385EC90E079
:100750009587848784EC90E09787868780EC90E08B
:10076000918B808B81EC90E0938B828B82EC90E07C
:10077000958B848B86EC90E0978B868B118E128EF6
:10078000138E148E0895A1E21A2EAA1BBB1BFD0125
:100790000DC0AA1FBB1FEE1FFF1FA217B307E40760
:1007A000F50720F0A21BB30BE40BF50B661F771FB8
:1007B000881F991F1A9469F7609570958095909598
:1007C0009B01AC01BD01CF010895EE0FFF1F059005
:0A07D000F491E02D0994F894FFCF96
:1007DA00000000002C018C00B9007901EA00C80071
:0607EA00DC000D0A000016
:00000001FF
