:100000000C9462000C948A000C948A000C948A0070
:100010000C948A000C948A000C948A000C948A0038
:100020000C948A000C948A000C948A000C948A0028
:100030000C948A000C948A000C948A000C948A0018
:100040000C9490030C948A000C945E030C94380377
:100050000C948A000C948A000C948A000C948A00F8
:100060000C948A000C948A000000000023002600F3
:10007000290000000008000201000003040700003E
:1000800000000000000000000000250028002B00F8
:1000900000000000240027002A00040404040404D3
:1000A0000404020202020202030303030303010227
:1000B00004081020408001020408102001020408F6
:1000C0001020210511241FBECFEFD8E0DEBFCDBF29
:1000D00011E0A0E0B1E0E8E6FFE002C005900D927B
:1000E000AA37B107D9F722E0AAE7B1E001C01D9213
:1000F000AD32B207E1F710E0C2E6D0E004C02197CC
:10010000FE010E94AC07C136D107C9F70E94DA038D
:100110000C94B2070C940000CF93DF9390E0FC01A5
:10012000E255FF4F249186569F4FFC01849188230E
:10013000C1F090E0880F991FFC01E057FF4FC59177
:10014000D491FC01EA57FF4FA591B4919FB7F89461
:100150003881822F809583238883EC91E22BEC9366
:100160009FBFDF91CF910895AF92BF92CF92DF9260
:10017000EF92FF920F931F93CF93DF936C017B015C
:100180008B01040F151FEB015E01AE18BF08C017ED
:10019000D10759F06991D601ED91FC910190F08160
:1001A000E02DC6010995892B79F7C501DF91CF9123
:1001B0001F910F91FF90EF90DF90CF90BF90AF9085
:1001C0000895FC01538D448D252F30E0842F90E05D
:1001D000821B930B541710F0CF9608950197089542
:1001E000FC01918D828D981761F0A28DAE0FBF2F0B
:1001F000B11D5D968C91928D9F5F9F73928F90E061
:1002000008958FEF9FEF0895FC01918D828D9817CF
:1002100031F0828DE80FF11D858D90E008958FEF0C
:100220009FEF0895FC01918D228D892F90E0805CD5
:100230009F4F821B91098F739927089580E991E060
:100240000E94120121E0892B09F420E0822F0895F9
:1002500080E090E0892B29F00E941E0181110C940E
:1002600000000895FC01A48DA80FB92FB11DA35A59
:10027000BF4F2C91848D90E001968F739927848FC6
:10028000A689B7892C93A089B1898C9183708064E9
:100290008C93938D848D981306C00288F389E02D8A
:1002A00080818F7D80830895EF92FF920F931F933B
:1002B000CF93DF93EC0181E0888F9B8D8C8D981319
:1002C0001AC0E889F989808185FF15C09FB7F89425
:1002D000EE89FF896083E889F98980818370806471
:1002E00080839FBF81E090E0DF91CF911F910F91BC
:1002F000FF90EF900895F62E0B8D10E00F5F1F4FCB
:100300000F731127E02E8C8D8E110CC00FB607FCD9
:10031000FACFE889F989808185FFF5CFCE010E9467
:100320003201F1CFEB8DEC0FFD2FF11DE35AFF4FA2
:10033000F0829FB7F8940B8FEA89FB8980818062F5
:10034000CFCFCF93DF93EC01888D8823B9F0AA89B2
:10035000BB89E889F9898C9185FD03C0808186FD80
:100360000DC00FB607FCF7CF8C9185FFF2CF8081CF
:1003700085FFEDCFCE010E943201E9CFDF91CF9111
:10038000089590E0FC01EE58FF4F2491FC01E255E6
:10039000FF4F3491FC01E656FF4FE491EE23C1F18B
:1003A000222339F02330E9F090F4213001F122309A
:1003B00011F1F0E0EE0FFF1FE859FF4FA591B49146
:1003C000EC91E32381E090E029F580E00895273067
:1003D000A9F02830C9F0243061F7809180008F7D2A
:1003E00003C0809180008F7780938000E2CF84B536
:1003F0008F7784BDDECF84B58F7DFBCF8091B00039
:100400008F778093B000D5CF8091B0008F7DF9CFEA
:1004100080E090E00895FC0101900020E9F7319719
:10042000AF01481B590BBC0180E991E00C94B4006A
:100430008F929F92AF92BF920F931F93CF93DF93B0
:10044000CDB7DEB7A1970FB6F894DEBF0FBECDBF14
:1004500019A2423008F44AE08E010F5D1F4F842E2E
:10046000912CB12CA12CA50194010E948A07E62FA2
:10047000B901CA01EA30F4F4E05DD801EE938D01D0
:10048000232B242B252B79F790E080E0109719F08F
:10049000CD010E940B02A1960FB6F894DEBF0FBEED
:1004A000CDBFDF91CF911F910F91BF90AF909F90E3
:1004B0008F900895E95CE1CF4F925F926F927F92A7
:1004C0008F929F92AF92BF92CF92DF92EF92FF9264
:1004D0000F931F93CF936B017C01742EAC019B0192
:1004E0000E948507882399F083E191E0CF911F91C5
:1004F0000F91FF90EF90DF90CF90BF90AF909F90C3
:100500008F907F906F905F904F900C940B024601FC
:100510005701E894B7F82FEF3FEF4FE75FE7C501CA
:10052000B4010E94850781110DC02FEF3FEF4FE707
:100530005FE7C501B4010E94BB0518161CF487E1F2
:1005400091E0D4CF2FEF3FEF4FE75FE4C701B60153
:100550000E94130718161CF48BE191E0C7CF2FEF10
:100560003FEF4FE75FECC701B6010E94BB0587FD77
:10057000F3CF20E030E0A901C701B6010E94BB051E
:1005800010E000E087FF0AC06DE280E991E00E9480
:1005900054018C01F7FAF094F7F8F094C0E060E0B1
:1005A00070E080E09FE37C1641F020E030E040E224
:1005B00051E40E94C005CF5FF6CFA70196010E94CB
:1005C0004F052B013C010E9432064B015C014AE0C1
:1005D0000E9418027C01E00EF11ECC23C1F1C5017E
:1005E000B4010E9461069B01AC01C301B2010E94EB
:1005F0004E054B015C016EE280E991E00E945401DE
:10060000E80EF91EC15018F120E030E040E251E45C
:10061000C501B4010E9418072B013C010E9432065B
:100620004B01B12CA12C4AE0C501B4010E94180273
:10063000E80EF91EC501B4010E9461069B01AC01E0
:10064000C301B2010E944E054B015C01DBCFC70123
:10065000CF911F910F91FF90EF90DF90CF90BF90BF
:10066000AF909F908F907F906F905F904F90089584
:100670001F920F920FB60F9211242F933F934F9317
:100680005F936F937F938F939F93AF93BF93EF93FA
:10069000FF9380E991E00E943201FF91EF91BF91B9
:1006A000AF919F918F917F916F915F914F913F910A
:1006B0002F910F900FBE0F901F9018951F920F92C1
:1006C0000FB60F9211242F938F939F93EF93FF9365
:1006D000E091A001F091A1018081E091A601F0914B
:1006E000A70182FD1BC090818091A9018F5F8F734C
:1006F0002091AA01821741F0E091A901F0E0E057B2
:10070000FE4F958F8093A901FF91EF919F918F915B
:100710002F910F900FBE0F901F9018958081F4CFEE
:100720001F920F920FB60F9211242F933F938F9326
:100730009F93AF93BF9380917F0190918001A0918F
:100740008101B091820130917E0123E0230F2D378A
:1007500058F50196A11DB11D20937E0180937F0164
:1007600090938001A0938101B093820180917A01DE
:1007700090917B01A0917C01B0917D010196A11D1A
:10078000B11D80937A0190937B01A0937C01B0937B
:100790007D01BF91AF919F918F913F912F910F90CC
:1007A0000FBE0F901F90189526E8230F0296A11DEB
:1007B000B11DD2CF789484B5826084BD84B5816048
:1007C00084BD85B5826085BD85B5816085BD80911C
:1007D0006E00816080936E00109281008091810094
:1007E000826080938100809181008160809381008C
:1007F000809180008160809380008091B10084604E
:100800008093B1008091B00081608093B0008091AE
:100810007A00846080937A0080917A00826080936D
:100820007A0080917A00816080937A0080917A00CA
:10083000806880937A001092C10085E00E948C004D
:1008400086E00E948C00E091A001F091A10182E07D
:100850008083E0919C01F0919D011082E0919E01C6
:10086000F0919F018FEC80831092A801E091A40188
:10087000F091A50186E08083E091A201F091A301AF
:10088000808180618083E091A201F091A301808149
:1008900088608083E091A201F091A301808180684B
:1008A0008083E091A201F091A30180818F7D8083FC
:1008B000C0E0D0E011E085E00E94C1016C01990F19
:1008C000EE08FF084AE0C701B601F7FE0DC06DE271
:1008D00080E991E00E94540166277727CB016C19CB
:1008E0007D098E099F094AE00E94180285E00E9456
:1008F000C101892B09F03FC080918F0181113BC05C
:100900002FB7F89460917F017091800180918101EF
:10091000909182012FBF0E94610660938B017093BA
:100920008C0180938D0190938E018FB7F894409144
:100930007F015091800160918101709182018FBF90
:100940008FE191E00E940B028FE391E00E940B0285
:1009500020E030E04AE754E460918B0170918C0113
:1009600080918D0190918E010E94C00542E00E940D
:100970005C0210938F0186E00E94C101892B09F06F
:1009800055C0809100018823D9F02FB7F894609169
:100990007F017091800180918101909182012FBF30
:1009A0000E9461066093870170938801809389019A
:1009B00090938A011092000187E491E00E940B025B
:1009C00080918F01882391F12FB7F89460917F0176
:1009D0007091800180918101909182012FBF0E94CE
:1009E00061062091870130918801409189015091E1
:1009F0008A010E944E056093830170938401809365
:100A000085019093860188E591E00E940B028BE6B8
:100A100091E00E940B0260918301709184018091AA
:100A200085019091860142E00E945C02209709F4C2
:100A300042CF0E941E01882309F43DCF0E9400008E
:100A40003ACFE0E9F1E01382128288EE93E0A0E071
:100A5000B0E084839583A683B78385E091E091839A
:100A6000808385EC90E09587848784EC90E097877D
:100A7000868780EC90E0918B808B81EC90E0938B6B
:100A8000828B82EC90E0958B848B86EC90E0978B48
:100A9000868B118E128E138E148E08955058BB279C
:100AA000AA270E9466050C94D9060E94CB0638F04E
:100AB0000E94D20620F039F49F3F19F426F40C94DA
:100AC000C8060EF4E095E7FB0C94C206E92F0E94DD
:100AD000EA0658F3BA17620773078407950720F0F0
:100AE00079F4A6F50C940C070EF4E0950B2EBA2FB2
:100AF000A02D0B01B90190010C01CA01A001112424
:100B0000FF27591B99F0593F50F4503E68F11A16CF
:100B1000F040A22F232F342F4427585FF3CF469560
:100B200037952795A795F0405395C9F77EF41F1682
:100B3000BA0B620B730B840BBAF09150A1F0FF0F4C
:100B4000BB1F661F771F881FC2F70EC0BA0F621F38
:100B5000731F841F48F4879577956795B795F79528
:100B60009E3F08F0B0CF9395880F08F09927EE0FBD
:100B70009795879508950E949E0608F481E0089550
:100B80000E94D4050C94D9060E94D20658F00E9407
:100B9000CB0640F029F45F3F29F00C94C2065111B6
:100BA0000C940D070C94C8060E94EA0668F399237A
:100BB000B1F3552391F3951B550BBB27AA27621759
:100BC0007307840738F09F5F5F4F220F331F441F66
:100BD000AA1FA9F335D00E2E3AF0E0E832D091509A
:100BE0005040E695001CCAF72BD0FE2F29D0660F87
:100BF000771F881FBB1F261737074807AB07B0E8CA
:100C000009F0BB0B802DBF01FF2793585F4F3AF0CF
:100C10009E3F510578F00C94C2060C940D075F3F7F
:100C2000E4F3983ED4F3869577956795B795F79555
:100C30009F5FC9F7880F911D9695879597F908953D
:100C4000E1E0660F771F881FBB1F621773078407D9
:100C5000BA0720F0621B730B840BBA0BEE1F88F7E8
:100C6000E09508950E94F20688F09F5798F0B92FFA
:100C70009927B751B0F0E1F0660F771F881F991FD1
:100C80001AF0BA95C9F714C0B13091F00E940C0760
:100C9000B1E008950C940C07672F782F8827B85F70
:100CA00039F0B93FCCF3869577956795B395D9F729
:100CB0003EF490958095709561957F4F8F4F9F4F33
:100CC0000895E89409C097FB3EF49095809570953F
:100CD00061957F4F8F4F9F4F9923A9F0F92F96E988
:100CE000BB279395F695879577956795B795F111FD
:100CF000F8CFFAF4BB0F11F460FF1BC06F5F7F4F9A
:100D00008F4F9F4F16C0882311F096E911C07723AB
:100D100021F09EE8872F762F05C0662371F096E8B4
:100D2000862F70E060E02AF09A95660F771F881F83
:100D3000DAF7880F9695879597F90895990F000827
:100D4000550FAA0BE0E8FEEF16161706E807F9079D
:100D5000C0F012161306E407F50798F0621B730B38
:100D6000840B950B39F40A2661F0232B242B252BB9
:100D700021F408950A2609F4A140A6958FEF811D5C
:100D8000811D089597F99F6780E870E060E00895FD
:100D90009FEF80EC089500240A9416161706180693
:100DA0000906089500240A9412161306140605066F
:100DB0000895092E0394000C11F4882352F0BB0F00
:100DC00040F4BF2B11F460FF04C06F5F7F4F8F4F63
:100DD0009F4F089557FD9058440F551F59F05F3F9E
:100DE00071F04795880F97FB991F61F09F3F79F04D
:100DF00087950895121613061406551FF2CF4695CF
:100E0000F1DF08C0161617061806991FF1CF869550
:100E10007105610508940895E894BB276627772734
:100E2000CB0197F908950E949E0608F48FEF08956C
:100E30000E942B070C94D9060E94CB0638F00E9422
:100E4000D20620F0952311F00C94C2060C94C8062B
:100E500011240C940D070E94EA0670F3959FC1F3CC
:100E6000950F50E0551F629FF001729FBB27F00D58
:100E7000B11D639FAA27F00DB11DAA1F649F6627AD
:100E8000B00DA11D661F829F2227B00DA11D621FFC
:100E9000739FB00DA11D621F839FA00D611D221FB6
:100EA000749F3327A00D611D231F849F600D211D9A
:100EB000822F762F6A2F11249F5750409AF0F1F01D
:100EC00088234AF0EE0FFF1FBB1F661F771F881F86
:100ED00091505040A9F79E3F510580F00C94C206F6
:100EE0000C940D075F3FE4F3983ED4F38695779515
:100EF0006795B795F795E7959F5FC1F7FE2B880F2C
:100F0000911D9695879597F908950E949E06880BE6
:100F1000990B0895A1E21A2EAA1BBB1BFD010DC05F
:100F2000AA1FBB1FEE1FFF1FA217B307E407F50799
:100F300020F0A21BB30BE40BF50B661F771F881F75
:100F4000991F1A9469F760957095809590959B010B
:100F5000AC01BD01CF010895EE0FFF1F0590F49184
:080F6000E02D0994F894FFCF85
:100F680001000000005401B400E100A1011201F0E9
:100F78000004016E616E00696E66006F7666004F50
:100F880020636172726F20616361626F75206465AE
:100F9800207061737361722061717569210A005450
:100FA800656D706F3A2000496E69636961646F20EE
:100FB8006F20746573746500546573746520666981
:100FC8006E616C697A61646F210A0054656D706F97
:0A0FD8002066696E616C3A2000008B
:00000001FF
