:100000000C9463000C948B000C948B000C94D6041D
:100010000C94D6040C94D6040C948B000C948B0096
:100020000C948B000C948B000C948B000C948B0024
:100030000C948B000C948B000C948B000C948B0014
:100040000C948C040C948B000C945A040C9434047F
:100050000C948B000C948B000C948B000C948B00F4
:100060000C948B000C948B000000000024002700EF
:100070002A0000000008000201000003040700003D
:1000800000000000000000000000230026002900FE
:1000900000000000250028002B00040404040404D0
:1000A0000404020202020202030303030303010227
:1000B00004081020408001020408102001020408F6
:1000C00010207C052F0811241FBECFEFD8E0DEBF23
:1000D000CDBF11E0A0E0B1E0E8ECF5E102C0059091
:1000E0000D92A439B107D9F722E0A4E9B1E001C02B
:1000F0001D92AB3AB207E1F710E0C2E6D0E004C0CF
:100100002197FE010E94D10AC136D107C9F70E948A
:1001100027060C94D70A0C940000AF92BF92CF929E
:10012000DF92EF92FF920F931F93CF93DF936C01B7
:100130007B018B01040F151FEB015E01AE18BF0898
:10014000C017D10759F06991D601ED91FC9101904A
:10015000F081E02DC6010995892B79F7C501DF9162
:10016000CF911F910F91FF90EF90DF90CF90BF90B4
:10017000AF900895FC01538D448D252F30E0842FDE
:1001800090E0821B930B541710F0CF9608950197BF
:100190000895FC01918D828D981761F0A28DAE0FAC
:1001A000BF2FB11D5D968C91928D9F5F9F73928F33
:1001B00090E008958FEF9FEF0895FC01918D828D5F
:1001C000981731F0828DE80FF11D858D90E008952C
:1001D0008FEF9FEF0895FC01918D228D892F90E084
:1001E000805C9F4F821B91098F73992708958FEE32
:1001F00091E00E94EB0021E0892B09F420E0822F9E
:10020000089580E090E0892B29F00E94F700811189
:100210000C9400000895FC01A48DA80FB92FB11D06
:10022000A35ABF4F2C91848D90E001968F7399272C
:10023000848FA689B7892C93A089B1898C9183700A
:1002400080648C93938D848D981306C00288F38903
:10025000E02D80818F7D80830895EF92FF920F9330
:100260001F93CF93DF93EC0181E0888F9B8D8C8D62
:1002700098131AC0E889F989808185FF15C09FB756
:10028000F894EE89FF896083E889F9898081837019
:10029000806480839FBF81E090E0DF91CF911F91C8
:1002A0000F91FF90EF900895F62E0B8D10E00F5FE9
:1002B0001F4F0F731127E02E8C8D8E110CC00FB6BF
:1002C00007FCFACFE889F989808185FFF5CFCE0157
:1002D0000E940B01F1CFEB8DEC0FFD2FF11DE35AC6
:1002E000FF4FF0829FB7F8940B8FEA89FB898081DA
:1002F0008062CFCFCF93DF93EC01888D8823B9F054
:10030000AA89BB89E889F9898C9185FD03C0808120
:1003100086FD0DC00FB607FCF7CF8C9185FFF2CF9D
:10032000808185FFEDCFCE010E940B01E9CFDF91E7
:10033000CF910895833081F028F4813099F0823094
:10034000A9F008958730A9F08830C9F08430B1F45D
:10035000809180008F7D03C0809180008F77809393
:100360008000089584B58F7784BD089584B58F7D0E
:10037000FBCF8091B0008F778093B000089580917B
:10038000B0008F7DF9CFCF93DF93E8E7F0E0849161
:10039000E4EBF0E0D491E0EAF0E0C491CC23A1F0EA
:1003A00081110E949A01EC2FF0E0EE0FFF1FEA5737
:1003B000FF4FA591B491EC91ED2381E090E009F419
:1003C00080E0DF91CF91089580E090E0FACFCF9365
:1003D000DF9390E0FC01E255FF4F249186569F4F3A
:1003E000FC0184918823C9F090E0880F991FFC01DB
:1003F000E859FF4FA591B491FC01E057FF4FC5911B
:10040000D49161110DC09FB7F8948C9120958223EF
:100410008C938881282328839FBFDF91CF910895F3
:10042000623051F49FB7F8943C91822F80958323DA
:100430008C93E8812E2BEFCF8FB7F894EC912E2B75
:100440002C938FBFEACF3FB7F8948091D50190915C
:10045000D601A091D701B091D80126B5A89B05C0BF
:100460002F3F19F00196A11DB11D3FBFBA2FA92F33
:10047000982F8827BC01CD01620F711D811D911D30
:1004800042E0660F771F881F991F4A95D1F708959C
:100490002091DB013091DC012817390771F490912C
:1004A000D9018091DA01981741F0E091D901F0E08B
:1004B000EC56FE4F808190E008958FEF9FEF0895F6
:1004C0000895EF92FF920F931F93CF93DF93DC0178
:1004D0005C96ED90FC905D97E114F10479F481E075
:1004E00090E013969C938E93129790E080E0DF91BA
:1004F000CF911F910F91FF90EF9008955196ED913C
:10050000FC91529750968C915097982F90950FB7D9
:100510005E962C915E97122F127021FD6095F894D3
:100520002081112319F1282B2083E7012197F1F76E
:1005300028E0462F50E0308160FF1AC0382B30830E
:10054000E7012197F1F7BA0175956795215089F771
:10055000112381F08081892380830FBF5C968D9168
:100560009C910197F1F781E090E0C1CF2923DCCF86
:100570003923E5CF9081892BEFCF2091DB0130919A
:10058000DC012817390771F48091DA012091D90133
:1005900090E0805C9F4F821B910960E470E00E94B4
:1005A000870A089590E080E008952091DB01309162
:1005B000DC0128173907B9F49091D9018091DA014B
:1005C000981789F0E091D901F0E0EC56FE4F808158
:1005D0002091D90130E02F5F3F4F2F7333272093B5
:1005E000D90190E008958FEF9FEF089590E080E0AB
:1005F0000895FC0101900020E9F73197AF01481BF5
:10060000590BBC018CE892E00C948D008F929F9264
:10061000AF92BF920F931F93CF93DF93CDB7DEB707
:10062000A1970FB6F894DEBF0FBECDBF19A242301E
:1006300008F44AE08E010F5D1F4F842E912CB12CDF
:10064000A12CA50194010E949B0AE62FB901CA01C1
:10065000EA30F4F4E05DD801EE938D01232B242BD6
:10066000252B79F790E080E0109719F0CD010E94DA
:10067000F902A1960FB6F894DEBF0FBECDBFDF9191
:10068000CF911F910F91BF90AF909F908F90089541
:10069000E95CE1CFCF93DF930E94F902EC0184E2A1
:1006A00091E00E94F9028C0F9D1FDF91CF91089578
:1006B0004F925F926F927F928F929F92AF92BF9272
:1006C000CF92DF92EF92FF920F931F93CF936B0124
:1006D0007C01742EAC019B010E94820A882399F050
:1006E00087E291E0CF911F910F91FF90EF90DF9003
:1006F000CF90BF90AF909F908F907F906F905F90C2
:100700004F900C94F90246015701E894B7F82FEF87
:100710003FEF4FE75FE7C501B4010E94820A8111F4
:100720000DC02FEF3FEF4FE75FE7C501B4010E9417
:10073000B80818161CF48BE291E0D4CF2FEF3FEFEE
:100740004FE75FE4C701B6010E94100A18161CF4B7
:100750008FE291E0C7CF2FEF3FEF4FE75FECC7018C
:10076000B6010E94B80887FDF3CF20E030E0A90170
:10077000C701B6010E94B80810E000E087FF0AC078
:100780006DE28CE892E00E9461028C01F7FAF0942D
:10079000F7F8F094C0E060E070E080E09FE37C1642
:1007A00041F020E030E040E251E40E94BD08CF5F1C
:1007B000F6CFA70196010E944C082B013C010E9434
:1007C0002F094B015C014AE00E9406037C01E00E08
:1007D000F11ECC23C1F1C501B4010E945E099B0149
:1007E000AC01C301B2010E944B084B015C016EE2F7
:1007F0008CE892E00E946102E80EF91EC15018F1E7
:1008000020E030E040E251E4C501B4010E94150A45
:100810002B013C010E942F094B01B12CA12C4AE075
:10082000C501B4010E940603E80EF91EC501B4011A
:100830000E945E099B01AC01C301B2010E944B08FA
:100840004B015C01DBCFC701CF911F910F91FF904E
:10085000EF90DF90CF90BF90AF909F908F907F9060
:100860006F905F904F9008951F920F920FB60F9266
:1008700011242F933F934F935F936F937F938F93A5
:100880009F93AF93BF93EF93FF938FEE91E00E94FE
:100890000B01FF91EF91BF91AF919F918F917F914C
:1008A0006F915F914F913F912F910F900FBE0F90DD
:1008B0001F9018951F920F920FB60F9211242F932D
:1008C0008F939F93EF93FF93E091FF01F0910002CC
:1008D0008081E0910502F091060282FD1BC09081AB
:1008E000809108028F5F8F7320910902821741F077
:1008F000E0910802F0E0E151FE4F958F80930802ED
:10090000FF91EF919F918F912F910F900FBE0F90BC
:100910001F9018958081F4CF1F920F920FB60F92FF
:1009200011242F933F938F939F93AF93BF93809105
:10093000DD019091DE01A091DF01B091E0013091E5
:10094000D40123E0230F2D3758F50196A11DB11DC9
:100950002093D4018093DD019093DE01A093DF0109
:10096000B093E0018091D5019091D601A091D7017B
:10097000B091D8010196A11DB11D8093D50190932E
:10098000D601A093D701B093D801BF91AF919F91A9
:100990008F913F912F910F900FBE0F901F90189540
:1009A00026E8230F0296A11DB11DD2CF1F920F92F0
:1009B0000FB60F9211242F933F934F935F936F9332
:1009C0007F938F939F93AF93BF93EF93FF93E091A8
:1009D000DB01F091DC01309749F0A685B78585856C
:1009E000968D91FF14C09C918923A1F4FF91EF9102
:1009F000BF91AF919F918F917F916F915F914F9137
:100A00003F912F910F900FBE0F901F9018959C91C2
:100A1000892361F7A389B4899C918589809589236D
:100A20008C93868997890197F1F7608D718DA685E2
:100A3000B785558538E020E0CB010197F1F7822F8B
:100A400090E095958795282F4C91452309F02068D3
:100A5000315091F7868D81FD20958091DA0190E0EB
:100A600001968F7399273091D901381799F0A09189
:100A7000DA01B0E0AC56BE4F2C938093DA01828D40
:100A8000938D0197F1F7A389B4898C919589892B6E
:100A90008C93ACCF868D8160868FF1CF1F93CF93DF
:100AA000DF93282F30E0F901EE58FF4F8491F901D0
:100AB000E255FF4FD491F901E656FF4FC491CC2384
:100AC000A9F0162F81110E949A01EC2FF0E0EE0F91
:100AD000FF1FE057FF4FA591B4918FB7F894EC91A9
:100AE000111108C0D095DE23DC938FBFDF91CF9129
:100AF0001F910895DE2BF8CF1092F2011092F101B0
:100B000088EE93E0A0E0B0E08093F3019093F401CD
:100B1000A093F501B093F60124E031E03093F001A9
:100B20002093EF0125EC30E03093FC012093FB0192
:100B300024EC30E03093FE012093FD0120EC30E006
:100B4000309300022093FF0121EC30E03093020249
:100B50002093010222EC30E0309304022093030240
:100B600026EC30E030930602209305021092080232
:100B70001092090210920A0210920B0210928F0238
:100B800010928E028093900290939102A093920211
:100B9000B093930286E191E090938D0280938C0252
:100BA0001092A3021092A2021092A5021092A40227
:100BB0001092A7021092A6021092A9021092A80207
:100BC0006091AA026E7F6D7F6093AA026695617044
:100BD00081E068278BE00E944E0561E08BE00E9477
:100BE000E701E9EBF0E0E491E0939C02E5EAF0E054
:100BF000E491F0E0EE0FFF1FE057FF4F85919491D5
:100C000090939E0280939D0260E08AE00E94E7013B
:100C10008091AA0281FD04C061E08AE00E944E0535
:100C20008AE080939802E8EBF0E0E491E093990287
:100C3000E4EAF0E0E491F0E0EE0FFF1FEA57FF4F27
:100C40008591949190939B0280939A020895789451
:100C500084B5826084BD84B5816084BD85B58260C1
:100C600085BD85B5816085BD80916E008160809372
:100C70006E001092810080918100826080938100DB
:100C800080918100816080938100809180008160EB
:100C9000809380008091B10084608093B100809146
:100CA000B00081608093B00080917A00846080936E
:100CB0007A0080917A00826080937A0080917A0035
:100CC000816080937A0080917A00806880937A00B6
:100CD0001092C10062E086E00E94E7011092A70234
:100CE0001092A6021092A5021092A4021092A302E2
:100CF0001092A20285E690E09093A9028093A80248
:100D000090919802963108F047C021E230E030938C
:100D1000A3022093A20223E630E03093A5022093A1
:100D2000A40222E430E03093A7022093A60220918F
:100D3000680084E0983048F031E09E3008F430E0FC
:100D400081E001C0880F3A95EAF7822B8093680012
:100D50002DE630E0983050F02BE630E09E3030F059
:100D60002CE630E0963110F030E020E03093A00225
:100D700020939F02292F30E0983008F063C181E072
:100D800001C0880F9A95EAF78093A1028091A8028A
:100D90009091A9020197F1F78091A6029091A70284
:100DA000892B49F1E091DB01F091DC0122E0EC3884
:100DB000F20709F1309739F0A389B4899C918589AC
:100DC000809589238C938091AA028E7F8093AA02BA
:100DD0001092DA011092D9018CE892E09093DC0134
:100DE0008093DB01E0919F02F091A00280819091BD
:100DF000A102892B808383E391E00E944A03E09162
:100E0000FF01F091000282E08083E091FB01F0910C
:100E1000FC011082E091FD01F091FE018FEC8083D6
:100E200010920702E0910302F091040286E08083B1
:100E3000E0910102F0910202808180618083E09163
:100E40000102F0910202808188608083E0910102BA
:100E5000F0910202808180688083E0910102F0912C
:100E6000020280818F7D8083C0E0D0E011E00E948B
:100E7000C301892BF9F48091EE0181111BC081E43B
:100E800091E00E944A032FB7F8946091DD017091C0
:100E9000DE018091DF019091E0012FBF0E945E0989
:100EA0006093EA017093EB018093EC019093ED0164
:100EB0001093EE018091EE01882309F4B8C08FEE03
:100EC00091E00E94C900C19709F042C08091E901F8
:100ED00081113EC02FB7F8946091DD017091DE0161
:100EE0008091DF019091E0012FBF0E945E09209167
:100EF000EA013091EB014091EC015091ED010E942B
:100F00004B086093E5017093E6018093E7019093AD
:100F1000E80182E591E00E944A0388E691E00E94A0
:100F2000F90220E030E04AE754E46091E501709175
:100F3000E6018091E7019091E8010E94BD0842E03E
:100F40000E94580384E291E00E94F9021093E901A3
:100F50008091E901882309F46AC00E94C301892BAA
:100F600009F065C02FB7F8946091DD017091DE0142
:100F70008091DF019091E0012FBF0E945E092091D6
:100F8000EA013091EB014091EC015091ED010E949A
:100F90004B086093E1017093E2018093E301909329
:100FA000E4018AE791E00E944A0387E891E00E9409
:100FB000F90220E030E04AE754E46091E1017091E9
:100FC000E2018091E3019091E4010E94BD0842E0BA
:100FD0000E94580384E291E00E94F9021092E90114
:100FE0001092EE010E9423026B017C0184EF882E97
:100FF00099249394A12CB12C0E9423026C197D0991
:101000008E099F09683E734081059105A8F381E030
:10101000881A9108A108B10828EEC20E23E0D21E5A
:10102000E11CF11C81149104A104B10429F720975B
:1010300009F41DCF0E94F700882309F418CF0E94FD
:10104000000015CF9E3040F42850310981E001C0E6
:10105000880F2A95EAF798CE2E503109F7CF86E10E
:1010600091E090938D0280938C028091DB019091AE
:10107000DC018C58924071F4E0919F02F091A00243
:1010800090818091A1028095892380831092DC0158
:101090001092DB0108955058BB27AA270E946308CD
:1010A0000C94D6090E94C80938F00E94CF0920F09C
:1010B00039F49F3F19F426F40C94C5090EF4E09519
:1010C000E7FB0C94BF09E92F0E94E70958F3BA1710
:1010D000620773078407950720F079F4A6F50C944E
:1010E000090A0EF4E0950B2EBA2FA02D0B01B901C1
:1010F00090010C01CA01A0011124FF27591B99F08E
:10110000593F50F4503E68F11A16F040A22F232F99
:10111000342F4427585FF3CF469537952795A795E9
:10112000F0405395C9F77EF41F16BA0B620B730B90
:10113000840BBAF09150A1F0FF0FBB1F661F771F01
:10114000881FC2F70EC0BA0F621F731F841F48F4B6
:10115000879577956795B795F7959E3F08F0B0CF3F
:101160009395880F08F09927EE0F97958795089526
:101170000E949B0908F481E008950E94D1080C9414
:10118000D6090E94CF0958F00E94C80940F029F4FE
:101190005F3F29F00C94BF0951110C940A0A0C947A
:1011A000C5090E94E70968F39923B1F3552391F328
:1011B000951B550BBB27AA2762177307840738F0C6
:1011C0009F5F5F4F220F331F441FAA1FA9F335D023
:1011D0000E2E3AF0E0E832D091505040E695001CD7
:1011E000CAF72BD0FE2F29D0660F771F881FBB1F91
:1011F000261737074807AB07B0E809F0BB0B802D6F
:10120000BF01FF2793585F4F3AF09E3F510578F09A
:101210000C94BF090C940A0A5F3FE4F3983ED4F3A0
:10122000869577956795B795F7959F5FC9F7880F6E
:10123000911D9695879597F90895E1E0660F771FC0
:10124000881FBB1F621773078407BA0720F0621B51
:10125000730B840BBA0BEE1F88F7E09508950E947C
:10126000EF0988F09F5798F0B92F9927B751B0F040
:10127000E1F0660F771F881F991F1AF0BA95C9F71A
:1012800014C0B13091F00E94090AB1E008950C94A5
:10129000090A672F782F8827B85F39F0B93FCCF358
:1012A000869577956795B395D9F73EF49095809597
:1012B000709561957F4F8F4F9F4F0895E89409C0B7
:1012C00097FB3EF490958095709561957F4F8F4F79
:1012D0009F4F9923A9F0F92F96E9BB279395F6958F
:1012E000879577956795B795F111F8CFFAF4BB0F0D
:1012F00011F460FF1BC06F5F7F4F8F4F9F4F16C071
:10130000882311F096E911C0772321F09EE8872FFA
:10131000762F05C0662371F096E8862F70E060E0B6
:101320002AF09A95660F771F881FDAF7880F96952F
:10133000879597F90895990F0008550FAA0BE0E8D3
:10134000FEEF16161706E807F907C0F01216130687
:10135000E407F50798F0621B730B840B950B39F4C7
:101360000A2661F0232B242B252B21F408950A262D
:1013700009F4A140A6958FEF811D811D089597F96D
:101380009F6780E870E060E008959FEF80EC08952B
:1013900000240A9416161706180609060895002454
:1013A0000A9412161306140605060895092E0394CE
:1013B000000C11F4882352F0BB0F40F4BF2B11F442
:1013C00060FF04C06F5F7F4F8F4F9F4F089557FDA1
:1013D0009058440F551F59F05F3F71F04795880FA3
:1013E00097FB991F61F09F3F79F08795089512163A
:1013F00013061406551FF2CF4695F1DF08C01616E6
:1014000017061806991FF1CF869571056105089496
:101410000895E894BB2766277727CB0197F90895AD
:101420000E949B0908F48FEF08950E94280A0C94EB
:10143000D6090E94C80938F00E94CF0920F09523F0
:1014400011F00C94BF090C94C50911240C940A0ADC
:101450000E94E70970F3959FC1F3950F50E0551F67
:10146000629FF001729FBB27F00DB11D639FAA27F9
:10147000F00DB11DAA1F649F6627B00DA11D661F48
:10148000829F2227B00DA11D621F739FB00DA11D69
:10149000621F839FA00D611D221F749F3327A00D23
:1014A000611D231F849F600D211D822F762F6A2FBF
:1014B00011249F5750409AF0F1F088234AF0EE0F24
:1014C000FF1FBB1F661F771F881F91505040A9F751
:1014D0009E3F510580F00C94BF090C940A0A5F3FAF
:1014E000E4F3983ED4F3869577956795B795F7958D
:1014F000E7959F5FC1F7FE2B880F911D9695879505
:1015000097F908950E949B09880B990B089597FB02
:10151000072E16F4009407D077FD09D00E94BD0A6B
:1015200007FC05D03EF4909581959F4F08957095E6
:1015300061957F4F0895A1E21A2EAA1BBB1BFD01E6
:101540000DC0AA1FBB1FEE1FFF1FA217B307E407A2
:10155000F50720F0A21BB30BE40BF50B661F771FFA
:10156000881F991F1A9469F76095709580959095DA
:101570009B01AC01BD01CF010895AA1BBB1B51E12A
:1015800007C0AA1FBB1FA617B70710F0A61BB70BF3
:10159000881F991F5A95A9F780959095BC01CD0198
:1015A0000895EE0FFF1F0590F491E02D099410E0CF
:1015B000C2E6D0E004C0FE010E94D10A2196C336E3
:0815C000D107C9F7F894FFCF31
:1015C800000000002D018D00BA007A01EB00C9006F
:1015D800DD000000000061028D00F6026002BD021D
:1015E800D50248020D0A006E616E00696E66006FD2
:1015F8007666007175616C717565726D657264618E
:1016080000496E69636961646F206F207465737443
:1016180065003330206D6574726F7320616C63618F
:101628006E6361646F73210054656D706F2070651F
:1016380072636F727269646F3A0046696D20646FF5
:101648002074657374650054656D706F20746F74D1
:04165800616C3A0087
:00000001FF
