:100000000C9462000C948A000C948A000C948A0070
:100010000C948A000C948A000C948A000C948A0038
:100020000C948A000C948A000C948A000C948A0028
:100030000C948A000C948A000C948A000C948A0018
:100040000C9454030C948A000C9422030C94FC022C
:100050000C948A000C948A000C948A000C948A00F8
:100060000C948A000C948A000000000023002600F3
:10007000290000000008000201000003040700003E
:1000800000000000000000000000250028002B00F8
:1000900000000000240027002A00040404040404D3
:1000A0000404020202020202030303030303010227
:1000B00004081020408001020408102001020408F6
:1000C00010203F0511241FBECFEFD8E0DEBFCDBF0B
:1000D00011E0A0E0B1E0E4EAFFE002C005900D927B
:1000E000A838B107D9F722E0A8E8B1E001C01D9215
:1000F000AE33B207E1F710E0C2E6D0E004C02197CA
:10010000FE010E94CA07C136D107C9F70E949E03AB
:100110000C94D0070C940000CF93DF9390E0FC0187
:10012000E255FF4F249186569F4FFC01849188230E
:10013000C1F090E0880F991FFC01E057FF4FC59177
:10014000D491FC01EA57FF4FA591B4919FB7F89461
:100150003881822F809583238883EC91E22BEC9366
:100160009FBFDF91CF910895AF92BF92CF92DF9260
:10017000EF92FF920F931F93CF93DF936C017B015C
:100180008B01040F151FEB015E01AE18BF08C017ED
:10019000D10759F06991D601ED91FC910190F08160
:1001A000E02DC6010995892B79F7C501DF91CF9123
:1001B0001F910F91FF90EF90DF90CF90BF90AF9085
:1001C0000895FC01538D448D252F30E0842F90E05D
:1001D000821B930B541710F0CF9608950197089542
:1001E000FC01918D828D981761F0A28DAE0FBF2F0B
:1001F000B11D5D968C91928D9F5F9F73928F90E061
:1002000008958FEF9FEF0895FC01918D828D9817CF
:1002100031F0828DE80FF11D858D90E008958FEF0C
:100220009FEF0895FC01918D228D892F90E0805CD5
:100230009F4F821B91098F739927089581EA91E05E
:100240000E94120121E0892B09F420E0822F0895F9
:1002500080E090E0892B29F00E941E0181110C940E
:1002600000000895FC01A48DA80FB92FB11DA35A59
:10027000BF4F2C91848D90E001968F739927848FC6
:10028000A689B7892C93A089B1898C9183708064E9
:100290008C93938D848D981306C00288F389E02D8A
:1002A00080818F7D80830895EF92FF920F931F933B
:1002B000CF93DF93EC0181E0888F9B8D8C8D981319
:1002C0001AC0E889F989808185FF15C09FB7F89425
:1002D000EE89FF896083E889F98980818370806471
:1002E00080839FBF81E090E0DF91CF911F910F91BC
:1002F000FF90EF900895F62E0B8D10E00F5F1F4FCB
:100300000F731127E02E8C8D8E110CC00FB607FCD9
:10031000FACFE889F989808185FFF5CFCE010E9467
:100320003201F1CFEB8DEC0FFD2FF11DE35AFF4FA2
:10033000F0829FB7F8940B8FEA89FB8980818062F5
:10034000CFCFCF93DF93EC01888D8823B9F0AA89B2
:10035000BB89E889F9898C9185FD03C0808186FD80
:100360000DC00FB607FCF7CF8C9185FFF2CF8081CF
:1003700085FFEDCFCE010E943201E9CFDF91CF9111
:100380000895FC0101900020E9F73197AF01481B67
:10039000590BBC0181EA91E00C94B4008F929F92BA
:1003A000AF92BF920F931F93CF93DF93CDB7DEB77A
:1003B000A1970FB6F894DEBF0FBECDBF19A2423091
:1003C00008F44AE08E010F5D1F4F842E912CB12C52
:1003D000A12CA50194010E94A807E62FB901CA012A
:1003E000EA30F4F4E05DD801EE938D01232B242B49
:1003F000252B79F790E080E0109719F0CD010E944D
:10040000C101A1960FB6F894DEBF0FBECDBFDF913C
:10041000CF911F910F91BF90AF909F908F900895B3
:10042000E95CE1CFCF93DF930E94C101EC0183E14E
:1004300091E00E94C1018C0F9D1FDF91CF91089523
:100440004F925F926F927F928F929F92AF92BF92E4
:10045000CF92DF92EF92FF920F931F93CF936B0196
:100460007C01742EAC019B010E94A307882399F0A4
:1004700086E191E0CF911F910F91FF90EF90DF9077
:10048000CF90BF90AF909F908F907F906F905F9034
:100490004F900C94C10146015701E894B7F82FEF33
:1004A0003FEF4FE75FE7C501B4010E94A307811149
:1004B0000DC02FEF3FEF4FE75FE7C501B4010E948A
:1004C000D90518161CF48AE191E0D4CF2FEF3FEF45
:1004D0004FE75FE4C701B6010E94310718161CF40C
:1004E0008EE191E0C7CF2FEF3FEF4FE75FECC70101
:1004F000B6010E94D90587FDF3CF20E030E0A901C5
:10050000C701B6010E94D90510E000E087FF0AC0CC
:100510006DE281EA91E00E9454018C01F7FAF094B7
:10052000F7F8F094C0E060E070E080E09FE37C16B4
:1005300041F020E030E040E251E40E94DE05CF5F70
:10054000F6CFA70196010E946D052B013C010E9488
:1005500050064B015C014AE00E94CE017C01E00E96
:10056000F11ECC23C1F1C501B4010E947F069B019D
:10057000AC01C301B2010E946C054B015C016EE24B
:1005800081EA91E00E945401E80EF91EC15018F171
:1005900020E030E040E251E4C501B4010E9436079A
:1005A0002B013C010E9450064B01B12CA12C4AE0CA
:1005B000C501B4010E94CE01E80EF91EC501B401C7
:1005C0000E947F069B01AC01C301B2010E946C0531
:1005D0004B015C01DBCFC701CF911F910F91FF90C1
:1005E000EF90DF90CF90BF90AF909F908F907F90D3
:1005F0006F905F904F9008951F920F920FB60F92D9
:1006000011242F933F934F935F936F937F938F9317
:100610009F93AF93BF93EF93FF9381EA91E00E9482
:100620003201FF91EF91BF91AF919F918F917F9197
:100630006F915F914F913F912F910F900FBE0F904F
:100640001F9018951F920F920FB60F9211242F939F
:100650008F939F93EF93FF93E091B101F091B201DB
:100660008081E091B701F091B80182FD1BC09081BB
:100670008091BA018F5F8F732091BB01821741F087
:10068000E091BA01F0E0EF55FE4F958F8093BA01EB
:10069000FF91EF919F918F912F910F900FBE0F902F
:1006A0001F9018958081F4CF1F920F920FB60F9272
:1006B00011242F933F938F939F93AF93BF93809178
:1006C0008D0190918E01A0918F01B0919001309198
:1006D0008C0123E0230F2D3758F50196A11DB11D84
:1006E00020938C0180938D0190938E01A0938F01B4
:1006F000B09390018091880190918901A0918A0125
:10070000B0918B010196A11DB11D8093880190933A
:100710008901A0938A01B0938B01BF91AF919F9102
:100720008F913F912F910F900FBE0F901F901895B2
:1007300026E8230F0296A11DB11DD2CF789484B56F
:10074000826084BD84B5816084BD85B5826085BDCD
:1007500085B5816085BD80916E00816080936E005B
:10076000109281008091810082608093810080914D
:1007700081008160809381008091800081608093FE
:1007800080008091B10084608093B1008091B000BE
:1007900081608093B00080917A00846080937A00B9
:1007A00080917A00826080937A0080917A008160E3
:1007B00080937A0080917A00806880937A0010920A
:1007C000C10080919F010E948C0086E00E948C00F5
:1007D000E091B101F091B20182E08083E091AD013E
:1007E000F091AE011082E091AF01F091B0018FEC79
:1007F00080831092B901E091B501F091B60186E0D5
:100800008083E091B301F091B401808180618083A5
:10081000E091B301F091B401808188608083E09120
:10082000B301F091B401808180688083E091B301CD
:10083000F091B40180818F7D8083C8E7D0E004EB24
:1008400010E090EAE92E90E0F92E20E0C22E20E0A0
:10085000D22EBB24B39481EA91E00E9412011816B3
:10086000190644F481EA91E00E94F0009093A001FF
:1008700080939F0180919F019091A001892B09F0A5
:1008800043C080919E0181113FC02FB7F8946091C1
:100890008D0170918E0180918F01909190012FBFF9
:1008A0000E947F0660939A0170939B0180939C0144
:1008B00090939D018FB7F89440918D0150918E01D6
:1008C00060918F01709190018FBF82E291E00E9450
:1008D000120282E491E00E94C10120E030E04AE788
:1008E00054E460919A0170919B0180919C019091D8
:1008F0009D010E94DE0542E00E94200283E191E01A
:100900000E94C101B0929E01FE018491F801949170
:10091000F7012491211171C0809100018823D9F041
:100920002FB7F89460918D0170918E0180918F01A5
:10093000909190012FBF0E947F0660939601709363
:10094000970180939801909399011092000184E59A
:1009500091E00E94120280919E01882309F462C0F6
:100960008091950181115EC02FB7F89460918D013F
:1009700070918E0180918F01909190012FBF0E9404
:100980007F062091960130919701409198015091F6
:1009900099010E946C05609391017093920180937C
:1009A00093019093940185E691E00E94120289E7F9
:1009B00091E00E94C10120919A0130919B014091E8
:1009C0009C0150919D0160919101709192018091E3
:1009D0009301909194010E946D0520E030E04AE778
:1009E00054E40E94DE0542E00E94200283E191E08F
:1009F0000E94C101B092950115C0882339F083305F
:100A000039F1E0F4813051F1823061F1E22FF0E010
:100A1000EE0FFF1FE859FF4FA591B4918C919823D9
:100A200009F47ACFC114D10409F415CF0E941E0134
:100A3000882309F410CF0E9400000DCF8730A9F061
:100A40008830C9F0843011F7809180008F7D03C019
:100A5000809180008F7780938000D8CF84B58F7786
:100A600084BDD4CF84B58F7DFBCF8091B0008F77CC
:100A70008093B000CBCF8091B0008F7DF9CFE1EAB9
:100A8000F1E01382128288EE93E0A0E0B0E084836C
:100A90009583A683B78385E091E09183808385EC7D
:100AA00090E09587848784EC90E09787868780EC38
:100AB00090E0918B808B81EC90E0938B828B82EC29
:100AC00090E0958B848B86EC90E0978B868B118ED3
:100AD000128E138E148E08955058BB27AA270E9499
:100AE00084050C94F7060E94E90638F00E94F0068F
:100AF00020F039F49F3F19F426F40C94E6060EF426
:100B0000E095E7FB0C94E006E92F0E94080758F3F4
:100B1000BA17620773078407950720F079F4A6F5E2
:100B20000C942A070EF4E0950B2EBA2FA02D0B0182
:100B3000B90190010C01CA01A0011124FF27591B22
:100B400099F0593F50F4503E68F11A16F040A22F28
:100B5000232F342F4427585FF3CF46953795279599
:100B6000A795F0405395C9F77EF41F16BA0B620B98
:100B7000730B840BBAF09150A1F0FF0FBB1F661FDF
:100B8000771F881FC2F70EC0BA0F621F731F841F22
:100B900048F4879577956795B795F7959E3F08F048
:100BA000B0CF9395880F08F09927EE0F979587950A
:100BB00008950E94BC0608F481E008950E94F205A1
:100BC0000C94F7060E94F00658F00E94E90640F0E7
:100BD00029F45F3F29F00C94E00651110C942B0787
:100BE0000C94E6060E94080768F39923B1F3552395
:100BF00091F3951B550BBB27AA2762177307840730
:100C000038F09F5F5F4F220F331F441FAA1FA9F3C5
:100C100035D00E2E3AF0E0E832D091505040E695B3
:100C2000001CCAF72BD0FE2F29D0660F771F881F14
:100C3000BB1F261737074807AB07B0E809F0BB0B07
:100C4000802DBF01FF2793585F4F3AF09E3F51051B
:100C500078F00C94E0060C942B075F3FE4F3983E89
:100C6000D4F3869577956795B795F7959F5FC9F704
:100C7000880F911D9695879597F90895E1E0660F85
:100C8000771F881FBB1F621773078407BA0720F0FE
:100C9000621B730B840BBA0BEE1F88F7E095089567
:100CA0000E94100788F09F5798F0B92F9927B751E5
:100CB000B0F0E1F0660F771F881F991F1AF0BA9500
:100CC000C9F714C0B13091F00E942A07B1E008952D
:100CD0000C942A07672F782F8827B85F39F0B93F1F
:100CE000CCF3869577956795B395D9F73EF49095B3
:100CF0008095709561957F4F8F4F9F4F0895E89431
:100D000009C097FB3EF490958095709561957F4F53
:100D10008F4F9F4F9923A9F0F92F96E9BB27939501
:100D2000F695879577956795B795F111F8CFFAF411
:100D3000BB0F11F460FF1BC06F5F7F4F8F4F9F4F42
:100D400016C0882311F096E911C0772321F09EE8A0
:100D5000872F762F05C0662371F096E8862F70E006
:100D600060E02AF09A95660F771F881FDAF7880FE0
:100D70009695879597F90895990F0008550FAA0B36
:100D8000E0E8FEEF16161706E807F907C0F012169E
:100D90001306E407F50798F0621B730B840B950BA1
:100DA00039F40A2661F0232B242B252B21F40895F6
:100DB0000A2609F4A140A6958FEF811D811D089593
:100DC00097F99F6780E870E060E008959FEF80ECFE
:100DD000089500240A9416161706180609060895A1
:100DE00000240A9412161306140605060895092E07
:100DF0000394000C11F4882352F0BB0F40F4BF2B76
:100E000011F460FF04C06F5F7F4F8F4F9F4F0895B5
:100E100057FD9058440F551F59F05F3F71F04795AB
:100E2000880F97FB991F61F09F3F79F08795089590
:100E3000121613061406551FF2CF4695F1DF08C0AF
:100E4000161617061806991FF1CF869571056105CC
:100E500008940895E894BB2766277727CB0197F974
:100E600008950E94BC0608F48FEF08950E94490778
:100E70000C94F7060E94E90638F00E94F00620F074
:100E8000952311F00C94E0060C94E60611240C94C2
:100E90002B070E94080770F3959FC1F3950F50E050
:100EA000551F629FF001729FBB27F00DB11D639F1C
:100EB000AA27F00DB11DAA1F649F6627B00DA11DC2
:100EC000661F829F2227B00DA11D621F739FB00D68
:100ED000A11D621F839FA00D611D221F749F3327D8
:100EE000A00D611D231F849F600D211D822F762F71
:100EF0006A2F11249F5750409AF0F1F088234AF04E
:100F0000EE0FFF1FBB1F661F771F881F91505040B9
:100F1000A9F79E3F510580F00C94E0060C942B0736
:100F20005F3FE4F3983ED4F3869577956795B79540
:100F3000F795E7959F5FC1F7FE2B880F911D96955A
:100F4000879597F908950E94BC06880B990B089520
:100F5000A1E21A2EAA1BBB1BFD010DC0AA1FBB1FBD
:100F6000EE1FFF1FA217B307E407F50720F0A21B2F
:100F7000B30BE40BF50B661F771F881F991F1A949C
:100F800069F760957095809590959B01AC01BD01C6
:100F9000CF010895EE0FFF1F0590F491E02D099405
:040FA000F894FFCFF3
:100FA40001000000005401B400E100A1011201F0AD
:100FB4000004010D0A006E616E00696E66006F76B2
:100FC40066004F20636172726F20616361626F75A6
:100FD4002064652070617373617220617175692189
:100FE4000A0054656D706F203330206D6574726F24
:100FF400733A2000496E69636961646F206F2074DD
:1010040065737465000A54657374652066696E615E
:101014006C697A61646F210A0054656D706F206693
:08102400696E616C3A200000C6
:107E0000112484B714BE81FFF0D085E080938100F7
:107E100082E08093C00088E18093C10086E0809377
:107E2000C20080E18093C4008EE0C9D0259A86E02C
:107E300020E33CEF91E0309385002093840096BBD3
:107E4000B09BFECF1D9AA8958150A9F7CC24DD24C4
:107E500088248394B5E0AB2EA1E19A2EF3E0BF2EE7
:107E6000A2D0813461F49FD0082FAFD0023811F036
:107E7000013811F484E001C083E08DD089C08234E0
:107E800011F484E103C0853419F485E0A6D080C0E4
:107E9000853579F488D0E82EFF2485D0082F10E0AE
:107EA000102F00270E291F29000F111F8ED06801E7
:107EB0006FC0863521F484E090D080E0DECF843638
:107EC00009F040C070D06FD0082F6DD080E0C81688
:107ED00080E7D80618F4F601B7BEE895C0E0D1E017
:107EE00062D089930C17E1F7F0E0CF16F0E7DF06D8
:107EF00018F0F601B7BEE89568D007B600FCFDCFD4
:107F0000A601A0E0B1E02C9130E011968C91119780
:107F100090E0982F8827822B932B1296FA010C0160
:107F200087BEE89511244E5F5F4FF1E0A038BF0790
:107F300051F7F601A7BEE89507B600FCFDCF97BE46
:107F4000E89526C08437B1F42ED02DD0F82E2BD052
:107F50003CD0F601EF2C8F010F5F1F4F84911BD097
:107F6000EA94F801C1F70894C11CD11CFA94CF0C13
:107F7000D11C0EC0853739F428D08EE10CD085E9AC
:107F80000AD08FE07ACF813511F488E018D01DD067
:107F900080E101D065CF982F8091C00085FFFCCF94
:107FA0009093C60008958091C00087FFFCCF809118
:107FB000C00084FD01C0A8958091C6000895E0E648
:107FC000F0E098E1908380830895EDDF803219F02E
:107FD00088E0F5DFFFCF84E1DECF1F93182FE3DFCA
:107FE0001150E9F7F2DF1F91089580E0E8DFEE27F6
:047FF000FF270994CA
:027FFE00040479
:0400000300007E007B
:00000001FF
