:100000000C9463000C946A040C9443040C949104C3
:100010000C9491040C9491040C948B000C948B0020
:100020000C948B000C948B000C948B000C948B0024
:100030000C948B000C948B000C948B000C948B0014
:100040000C94F9030C948B000C94C7030C94A1033B
:100050000C948B000C948B000C948B000C948B00F4
:100060000C948B000C948B0000000008000201002F
:100070000003040700000000000000000000000072
:1000800023002600290000000000240027002A0089
:1000900000000000250028002B00040404040404D0
:1000A0000404020202020202030303030303010227
:1000B00004081020408001020408102001020408F6
:1000C00010205505CD0711241FBECFEFD8E0DEBFAD
:1000D000CDBF11E0A0E0B1E0ECE8F0E102C0059096
:1000E0000D92AC35B107D9F722E0ACE5B1E001C023
:1000F0001D92A337B207E1F710E0C2E6D0E004C0DA
:100100002197FE010E943308C136D107C9F70E942A
:100110003E060C9439080C940000AF92BF92CF9227
:10012000DF92EF92FF920F931F93CF93DF936C01B7
:100130007B018B01040F151FEB015E01AE18BF0898
:10014000C017D10759F06991D601ED91FC9101904A
:10015000F081E02DC6010995892B79F7C501DF9162
:10016000CF911F910F91FF90EF90DF90CF90BF90B4
:10017000AF900895FC01538D448D252F30E0842FDE
:1001800090E0821B930B541710F0CF9608950197BF
:100190000895FC01918D828D981761F0A28DAE0FAC
:1001A000BF2FB11D5D968C91928D9F5F9F73928F33
:1001B00090E008958FEF9FEF0895FC01918D828D5F
:1001C000981731F0828DE80FF11D858D90E008952C
:1001D0008FEF9FEF0895FC01918D228D892F90E084
:1001E000805C9F4F821B91098F739927089587EB3D
:1001F00091E00E94EB0021E0892B09F420E0822F9E
:10020000089580E090E0892B29F00E94F700811189
:100210000C9400000895FC01A48DA80FB92FB11D06
:10022000A35ABF4F2C91848D90E001968F7399272C
:10023000848FA689B7892C93A089B1898C9183700A
:1002400080648C93938D848D981306C00288F38903
:10025000E02D80818F7D80830895EF92FF920F9330
:100260001F93CF93DF93EC0181E0888F9B8D8C8D62
:1002700098131AC0E889F989808185FF15C09FB756
:10028000F894EE89FF896083E889F9898081837019
:10029000806480839FBF81E090E0DF91CF911F91C8
:1002A0000F91FF90EF900895F62E0B8D10E00F5FE9
:1002B0001F4F0F731127E02E8C8D8E110CC00FB6BF
:1002C00007FCFACFE889F989808185FFF5CFCE0157
:1002D0000E940B01F1CFEB8DEC0FFD2FF11DE35AC6
:1002E000FF4FF0829FB7F8940B8FEA89FB898081DA
:1002F0008062CFCFCF93DF93EC01888D8823B9F054
:10030000AA89BB89E889F9898C9185FD03C0808120
:1003100086FD0DC00FB607FCF7CF8C9185FFF2CF9D
:10032000808185FFEDCFCE010E940B01E9CFDF91E7
:10033000CF9108953FB7F8948091A3019091A401C3
:10034000A091A501B091A60126B5A89B05C02F3F9D
:1003500019F00196A11DB11D3FBFBA2FA92F982FEB
:100360008827BC01CD01620F711D811D911D42E0E6
:10037000660F771F881F991F4A95D1F70895089532
:100380002091A9013091AA012817390771F49091A1
:10039000A7018091A801981741F0E091A701F0E032
:1003A000EE59FE4F808190E008958FEF9FEF089502
:1003B0000895EF92FF920F931F93CF93DF93DC0189
:1003C0005C96ED90FC905D97E114F10479F481E086
:1003D00090E013969C938E93129790E080E0DF91CB
:1003E000CF911F910F91FF90EF9008955196ED914D
:1003F000FC91529750968C915097982F90950FB7EB
:100400005E962C915E97122F127021FD6095F894E4
:100410002081112319F1282B2083E7012197F1F77F
:1004200028E0462F50E0308160FF1AC0382B30831F
:10043000E7012197F1F7BA0175956795215089F782
:10044000112381F08081892380830FBF5C968D9179
:100450009C910197F1F781E090E0C1CF2923DCCF97
:100460003923E5CF9081892BEFCF2091A9013091DD
:10047000AA012817390771F48091A8012091A701DA
:1004800090E0805C9F4F821B910960E470E00E94C5
:10049000E907089590E080E008952091A901309146
:1004A000AA0128173907B9F49091A7018091A801F2
:1004B000981789F0E091A701F0E0EE59FE4F808196
:1004C0002091A70130E02F5F3F4F2F7333272093F8
:1004D000A70190E008958FEF9FEF089590E080E0EE
:1004E0000895FC0101900020E9F73197AF01481B06
:1004F000590BBC0187EB91E00C948D008F929F9279
:10050000AF92BF920F931F93CF93DF93CDB7DEB718
:10051000A1970FB6F894DEBF0FBECDBF19A242302F
:1005200008F44AE08E010F5D1F4F842E912CB12CF0
:10053000A12CA50194010E94FD07E62FB901CA0173
:10054000EA30F4F4E05DD801EE938D01232B242BE7
:10055000252B79F790E080E0109719F0CD010E94EB
:100560007102A1960FB6F894DEBF0FBECDBFDF912A
:10057000CF911F910F91BF90AF909F908F90089552
:10058000E95CE1CFCF92DF92EF92FF92CF93DF93BE
:100590006B017C016DE287EB91E00E942D01EC0183
:1005A00066277727CB016C197D098E099F094AE0E0
:1005B0000E947E028C0F9D1FDF91CF91FF90EF90E4
:1005C000DF90CF900895BC01990F880B990B97FD90
:1005D0000C94C2024AE00C947E02CF93DF930E94F7
:1005E0007102EC0188E291E00E9471028C0F9D1F64
:1005F000DF91CF910895CF93DF936CE287EB91E089
:100600000E942D01EC0188E291E00E9471028C0FA2
:100610009D1FDF91CF9108950F931F93CF93DF9389
:100620000E949A0100915E0110915F01209160018A
:1006300030916101601B710B820B930B603A76481D
:100640008140910554F18BE291E00E94ED0280918E
:10065000B1019091B2012FB7892B21F5F8948091C7
:10066000AB019091AC01A091AD01B091AE012FBF53
:100670009093B2018093B10181E08093B6018EE244
:1006800091E00E94ED020E949A0160935E017093D6
:100690005F018093600190936101DF91CF911F9181
:1006A0000F910895F8948091AB019091AC01A091C5
:1006B000AD01B091AE012FBF2091B1013091B201D7
:1006C000821B930B90935D0180935C011092B601A5
:1006D0008091B3019091B401C8EED3E0BE010E94B5
:1006E000E907CB010E94E3020E94FB028091AF0167
:1006F0009091B001BE010E94E907CB010E94E30284
:100700000E94FB0280915C0190915D01BE010E94FC
:10071000E907CB010E94E3021092B2011092B101ED
:1007200010925D0110925C011092B4011092B3011D
:100730001092B0011092AF011092B6011092B50163
:10074000A2CF1F920F920FB60F9211242F933F93B7
:100750004F935F936F937F938F939F93AF93BF93C9
:10076000EF93FF9387EB91E00E940B01FF91EF91D4
:10077000BF91AF919F918F917F916F915F914F91B9
:100780003F912F910F900FBE0F901F9018951F92C1
:100790000F920FB60F9211242F938F939F93EF9385
:1007A000FF93E091C701F091C8018081E091CD01F4
:1007B000F091CE0182FD1BC090818091D0018F5FAE
:1007C0008F732091D101821741F0E091D001F0E0C8
:1007D000E954FE4F958F8093D001FF91EF919F9147
:1007E0008F912F910F900FBE0F901F9018958081C1
:1007F000F4CF1F920F920FB60F9211242F933F93B5
:100800008F939F93AF93BF938091AB019091AC0175
:10081000A091AD01B091AE013091A20123E0230F70
:100820002D3758F50196A11DB11D2093A20180938B
:10083000AB019093AC01A093AD01B093AE01809158
:10084000A3019091A401A091A501B091A6010196E8
:10085000A11DB11D8093A3019093A401A093A501B4
:10086000B093A601BF91AF919F918F913F912F912E
:100870000F900FBE0F901F90189526E8230F029639
:10088000A11DB11DD2CF1F920F920FB60F9211244E
:100890002F933F934F935F936F937F938F939F9388
:1008A000AF93BF93EF93FF93E0910201F0910301A7
:1008B0000995FF91EF91BF91AF919F918F917F919A
:1008C0006F915F914F913F912F910F900FBE0F90BD
:1008D0001F9018951F920F920FB60F9211242F930D
:1008E0003F934F935F936F937F938F939F93AF93B8
:1008F000BF93EF93FF93E0910001F09101010995FF
:10090000FF91EF91BF91AF919F918F917F916F91E7
:100910005F914F913F912F910F900FBE0F901F90BD
:1009200018951F920F920FB60F9211242F933F9399
:100930004F935F936F937F938F939F93AF93BF93E7
:10094000EF93FF93E091A901F091AA01309749F04C
:10095000A685B7858585968D91FF14C09C918923C6
:10096000A1F4FF91EF91BF91AF919F918F917F91F2
:100970006F915F914F913F912F910F900FBE0F900C
:100980001F9018959C91892361F7A389B4899C9144
:100990008589809589238C93868997890197F1F7BA
:1009A000608D718DA685B785558538E020E0CB0137
:1009B0000197F1F7822F90E095958795282F4C911C
:1009C000452309F02068315091F7868D81FD2095EF
:1009D0008091A80190E001968F7399273091A7012B
:1009E000381799F0A091A801B0E0AE59BE4F2C93F2
:1009F0008093A801828D938D0197F1F7A389B48923
:100A00008C919589892B8C93ACCF868D8160868F54
:100A1000F1CF90E0FC01E859FF4F2491FC01E25531
:100A2000FF4F3491FC01E656FF4FE491EE23C9F0ED
:100A3000222339F0233001F1A8F4213019F12230BA
:100A400029F1F0E0EE0FFF1FE057FF4FA591B491A1
:100A50008FB7F894EC91611126C030953E233C93FA
:100A60008FBF08952730A9F02830C9F0243049F706
:100A7000809180008F7D03C0809180008F7780936C
:100A80008000DFCF84B58F7784BDDBCF84B58F7DC9
:100A9000FBCF8091B0008F778093B000D2CF809150
:100AA000B0008F7DF9CF3E2BDACF0F931F93CF93FA
:100AB000DF931092BA011092B90188EE93E0A0E0A2
:100AC000B0E08093BB019093BC01A093BD01B093B3
:100AD000BE0128E031E03093B8012093B70125EC46
:100AE00030E03093C4012093C30124EC30E0309314
:100AF000C6012093C50120EC30E03093C80120935B
:100B0000C70121EC30E03093CA012093C90122ECE7
:100B100030E03093CC012093CB0126EC30E03093D1
:100B2000CE012093CD011092D0011092D1011092EC
:100B3000D2011092D3011092570210925602809364
:100B4000580290935902A0935A02B0935B028AE133
:100B500091E0909355028093540210926B02109290
:100B60006A0210926D0210926C0210926F02109243
:100B70006E021092710210927002609172026E7F8A
:100B80006D7F609372026695617081E0682785E0F1
:100B90000E94090543EB50E0FA0164918FE990E06F
:100BA000FC012491222399F030E0220F331FF90138
:100BB000EA57FF4FA591B491F901E057FF4F2591F6
:100BC00034912FB7F8943C91632B6C932FBFFA01AB
:100BD000449140936402FC018491E82FF0E0EE0F11
:100BE000FF1FE057FF4F8591949190936602809389
:100BF000650202EB10E0F8012491CEE9D0E0FE019D
:100C000084918823C9F090E0880F991FFC01EA576E
:100C1000FF4FA591B491FC01E057FF4F45915491CE
:100C20003FB7F8949C91822F809598239C93FA016A
:100C30009081892380833FBF8091720281FD04C02F
:100C400061E084E00E94090584E080936002F8017D
:100C5000049100936102FE01C491EC2FF0E0EE0FCD
:100C6000FF1FE458FF4F8591949190936302809306
:100C70006202DF91CF911F910F910895789484B50E
:100C8000826084BD84B5816084BD85B5826085BD88
:100C900085B5816085BD80916E00816080936E0016
:100CA0001092810080918100826080938100809108
:100CB00081008160809381008091800081608093B9
:100CC00080008091B10084608093B1008091B00079
:100CD00081608093B00080917A00846080937A0074
:100CE00080917A00826080937A0080917A0081609E
:100CF00080937A0080917A00806880937A001092C5
:100D0000C100E091C701F091C80182E08083E091C9
:100D1000C301F091C4011082E091C501F091C601B8
:100D20008FEC80831092CF01E091CB01F091CC0148
:100D300086E08083E091C901F091CA0180818061E1
:100D40008083E091C901F091CA018081886080832D
:100D5000E091C901F091CA01808180688083E091AF
:100D6000C901F091CA0180818F7D808310926F024A
:100D700010926E0210926D0210926C0210926B0231
:100D800010926A028DE991E0909371028093700253
:100D900090916002963108F047C02DEB30E030931F
:100DA0006B0220936A022BE931E030936D022093AD
:100DB0006C022CE231E030936F0220936E0220919E
:100DC000680084E0983048F031E09E3008F430E06C
:100DD00081E001C0880F3A95EAF7822B8093680082
:100DE0002DE630E0983050F02BE630E09E3030F0C9
:100DF0002CE630E0963110F030E020E030936802CD
:100E000020936702292F30E0983008F091C081E0EC
:100E100001C0880F9A95EAF7809369028091700269
:100E2000909171020197F1F780916E0290916F029B
:100E3000892B49F1E091A901F091AA0182E0E43502
:100E4000F80709F1309739F0A389B4899C91858915
:100E5000809589238C93809172028E7F8093720299
:100E60001092A8011092A70184E592E09093AA0144
:100E70008093A901E0916702F091680280819091CE
:100E80006902892B80838CE093E090930301809327
:100E9000020180916900837F886080936900E99AEC
:100EA000C0E0D0E011E087EB91E00E94EB00892BDD
:100EB00009F468C087EB91E00E94C900BC01990F5A
:100EC000880B990B97FF41C00E94C20288E291E013
:100ED0000E94710287EB91E00E94C900819719F787
:100EE0008091B6018823F9F28091B5018111DBCFA1
:100EF0008091B3019091B4012FB7892B51F5F894EB
:100F00008091AB019091AC01A091AD01B091AE0187
:100F10002FBF2091B1013091B201821B930B9093AE
:100F2000B4018093B30186E391E00E94ED02BBCF50
:100F30009E3040F42850310981E001C0880F2A9585
:100F4000EAF76ACF2E503109F7CF4AE00E947E02BD
:100F5000BDCFF8948091AB019091AC01A091AD010F
:100F6000B091AE012FBF2091B1013091B201821B2F
:100F7000930B9093B0018093AF011093B50189E476
:100F800091E0D3CF209709F48ECF0E94F7008823F9
:100F900009F489CF0E94000086CF8AE191E0909306
:100FA0005502809354028091A9019091AA01845521
:100FB000924071F4E0916702F09168029081809113
:100FC00069028095892380831092AA011092A90159
:100FD000089597FB072E16F4009407D077FD09D0EB
:100FE0000E941F0807FC05D03EF4909581959F4F05
:100FF0000895709561957F4F0895A1E21A2EAA1B5E
:10100000BB1BFD010DC0AA1FBB1FEE1FFF1FA217B8
:10101000B307E407F50720F0A21BB30BE40BF50BB5
:10102000661F771F881F991F1A9469F7609570953E
:10103000809590959B01AC01BD01CF010895AA1B3D
:10104000BB1B51E107C0AA1FBB1FA617B70710F0B3
:10105000A61BB70B881F991F5A95A9F780959095E5
:10106000BC01CD010895EE0FFF1F0590F491E02D16
:10107000099410E0C2E6D0E004C0FE010E943308EB
:0C1080002196C336D107C9F7F894FFCFC2
:10108C00BF01BF01000000002D018D00BA007A01E4
:10109C00EB00C900DD0000000000D9018D006E02DC
:1010AC00D80135024D02C0010D0A00414100436FC9
:1010BC006D65636F75005072696D6569726F207331
:1010CC00696E616C2033306D00536567756E646FAB
:0C10DC002073696E616C2033306D0000E1
:00000001FF
