:0400000015EF03F005
:100008009EA00CD0010E0001736F000E746F6F4B31
:10001800702BE70ECF6E960ECE6E9E90F2A204D095
:1000280000017B4B7C2BF292F0A004D00001794BAD
:060038007A2BF09011008C
:10003E000B6A0A6A096A086A0E6A033408360450A3
:10004E00085E0550D8A0053C095E0650D8A0063CB7
:10005E000A5E0750D8A0073C0B5EE86AD8A0010ED6
:10006E000E5E0336070E0C6E0334083609360A365A
:10007E000B360E36045003A012D0085E0550D8A0E1
:10008E00053C095E0650D8A0063C0A5E0750D8A073
:10009E00073C0B5EE86AD8A0010E0E5E11D0082652
:1000AE000550D8B0053C09260650D8B0063C0A26A5
:1000BE000750D8B0073C0B26E86AD8B0010E0E26C2
:1000CE0003360C2ED1D70234083609360A360B36D3
:1000DE000E36045003A012D0085E0550D8A0053C81
:1000EE00095E0650D8A0063C0A5E0750D8A0073C11
:1000FE000B5EE86AD8A0010E0E5E11D008260550E0
:10010E00D8B0053C09260650D8B0063C0A26075042
:10011E00D8B0073C0B26E86AD8B0010E0E26023680
:10012E00070E0C6E0234083609360A360B360E36BA
:10013E00045002A012D0085E0550D8A0053C095EFE
:10014E000650D8A0063C0A5E0750D8A0073C0B5EAE
:10015E00E86AD8A0010E0E5E11D008260550D8B060
:10016E00053C09260650D8B0063C0A260750D8B0E2
:10017E00073C0B26E86AD8B0010E0E2602360C2E6E
:10018E00D1D70134083609360A360B360E360450EE
:10019E0002A012D0085E0550D8A0053C095E06509C
:1001AE00D8A0063C0A5E0750D8A0073C0B5EE86A52
:1001BE00D8A0010E0E5E11D008260550D8B0053C11
:1001CE0009260650D8B0063C0A260750D8B0073C80
:1001DE000B26E86AD8B0010E0E260136070E0C6EFD
:1001EE000134083609360A360B360E36045001A095
:1001FE0012D0085E0550D8A0053C095E0650D8A066
:10020E00063C0A5E0750D8A0073C0B5EE86AD8A0F1
:10021E00010E0E5E11D008260550D8B0053C0926F9
:10022E000650D8B0063C0A260750D8B0073C0B261D
:10023E00E86AD8B0010E0E2601360C2ED1D7003446
:10024E00083609360A360B360E36045001A012D087
:10025E00085E0550D8A0053C095E0650D8A0063CA5
:10026E000A5E0750D8A0073C0B5EE86AD8A0010EC4
:10027E000E5E11D008260550D8B0053C0926065052
:10028E00D8B0063C0A260750D8B0073C0B26E86AC1
:10029E00D8B0010E0E260036070E0C6E003408364E
:1002AE0009360A360B360E36045000A012D0085E00
:1002BE000550D8A0053C095E0650D8A0063C0A5E43
:1002CE000750D8A0073C0B5EE86AD8A0010E0E5E60
:1002DE0011D008260550D8B0053C09260650D8B0D6
:1002EE00063C0A260750D8B0073C0B26E86AD8B061
:1002FE00010E0E2600360C2ED1D700B00ED00450B3
:10030E0008260550D8B0053C09260650D8B0063C44
:0C031E000A260750D8B0073C0B2612003E
:10032A000134083609360450085E0550D8A0053C49
:10033A00095E003601360F0E0C6E01340836093696
:10034A00045000A006D0085E0550D8A0053C095EFE
:10035A0005D008260550D8B0053C092600360136D6
:10036A000C2EEBD700B006D0045008260550D8B0A2
:08037A00053C092600001200F9
:100382000450000A08E10550000A05E1FF0E006E64
:100392007F0E016E57D00D6A096A086A015000107B
:1003A200D8B4000C015005180A6E0ABE0D1E0B6A65
:1003B20005AE05D0041E051E042AD8B4052A01AED6
:1003C20005D0001E011E002AD8B4012A01500510D2
:1003D2000A6E0ABE10D0A8DF0BB020D00DAE000C02
:1003E200001E011E002AD8B4012A081E091E082A6E
:1003F200D8B4092A000C05AE0DD001BE07D00150B9
:10040200096E0050086E016A006AE8D7016A006A44
:10041200002A000C011E001E0B2ADDD7082AD8B4C0
:10042200092A0450085CD8A4D9D70550095CD8A47D
:10043200D5D7096A086A002AD8B4012A01AECED7F4
:060442000000FF0C120097
:100448000001836B846B856B866B876B886B896B0C
:100458008A6B090E156E000E166E800E006E800EE9
:100468001618005C02E1155000084DE215C000F0B6
:1004780016C001F00036009001365B0E0024E16ED4
:10048800000E0120E26E010E155C036E000E165878
:10049800046E03C000F004C001F00036009001367D
:1004A8005B0E0024E96E000E0120EA6EEECFE6FF37
:1004B800EECFE6FF15C000F016C001F00036009040
:1004C8000136470E0024E16E000E0120E26E010E97
:1004D800155C036E000E1658046E03C000F004C0CD
:1004E80001F0003600900136470E0024E96E000E38
:1004F8000120EA6EEECFE6FFEECFE6FF010E155EB5
:10050800000E165AAAD77FC05BF080C05CF081C08D
:1005180047F082C048F0156A166A800E1618006EF9
:10052800800E005C02E10A0E155C24E215C000F0A2
:1005380016C001F00036009001365B0E0024D96E1B
:10054800000E0120DA6EDE508327DE508423000E71
:1005580085238623470E0024D96E000E0120DA6E0B
:10056800DE508727DE508823000E89238A23154A08
:10057800162AD3D70A0E046E000E056E066E076E95
:1005880083C000F084C001F085C002F086C003F08B
:1005980052DD00C077F001C078F00A0E046E000E3C
:1005A800056E066E076E87C000F088C001F089C02E
:1005B80002F08AC003F03FDD00C075F001C076F09C
:0205C80012001F
:1005CA000900F5CFE6FF0006FBE10106F9E112009A
:1005DA000B6A0A6A096A00500402F4CF09F0F3CFE1
:1005EA0008F001500502F4CF0BF0F3CF0AF00050E7
:1005FA000502F3500926F4500A22E86A0B22015038
:10060A000402F3500926F4500A22E86A0B2208C0B1
:10061A0000F009C001F00AC002F00BC003F012009A
:10062A000CEC04F0C186C184C182C180F28EF28CC6
:10063A00F288F19CF086F19A9D80CD8ACD88E70EEA
:10064A00CF6E960ECE6ECD809490926A956A000116
:10065A00735174115FE0736B746B31C03DF032C03B
:10066A003EF033C03FF034C040F041C07DF042C09C
:10067A007EF07D377D917E37350E7D25D96E000E51
:10068A007E21DA6EDECF04F0DECF05F0000E066EB4
:10069A00076E31C000F032C001F033C002F034C03E
:1006AA0003F0C8DC08C000F009C001F00AC002F07B
:1006BA000BC003F000C03DF001C03EF002C03FF0A5
:1006CA0003C040F0430E4124E96E000E4220EA6E58
:1006DA00EECF89FF210E7D25D96E000E7E21DA6EBE
:1006EA00DECF04F0DECF05F0000E066E076EA2DC48
:1006FA00170E0024E96E000E0120EA6EEECF8CFF81
:10070A00290E7D25E96E000E7E21EA6EEECF41F0BC
:10071A00EECF42F0000E701902E1190E6F195CE17A
:10072A00711D006E721D016E00C071F001C072F081
:10073A0000B002D0829001D082806F6B706B79C05A
:10074A0000F07AC001F0060E046E000E056E40DF5E
:10075A0000C07DF001C07EF07DC075F07EC076F0ED
:10076A007BC000F07CC001F0F00E046E000E056E36
:10077A002FDF00C077F001C078F000C07FF001C021
:10078A0080F07DC081F07EC082F059DE796B7A6B91
:10079A007B6B7C6B75C000F076C001F0640E046E52
:1007AA00000E056E15DF00C07DF001C07EF0640EFC
:1007BA00046E000E056E77C000F078C001F0DCDD33
:1007CA00005000017D25316E01507E21326E000EEF
:0C07DA0032BEFF0E336E346E3AD7FFD7EC
:1008180010EE15F0320E006E010E016EE60EF66E49
:0E082800070EF76E000EF86EE5EC02F01200FF
:0207E600000011
:0A07E800C0F9A4B0999282F8809045
:0807F200E80364000A000100A5
:0807FA000100020003000000F1
:0408020000000000F2
:080806001027E80364000A005A
:04080E0000000000E6
:020812000000E4
:0408140001020408D1
:020000040030CA
:0E000000000C1F1EFF0381FF0FC00FE00F401A
:00000001FF
