:1000000073EF01F00000000000EF00F000000000BE
:0A0010000000000000000000F3D71C
:0A001C00000EACB2010E006E1200DF
:0A002600000E9EBA010E006E1200DB
:10003000AECF01F0ABA202D0AB98AB8801C000F00C
:020040001200AC
:1000420037C102F038C103F002C000F003C001F072
:10005200024A032A00C0E9FF01C0EAFFEE5201E0B2
:10006200F3D701013751025C006E38510358016E1B
:0A007200010E005E000E015A12009C
:10007C003BC100F001013B07005228E037C1E9FF0A
:10008C0038C1EAFFEE50000A0CE037C1E9FF38C175
:10009C00EAFF39C1D9FF3AC1DAFFEE50DE1801E1AF
:1000AC000FD037C1E9FF38C1EAFF39C1D9FF3AC1D6
:1000BC00DAFFDE50EE5C006E016A000E015A08D0C9
:1000CC000101374B382B394B3A2BD2D7006A016AD6
:0200DC00120010
:1000DE0037C1E9FF38C1EAFFEE500101391905E1D8
:1000EE0037C100F038C101F010D037C100F038C16F
:1000FE0001F0374B382B00C0E9FF01C0EAFFEECF0D
:0C010E0000F00052E5E1006A016A1200F6
:10011A00F250026EF29E0500FF6A0150FE6E005018
:08012A00FD6E02BEF28E120010
:0C0132001BC100F01CC101F0EFDF120047
:10013E00000E0101341902E1000E331934E033C10F
:10014E00E9FF34C1EAFFEE522EE035C137F136C178
:10015E0038F170DF00C03BF133C137F134C138F1F3
:10016E0035C139F136C13AF182DF000E011802E1D4
:10017E00000E001805E133C100F034C101F015D0B6
:10018E00010E01013325376F000E3421386F35C152
:10019E00E9FF36C1EAFFEECF39F19ADF00C033F145
:0C01AE0001C034F1C5D7006A016A1200DC
:0C01BA0027C100F028C101F0ABDF1200EB
:1001C600FF0E0101236FFF0E246FFF0E256FFF0E3A
:1001D600266F300E1B6F000E1C6F000E1D6F000E7B
:1001E6001E6F260E276F000E286F000E296F000E59
:1001F6002A6F1C0E1F6F000E206F000E216F000E5F
:10020600226FAC8A900EAB6E948E949C9EAA03D0FD
:08021600AECF00F0FBD712008F
:10021E000900F5CFE6FF0006FBE10106F9E1120049
:10022E002BC133F1000E0101346F170E356F000E26
:0E023E00366F7EDF00500110D8A48C801200B5
:10024C000101316B326B2F5342E02F51FF0AD8A4BE
:10025C002F07ADDF0050000A01E1FBD764DF00C0BF
:10026C0030F1010131512B25E16E000E2C21E26E93
:10027C0000C0E6FF312B32512D25E96E000E2E21E8
:10028C00EA6EEE50301902E1322B09D0326B2DC1DF
:10029C00E9FF2EC1EAFFEE503019D8B4322B32519F
:1002AC002D25E96E000E2E21EA6EEE50000A0EE1AD
:1002BC003251315D006E016A000E015A00502B253F
:1002CC00E16E01502C21E26EE66A06D0BCD72BC140
:0A02DC00E1FF2CC1E2FFE66A120008
:1002E6000A0E156E166A4B0E176E320E186E500EEB
:1002F600196E510E1A6E1B6AB886010EB06EA00EEC
:10030600AF6EAC845DDF030E0B6E080E0C6E770EBF
:100316000D6E0D2EFED70C2EFCD70B2EFAD7959010
:1003260049DF0050010A0FE11C0E01012B6F000E80
:100336002C6F150E2D6F000E2E6FFF0E2F6F83DFA5
:0A0346001C0E2B6F71DFECD7FFD700
:020000040030CA
:0E000000000C1F1EFF0381FF0FC00FE00F401A
:00000001FF
