:100000006AEF0CF00000000000EF00F000000000BC
:0A0010000000000000000000F3D71C
:0E001C00ACB202D00000FCD7CDC0ADFF120088
:10002A00F250026EF29E0500FF6A0150FE6E005009
:08003A00FD6E02BEF28E120001
:10004200C7B409D01F0EC514016E0150000A03E1A6
:0A005200010E006E01D0006A1200DA
:10005C0041C0C9F042C0CAF043C0CBF044C0CCF0A0
:10006C000001C76BC86BC851120802E1C7518E085A
:10007C0008E3E1DF005201E004D00001C74BC82BBC
:10008C00F2D70001120EC85D02E18F0EC75D03E3CB
:10009C007B0E006E24D0C580C5A020D041504210EC
:1000AC00431044101AE0C951CA11CB11CC110EE106
:1000BC00ACC0E1FFADC0E2FF050EE66EAAC000F0D9
:1000CC00ABC001F0ACDF010E006E09D0010E0001D7
:1000DC00C95F000ECA5BCB5BCC5BDED7006A12003B
:1000EC000B840BAE81EF00F0010E036E026A016A05
:0A00FC00006A0A360232FF0E1200FD
:0C010600000000000000000000001200DB
:10011200240E0C6EB50E0D6E0D2EFED70C2EFCD7D6
:06012200000000001200C5
:0A012800530E0D6E0D2EFED71200CF
:0E013200026A016A006A086A036A000E12007F
:080140000AAE029E000E12003F
:0A014800000EACB2010E006E1200B2
:100152000B820BAEB3EF00F003680268016800681F
:080162000A360232FF0E120002
:10016A00AECF01F0ABA202D0AB98AB8801C000F0D1
:02017A00120071
:0A017C00000E9EBA010E006E120084
:100186000CB005EF01F00CA2ABEF01F00E6A000E09
:1001960002641CEF01F0F00E0214D8A4E7EF00F0A1
:1001A600023A01380F0B02260138F00B016E0038B7
:1001B6000F0B01260038F00B006E08380F0B0026D7
:1001C6000838F00B086E0E84D89002BE00EF01F0DE
:1001D60008360036013602360E2A02BE00EF01F05E
:1001E60008360036013602360E2A02BE00EF01F04E
:1001F60008360036013602360E2A0E500364A1EF89
:1002060001F0035E0BBC08AEA6EF01F0D880800EAD
:1002160008640030000E002201220222D8A0A6EFB8
:1002260001F0023201320032034AABEF01F0A6EFD1
:1002360001F001C002F000C001F008C000F0086A39
:10024600000E0E86026453EF01F0F00E0214D8A4DD
:100256003BEF01F0023A01380F0B02260138F00B92
:10026600016E00380F0B01260038F00B006E0E846D
:10027600D89002BE00EF01F00036013602360E2A93
:1002860002BE00EF01F00036013602360E2A02BE2B
:1002960000EF01F00036013602360E2A00EF01F0BB
:1002A60001C002F000C001F0006A000E0E960E8832
:1002B600026480EF01F0F00E0214D8A46BEF01F097
:1002C600023A01380F0B02260138F00B016E0E843C
:1002D600D89002BE00EF01F0013602360E2A02BEA9
:1002E60000EF01F0013602360E2A02BE00EF01F0E1
:1002F600013602360E2A00EF01F001C002F0016A53
:10030600000E0E860264B0EF01F0F00E0214D8A4BF
:100316008FEF01F0023A0E84D89002BE00EF01F092
:1003260002360E2A02BE00EF01F002360E2A02BE87
:1003360000EF01F002360E2A00EF01F0010E0C6EFE
:10034600D2DEB3EF01F0020E0C6EF7DEB3EF01F072
:10035600040E0C6EFBDEB3EF01F0080E0C6EE6DE4B
:02036600120083
:100368000001C6BF02D08C9601D08C86C6BD02D0D3
:100378008C9401D08C84C6BB02D08C9201D08C8224
:10038800C6B902D08C9001D08C8089B102D08C88FB
:1003980001D08C988C8AB3DE8C9AC6B702D08C9622
:1003A80001D08C86C6B502D08C9401D08C84C6B39B
:1003B80002D08C9201D08C82C6B102D08C9001D030
:1003C8008C8089B102D08C8801D08C988C8A97DE79
:0E03D8008C9A89A102D099DE01D0A2DE12001B
:1003E6000B800BAEFFEF01F0026A0AAEFF0E026E43
:0C03F600016E006E0A360232FF0E12008B
:080402000B6A0B86FF0E1200CD
:0C040A009EC000F09FC001F00BDE12004D
:04041600C584120087
:10041A009E96C0C0C9FF41C0C1F042C0C2F043C0ED
:10042A00C3F044C0C4F0C7A421D0415042104310C5
:10043A0044101BE00001C151C211C311C4110EE1E5
:10044A00ACC0E1FFADC0E2FF040EE66EAAC000F048
:10045A00ABC001F0E5DD010E006E3AD0010E0001DD
:10046A00C15F000EC25BC35BC45BDDD741C0C1F094
:10047A0042C0C2F043C0C3F044C0C4F09EB621D00B
:10048A0041504210431044101BE00001C151C211F7
:10049A00C311C4110EE1ACC0E1FFADC0E2FF040E0E
:1004AA00E66EAAC000F0ABC001F0BADD010E006E24
:1004BA000FD0010E0001C15F000EC25BC35BC45BBB
:1004CA00DDD7C5BC02D0006A03D0C584020E006E17
:0204DA0012000E
:1004DC000B6A0C6A0A6A0350D8B4A3EF02F00A9EA6
:1004EC00028E860E035E03BE81EF02F0D8B481EF5C
:1004FC0002F0A6EF02F0036C080E035CD8A08FEF9D
:10050C0002F0036E0236026A0350D8A4D89098EF1A
:10051C0002F00350D8B498EF02F0D8900232032EB8
:10052C0093EF02F00BBC02A0A3EF02F0D8A0A3EF54
:10053C0002F0022AD8B4ADEF02F0016AB2EF02F079
:10054C000B800BAEB6EF02F0016AB6EF02F0010EB3
:10055C000C6E43DFB8EF02F0000E0C6EB8EF02F039
:0A056C00FF0E0C6E0250006E12002C
:0E05760000018991C0C0C6F0F4DE8981120038
:100584009CC0E1FF9DC0E2FFC0C0E6FF9AC000F03E
:080594009BC001F048DD1200DC
:10059C00C0C004F0C1C005F004C002F005C003F0F7
:1005AC00044A052AC2C000F0C3C001F00001C24BCE
:1005BC00C32B00C0E9FF01C0EAFF02C0E1FF03C08A
:1005CC00E2FFEECFE6FF02C0E9FF03C0EAFFEE5206
:0E05DC0001E0E2D7C0C000F0C1C001F0120083
:1005EA000A6A0350D8A40A800750D8A40A820A507B
:1005FA00D8B458EF03F0030AD8B411EF03F00AB0E5
:10060A000CEF03F006AE56EF03F054EF03F002AE20
:10061A0054EF03F056EF03F00250800B0A6E029E6D
:10062A000650800B069E0A18D8B422EF03F00A502F
:10063A00D8B454EF03F056EF03F00750035CD8B474
:10064A002CEF03F0D8A048EF03F04EEF03F006506A
:10065A00025CD8B436EF03F0D8A048EF03F04EEFAF
:10066A0003F00550015CD8B440EF03F0D8A048EF7E
:10067A0003F04EEF03F00450005CD8B458EF03F0D7
:10068A00D8B04EEF03F00A52D8B456EF03F054EF45
:10069A0003F00A52D8B454EF03F056EF03F0D880AF
:0E06AA001200D8901200D880D88412001200DE
:1006B8000D6A086A0050D8B4000C04180A6E0ABE05
:1006C8000D1E0B6A04AE02D0041E042A00AE02D02E
:1006D800001E002A005004100A6E0ABE1FD00450E3
:1006E800085E003600340836045008260036060E28
:1006F8000C6E00340836045000B0085E00A00826CE
:1007080000360C2EF6D700A008260BB015D00DAE7B
:10071800000C001E002A081E082A000C04AE09D08E
:1007280000BE04D00050086E006AF1D7006A002AA3
:10073800000C001E0B2AD3D7082A0450085CD8A442
:0E074800E6D7086A002A00AEE2D7FF0C1200C6
:1007560041C0C2F042C0C3F043C0C4F044C0C5F0BB
:100766009E96C5869EB61FD0415042104310441037
:1007760019E00001C251C311C411C5110CE1ACC08E
:10078600E1FFADC0E2FF030EE66EAAC000F0ABC00B
:1007960001F048DC08D0010E0001C25F000EC35B09
:1007A600C45BC55BDFD70001C9CFC1F0C051000AE9
:1007B60002E1C58A01D0C59A9E96C58841C0C2F09D
:1007C60042C0C3F043C0C4F044C0C5F09EB61FD0BB
:1007D600415042104310441019E00001C251C311A8
:1007E600C411C5110CE1ACC0E1FFADC0E2FF030EC0
:1007F600E66EAAC000F0ABC001F014DC08D0010E12
:100806000001C25F000EC35BC45BC55BDFD7C1C01E
:0408160000F01200DC
:10081A00025006180E6E086A096A0B6A03500764CA
:10082A0000EF05F006500A6E068E028E03500B6E1C
:10083A000750036E000E0B6450EF04F00B50075E76
:10084A00D8B4F1EF04F0070E0764BFEF04F0075EB7
:10085A0000C008F001C000F002C001F0026A074EB1
:10086A00F1EF04F0076494EF04F0075E00C008F0AB
:10087A0001C000F0016A074EF1EF04F0076472EF5D
:10088A0004F0075E00C008F0006A074EF1EF04F0BA
:10089A00076459EF04F00AC002F005C001F004C071
:1008AA0000F0086A1DEF06F0030E076464EF04F017
:1008BA00075E08380F0B086E074EF1EF04F0D89068
:1008CA000832074EF1EF04F0D8900832074EF1EFE4
:1008DA0004F0D8900832F1EF04F0030E076483EFB6
:1008EA0004F0075E08380F0B086E0038F00B082674
:1008FA0000380F0B006E074EF1EF04F0D89000326B
:10090A000832074EF1EF04F0D89000320832074E51
:10091A00F1EF04F0D89000320832F1EF04F0030E40
:10092A000764ABEF04F0075E08380F0B086E003857
:10093A00F00B082600380F0B006E0138F00B00266A
:10094A0001380F0B016E074EF1EF04F0D890013217
:10095A0000320832074EF1EF04F0D890013200322B
:10096A000832074EF1EF04F0D89001320032083213
:10097A00F1EF04F0030E0764DCEF04F0075E0838B9
:10098A000F0B086E0038F00B082600380F0B006EAC
:10099A000138F00B002601380F0B016E0238F00BFC
:1009AA00012602380F0B026E074EF1EF04F0D890C1
:1009BA000232013200320832074EF1EF04F0D890C9
:1009CA000232013200320832074EF1EF04F0D890B9
:1009DA000232013200320832096A000E0EAEE5EF29
:1009EA0005F0081E001E011E021E082A002201220E
:1009FA000222E5EF05F00750D8A406EF05F01DEF37
:100A0A0006F0096A02C00AF0028E068E0750035CDD
:100A1A00076ED8B4D8EF05F0070E0764A6EF05F005
:100A2A00075E0450096E0550046E0650056E066A8C
:100A3A00074ED8EF05F0070E07647BEF05F0075E57
:100A4A000450096E0550046E056A074ED8EF05F08A
:100A5A00070E076459EF05F0075E0450096E046A31
:100A6A00074ED8EF05F0070E076440EF05F00AC0FD
:100A7A0002F01DEF06F0030E07644BEF05F0075E68
:100A8A0009380F0B096E074ED8EF05F0D8900932D6
:100A9A00074ED8EF05F0D8900932074ED8EF05F087
:100AAA00D8900932D8EF05F0030E07646AEF05F013
:100ABA00075E09380F0B096E0438F00B0926043853
:100ACA000F0B046E074ED8EF05F0D89004320932A6
:100ADA00074ED8EF05F0D89004320932074ED8EF06
:100AEA0005F0D89004320932D8EF05F0030E0764F6
:100AFA0092EF05F0075E09380F0B096E0438F00B08
:100B0A00092604380F0B046E0538F00B0426053845
:100B1A000F0B056E074ED8EF05F0D8900532043258
:100B2A000932074ED8EF05F0D8900532043209325F
:100B3A00074ED8EF05F0D890053204320932D8EFC3
:100B4A0005F0030E0764C3EF05F0075E09380F0BC3
:100B5A00096E0438F00B092604380F0B046E0538A9
:100B6A00F00B042605380F0B056E0638F00B052628
:100B7A0006380F0B066E074ED8EF05F0D8900632EE
:100B8A00053204320932074ED8EF05F0D890063202
:100B9A00053204320932074ED8EF05F0D8900632F2
:100BAA00053204320932086A000E0EAEE5EF05F08E
:100BBA00091E041E051E061E092A042205220622F3
:100BCA00095008260450002205500122065002222C
:100BDA000EBEFCEF05F0D8A00BEF06F00232013290
:100BEA0000320832033E0BEF06F017EF06F0D8B0DA
:100BFA0011EF06F0000E081E001E011E021E082A32
:100C0A000022012202220A7E11EF06F0010E0C6E6A
:100C1A00C3EC00F01FEF06F0020E0C6EC3EC00F0FE
:100C2A001FEF06F0040E0C6EA9EC00F01FEF06F0A1
:060C3A00000E0C6E12001A
:100C40000C6A0E6A0250D8A439EF06F001C002F017
:100C500000C001F0006A0E860250D8A439EF06F0F9
:100C600001C002F0016A0E960E880250D8B44BEF14
:100C700006F00E50035ED8A4D8A051EF06F0D8902D
:100C800002BE57EF06F0003601360236032E40EF63
:100C900006F051EF06F0010E0C6E99EC00F05BEFE0
:100CA00006F0020E0C6E76EC00F05BEF06F0040E20
:080CB0000C6EA0EC00F0120034
:100CB800086A096A000E07620364E1EF06F0025051
:100CC80006180A6E075003267E0ED8A072EF06F0AB
:100CD800035ED8B0E6EF06F076EF06F0035ED8A024
:100CE800EBEF06F0028E068E02C00EF001C00BF08C
:100CF80000C00DF000500402F4CF0CF001500502C2
:100D0800F4CF00F0F3CF08F00402F3500C26F450AF
:100D18000822000E00220D500502F3500C26F45054
:100D28000822000E002202500402F3500826F45054
:100D3800002202500502016A000E0122F35000262B
:100D4800F45001220D500602F3500826F4500022F8
:100D5800026A000E012202220B500602F3500026FE
:100D6800F4500122000E02220E500602F350012612
:100D7800F450022202BEC9EF06F0083600360136EA
:100D880002360306D8B4EBEF06F0DCEF06F0D880A5
:100D9800800E08640030000E002201220222D8A032
:100DA800DCEF06F0023201320032034AE6EF06F0C9
:100DB8000AAE029E000EEEEF06F0010E99EC00F06E
:100DC800EEEF06F0020EA9EC00F0EEEF06F0040ECE
:060DD80076EC00F01200B1
:100DDE000450000A12E10550000A0FE10650000A05
:100DEE000CE10750000A09E1FF0E006EFF0E016EC6
:100DFE007F0E026EFF0E036EA8D0086A096A0750B6
:100E0E00D8B49AEF07F00350D8B49FEF07F0025012
:100E1E0006180A6E028E068E0E6A02C008F001C017
:100E2E000CF000C00DF004500D5E0550D8A0053C2E
:100E3E000C5E0650D8A0063C085E086A0C6A0D6A65
:100E4E00D8A031EF07F0D8900232013200320832CA
:100E5E00010E0E6E0750035ED8A03EEF07F07E0E19
:100E6E000E240326D8B0A4EF07F044EF07F07E0E51
:100E7E000E240326D8A0A9EF07F0180E0B6E0D3620
:100E8E000C3608360036013602360E360450005E39
:100E9E000550D8A0053C015E0650D8A0063C025E67
:100EAE0006340E120EA05FEF07F00D806AEF07F00A
:100EBE00045000260550D8B0053C01260650D8B087
:100ECE00062802260D900B2E46EF07F090EF07F046
:100EDE00D8900036013602360E360450005E0550AC
:100EEE00D8A0053C015E0650D8A0063C025E063432
:100EFE000E10010B0D26D8B00C2AD8B4082AD8A48F
:100F0E0090EF07F008320C320D32032AD8B4A4EF5A
:100F1E0007F00AAE089E0850026E0C50016E0D507E
:100F2E00006EACEF07F0010E01EC02F0ACEF07F033
:100F3E00020E99EC00F0ACEF07F0040EA9EC00F0F5
:0C0F4E00ACEF07F0080E76EC00F012008B
:0C0F5A00240E0D6E0D2EFED700001200BC
:100F660041C0C0F042C0C1F043C0C2F044C0C3F0AB
:100F7600C582C5A220D041504210431044101AE049
:100F86000001C051C111C211C3110DE1ACC0E1FF96
:100F9600ADC0E2FF060EE66EAAC000F0ABC001F0DF
:100FA60015EC00F008D0010E0001C05F000EC15B19
:080FB600C25BC35BDED7120031
:100FBE000050086E0150006E016A026A036A0B6AE5
:100FCE000C6A960E036E0A6A00C001F008C000F0AB
:080FDE00086A026A2EDE12000F
:100FE6000900F5CFE6FF0006FBE10106F9E1120074
:100FF600B2C000F0B3C001F0B4C002F0B5C003F057
:10100600000E046E000E056E200E066E810E076E33
:1010160050DE000E046EC00E056E7F0E066E880E44
:06102600076EDADE120085
:10102C00FF0E0001696FFF0E6A6FFF0E6B6FFF0EF4
:10103C006C6FC26A241C006E0050C116070EC012E1
:06104C00C08EC2801200FC
:101052001C0E00019A6F000E9B6FCD0E9C6F000E4E
:101062009D6F6A0E926F010E936F000E946F000EC9
:10107200956F7C0E966F010E976F000E986F000EA3
:10108200996F480E9E6F010E9F6F000EA06F000EAB
:10109200A16FAC8A900EAB6E948E949C9EAA03D0E4
:0810A200AECF00F0FBD71200F5
:1010AA00C26A241C006E0050C116070EC012C08E00
:1010BA00B2C000F000360090003600900050C21214
:1010CA00C28046DFC282C2A201D0FDD7C4CF01F0DE
:0E10DA00006AC3500012000E0112C2901200F4
:1010E800420E0001AE6F000EAF6F000EB06F000E23
:1010F800B16F5C0EA26F000EA36F000EA46F000EFE
:10110800A56F660EA66F0F0EA76F000EA86F000ED4
:10111800A96F560E8A6F070E8B6FC00E8C6F000E6C
:101128008D6F1A0E8E6F040E8F6FC00E906F000EAB
:10113800916F160E856F040E866F000E876F000E76
:10114800886F939093928A908A9293809382C79E95
:08115800C79C380EC66E1200A0
:10116000959A959895909592959495968C9A8C9839
:101170008C968C948C928C9089EC00F089EC00F029
:1011800089EC00F08C828C808C8A83EC00F08C9A45
:1011900089EC00F08C8A83EC00F08C9A89EC00F0EA
:1011A0008C8A83EC00F08C9A89EC00F08C908C8A0D
:1011B00083EC00F08C9A89EC00F08C8A83EC00F0D0
:1011C0008C9A8C928C868C8A83EC00F08C9A89ECB9
:1011D00000F08C968C808C8A83EC00F08C9A8C903A
:1011E0008C8A83EC00F08C9A89EC00F08C8A83EC7A
:1011F00000F08C9A8C808C8A83EC00F08C9A89ECBD
:1012000000F08C908C8A83EC00F08C9A8C868C8415
:101210008C828C808C8A83EC00F08C9A89EC00F0B4
:06122000000189811200AB
:10122600300E006E060E016E4E0E026E980E036EA6
:10123600B2C004F0B3C005F0B4C006F0B5C007F004
:0412460038DD12007D
:10124A00000E046E000E056E200E066E810E076EED
:10125A00B2C000F0B3C001F0B4C002F0B5C003F0F0
:10126A00B9DD000E046E000E056E160E066E860EB1
:06127A00076EB0DD12005A
:10128000B2C000F0B3C001F0B4C002F0B5C003F0CA
:10129000000E046E000E056E7A0E066E880E076E46
:1012A0000BDD000E046E000E056E1D0E066E870E21
:0612B000076E95DD12003F
:1012B60000C008F00150006E016A026A036A0B6AF8
:1012C6000C6A016A026A036A960E036E0A6A00AE27
:1012D60073EF09F0081E001E082AD8B4002A0A8EE9
:1012E60000C001F008C000F0086A026AA6DC12001D
:1012F6002EEC00F0B40E0001C06F0DEC02F0B2C08F
:10130600C0F00DEC02F02CDEB40E0001C06F0DEC47
:1013160002F00001C06BABEC03F00001C06BABEC5C
:1013260003F000C0B4F00001B36B0BEC02F0B3C0E5
:0813360000F0B4C001F0120048
:10133E000001BE6BBF6BB2C0BAF0B3C0BBF0B4C09D
:10134E00BCF0B5C0BDF0BD51FF0A08E1BC51FF0AAB
:10135E0005E1BB51FF0A02E1BA51FF0A0DE1B6C029
:10136E00C0F0B7C0C1F0450EC26F000EC36FCEEC19
:10137E0002F0030E006EF0D1010EB86FBCAF0ED0AE
:10138E00800EBC19006E00C0BCF0B82BB6C0E1FFD9
:10139E00B7C0E2FF2D0EE66EB64BB72B000E006EF9
:1013AE00BD1908E10050BC1905E10050BB1902E15E
:1013BE00BA51000A0CE1B6C0C0F0B7C0C1F0490E78
:1013CE00C26F000EC36FCEEC02F0006AC5D1BD51E4
:1013DE00FF0A08E1BC51000A05E1BB51000A02E117
:1013EE00BA51000A0DE1B6C0C0F0B7C0C1F03D0E53
:1013FE00C26F000EC36FCEEC02F0B8C000F0ACD1DD
:10140E00000E046E000E056E000E066E7F0E076E49
:10141E00BAC000F0BBC001F0BCC002F0BDC003F00A
:10142E00F5EC02F0010ED8B0000E006E00521BE07B
:10143E00BAC000F0BBC001F0BCC002F0BDC003F0EA
:10144E00000E046E000E056E200E066E820E076EE6
:10145E002CDC00C0BAF001C0BBF002C0BCF003C06F
:10146E00BDF0BF07CDD7000E046E000E056E200E28
:10147E00066E820E076EBAC000F0BBC001F0BCC093
:10148E0002F0BDC003F0F5EC02F0000ED8B0010E74
:10149E00006E00521CE0BAC000F0BBC001F0BCC030
:1014AE0002F0BDC003F0CD0E046ECC0E056E4C0ED8
:1014BE00066E7B0E076E5CEC06F000C0BAF001C043
:1014CE00BBF002C0BCF003C0BDF0BF2BCCD7FF0EEB
:1014DE00BA15086EFF0EBB15096E7F0EBC150A6E8F
:1014EE00000EBD150B6E08C004F009C005F00AC051
:1014FE0006F00BC007F004360490053606360736A4
:10150E00000EBA15006E000EBB15016E000EBC1556
:10151E00026EFF0EBD15036E00C0BAF001C0BBF027
:10152E0002C0BCF003C0BDF00450BA11006E0550ED
:10153E00BB11016E0650BC11026E0750BD11036E39
:10154E0000C0BAF001C0BBF002C0BCF003C0BDF0D9
:10155E007F0EBD5D006E00C0B9F0010EBD6F00C004
:10156E0004F0BAC000F0BBC001F0BCC002F0BDC0B8
:10157E0003F0045007E000360090013602360336C1
:10158E00FF0FF8D700C0BAF001C0BBF002C0BCF02C
:10159E0003C0BDF0B6C0E1FFB7C0E2FFBD51300FD2
:1015AE00E66EB64BB72B800EBF19006E800E010A89
:1015BE00005C08E3800E060A006E800EBF19005C08
:1015CE0001E30AD0B6C0E1FFB7C0E2FF2E0EE66E11
:1015DE00B64BB72B010EBE6F060EB96FB951000A8E
:1015EE0054E0BD6BBAC000F0BBC001F0BCC002F04D
:1015FE00BDC003F0003600900136023603360036C9
:10160E000090013602360336BA510026BB51012234
:10161E00BC510222BD51032200C0BAF001C0BBF082
:10162E0002C0BCF003C0BDF0BAC000F0BBC001F0F8
:10163E00BCC002F0BDC003F0003600900136023689
:10164E00033600C0BAF001C0BBF002C0BCF003C04C
:10165E00BDF0B6C0E1FFB7C0E2FFBD51300FE66E80
:10166E00B64BB72BBE51000A0EE1BF07BF51000AA1
:10167E000AE1B6C0E1FFB7C0E2FF2E0EE66EB64B32
:10168E00B72B010EBE6FB907A9D7FF0EB625E96EAF
:10169E00FF0EB721EA6EEE50300A05E1010EB65F7D
:1016AE00000EB75BF2D7FF0EB625E96EFF0EB7211F
:1016BE00EA6EEE502E0A04E1010EB65F000EB75B25
:1016CE00BF51000A43E0B6C0E1FFB7C0E2FF650EAE
:1016DE00E66EB64BB72B800EBF19006E800E000A59
:1016EE00005C0BE2B6C0E1FFB7C0E2FF2D0EE66E66
:1016FE00B64BB72BBF510008BF6FBFC0B9F0800EFD
:10170E00090A006E800EBF19005C0FE20A0E046E0D
:10171E00B9C000F05CEC03F0B6C0E1FFB7C0E2FF69
:10172E000050300FE66EB64BB72B0A0E046EB9C0E2
:10173E0000F05CEC03F008C000F0B6C0E1FFB7C0EB
:10174E00E2FF0050300FE66EB64BB72BB6C0E1FF8E
:0A175E00B7C0E2FFE66A006A12005D
:101768000001B46BB451B225E96E000EB321EA6EE4
:10177800EE520CE0B451B225E96E000EB321EA6EC8
:0E178800EECFC0F0BBEC02F0B42BECD7120099
:1017960005EC02F000524CE075C000F076C001F096
:1017A60077C002F078C003F06EEC02F000C0C0F023
:1017B600C2EC02F0900E0001C06FC2EC02F06DC0E8
:1017C60000F06EC001F06FC002F070C003F06EEC66
:1017D60002F000C0C0F0C2EC02F0920E0001C06F31
:1017E600C2EC02F071C000F072C001F073C002F0EA
:1017F60074C003F06EEC02F000C0C0F0C2EC02F060
:101806008E0E0001C06FC2EC02F07DC000F07EC0FB
:1018160001F07FC002F080C003F06EEC02F000C061
:10182600C0F0C2EC02F08C0E0001C06FC2EC02F0F8
:0218360012009E
:10183800B2C037F0B3C038F0B4C039F0B5C03AF030
:0218480012008C
:10184A0010D0800E0001B26F1AD0C00EB26F17D03E
:10185A00940EB26F14D0D40EB26F11D0800EB26F44
:10186A000ED00001B251010AECE0B251020AEDE0D9
:10187A00B251030AEDE0B251040AEDE0EFD7B30525
:10188A00006EB251002600C0B2F000C0C6F0B4EC3F
:10189A0001F08991B66BB651B425E96E000EB521F7
:1018AA00EA6EEE520CE0B651B425E96E000EB5218F
:1018BA00EA6EEECFC0F0BBEC02F0B62BECD7898112
:0218CA0012000A
:0818CC00067E0DEC04F0120091
:1018D400CAEC0DF0FE0E946EFE0E826EFD0E946E3A
:1018E400FD0E826E92820F0EC16E070EB46E16EC60
:1018F40008F0640EC86E74EC08F030DC010EC66F9C
:10190400B4EC01F00C0EC66FB4EC01F0B886020E14
:10191400B06E080EAF6EAC8429EC08F0030E0B6EAB
:101924008A0E0C6E550E0D6E0D2EFED70C2EFCD7A6
:101934000B2EFAD7000000000001B26B55EC08F042
:10194400DFEC07F000C0B2F001C0B3F002C0B4F0A5
:1019540003C0B5F0FBEC07F000C081F001C082F0D9
:1019640002C083F003C084F083B009D081C0B2F018
:1019740082C0B3F083C0B4F084C0B5F05BDF37C07D
:1019840004F038C005F039C006F03AC007F081C051
:1019940000F082C001F083C002F084C003F094DF41
:1019A40000C081F001C082F002C083F003C084F063
:1019B40000C0B2F001C0B3F002C0B4F003C0B5F08F
:1019C40042DC00C071F001C072F002C073F003C0C9
:1019D40074F000C0B2F001C0B3F002C0B4F003C0B0
:1019E400B5F01FDC00C07DF001C07EF002C07FF0C6
:1019F40003C080F000C0B2F001C0B3F002C0B4F084
:101A040003C0B5F03BDC00C06DF001C06EF002C055
:101A14006FF003C070F0070E0001B26F6ADC49DC9E
:101A2400660E046E260E056EDF0E066E860E076EBB
:101A3400EFEC06F000C075F001C076F002C077F05C
:101A440003C078F0010E0001B26F55EC08F000C03D
:101A54003BF001C03CF0DFEC07F0000E046E000E1A
:101A6400056E200E066E810E076E5CEC06F0000E0D
:101A7400046E000E056E000E066E890E076EEFEC06
:101A840006F000C079F001C07AF002C07BF003C018
:101A94007CF0330E046E330E056E730E066E7D0EEF
:101AA400076E0DEC04F05C0E046E8F0E056E420E94
:101AB400066E7A0E076EEFEC06F000C079F001C0F6
:101AC4007AF002C07BF003C07CF000C0B2F001C029
:101AD400B3F002C0B4F003C0B5F05A0E0001B66F03
:101AE400000EB76F2ADC010EB26F010EB36F190E30
:101AF400B46F000EB56FA7DE5A0EB26F000EB36F4F
:101B040031DE150EB26F000EB36F2CDE75C0B2F06D
:101B140076C0B3F077C0B4F078C0B5F04B0EB66FB2
:101B2400000EB76F0ADC020EB26F010EB36F250E02
:101B3400B46F000EB56F87DE4B0EB26F000EB36F3D
:101B440011DE340EB26F000EB36F0CDE22DEF4D65B
:021B5400FFD7B9
:101B940010EE15F0360E006E010E016E560EF66E46
:0E1BA4001B0EF76E000EF86EF3EC07F0120049
:041B56004B5061008F
:0B1B5A005072657373616F203D200026
:011B6500304F
:0F1B660054656D7065726174757261203D200069
:031B7500B043007A
:041B78000000000069
:021B7C00000067
:041B7E00494E460086
:041B8200000000005F
:041B86004E614E005E
:021B8A00300029
:021B8C000A004D
:021B8E003A001B
:021B90003A0019
:021B92003A0017
:020000040030CA
:0E000000000C1F1EFF8381FF0FC00FE00F409A
:00000001FF
