:04000000DCEF1EF023
:100008009EA007D0304A312AE70ECF6E960ECE6EEC
:040018009E901100A5
:10001C000B820BAE18EF00F00368026801680068F1
:08002C000A360232FF0E120039
:0E003400026A016A006A086A036A000E12007E
:100042000B840BAE2CEF00F0010E036E026A016A04
:0A005200006A0A360232FF0E1200A7
:08005C000AAE029E000E120024
:100064000CB074EF00F00CA21AEF01F00E6A000E4F
:1000740002648BEF00F0F00E0214D8A456EF00F0E7
:10008400023A01380F0B02260138F00B016E0038DA
:100094000F0B01260038F00B006E08380F0B0026FA
:1000A4000838F00B086E0E84D89002BE6FEF00F093
:1000B40008360036013602360E2A02BE6FEF00F013
:1000C40008360036013602360E2A02BE6FEF00F003
:1000D40008360036013602360E2A0E50036410EF3D
:1000E40001F0035E0BBC08AE15EF01F0D880800E62
:1000F40008640030000E002201220222D8A015EF6D
:1001040001F0023201320032034A1AEF01F015EF16
:1001140001F001C002F000C001F008C000F0086A5C
:10012400000E0E860264C2EF00F0F00E0214D8A492
:10013400AAEF00F0023A01380F0B02260138F00B47
:10014400016E00380F0B01260038F00B006E0E8490
:10015400D89002BE6FEF00F00036013602360E2A48
:1001640002BE6FEF00F00036013602360E2A02BEE0
:100174006FEF00F00036013602360E2A6FEF00F002
:1001840001C002F000C001F0006A000E0E960E8855
:100194000264EFEF00F0F00E0214D8A4DAEF00F0DE
:1001A400023A01380F0B02260138F00B016E0E845F
:1001B400D89002BE6FEF00F0013602360E2A02BE5E
:1001C4006FEF00F0013602360E2A02BE6FEF00F028
:1001D400013602360E2A6FEF00F001C002F0016A08
:1001E400000E0E8602641FEF01F0F00E0214D8A474
:1001F400FEEF00F0023A0E84D89002BE6FEF00F0DA
:1002040002360E2A02BE6FEF00F002360E2A02BE3C
:100214006FEF00F002360E2A6FEF00F0010E0C6E45
:100224000EDF22EF01F0020E0C6E16DF22EF01F05A
:10023400040E0C6EF1DE22EF01F0080E0C6EF8DEF7
:020244001200A6
:100246000B800BAE2FEF01F0026A0AAEFF0E026EB4
:0C025600016E006E0A360232FF0E12002C
:10026200025006180E6E086A096A0B6A0350076488
:1002720024EF02F006500A6E068E028E03500B6EB9
:100282000750036E000E0B6474EF01F00B50075E13
:10029200D8B415EF02F0070E0764E3EF01F0075E32
:1002A20000C008F001C000F002C001F0026A074E6F
:1002B20015EF02F00764B8EF01F0075E00C008F026
:1002C20001C000F0016A074E15EF02F0076496EFD5
:1002D20001F0075E00C008F0006A074E15EF02F059
:1002E20007647DEF01F00AC002F005C001F004C00E
:1002F20000F0086A3EEF03F0030E076488EF01F096
:10030200075E08380F0B086E074E15EF02F0D89003
:100312000832074E15EF02F0D8900832074E15EF5B
:1003220002F0D890083215EF02F0030E0764A7EF2F
:1003320001F0075E08380F0B086E0038F00B082634
:1003420000380F0B006E074E15EF02F0D890003206
:100352000832074E15EF02F0D89000320832074EED
:1003620015EF02F0D8900032083215EF02F0030EBA
:100372000764CFEF01F0075E08380F0B086E0038F4
:10038200F00B082600380F0B006E0138F00B002628
:1003920001380F0B016E074E15EF02F0D8900132B3
:1003A20000320832074E15EF02F0D89001320032C7
:1003B2000832074E15EF02F0D890013200320832AF
:1003C20015EF02F0030E076400EF02F0075E083833
:1003D2000F0B086E0038F00B082600380F0B006E6A
:1003E2000138F00B002601380F0B016E0238F00BBA
:1003F200012602380F0B026E074E15EF02F0D8905D
:100402000232013200320832074E15EF02F0D89064
:100412000232013200320832074E15EF02F0D89054
:100422000232013200320832096A000E0EAE09EFC2
:1004320003F0081E001E011E021E082A00220122CD
:10044200022209EF03F00750D8A42AEF02F03EEF90
:1004520003F0096A02C00AF0028E068E0750035C9E
:10046200076ED8B4FCEF02F0070E0764CAEF02F081
:10047200075E0450096E0550046E0650056E066A4A
:10048200074EFCEF02F0070E07649FEF02F0075ED3
:100492000450096E0550046E056A074EFCEF02F027
:1004A200070E07647DEF02F0075E0450096E046ACE
:1004B200074EFCEF02F0070E076464EF02F00AC079
:1004C20002F03EEF03F0030E07646FEF02F0075EE7
:1004D20009380F0B096E074EFCEF02F0D890093273
:1004E200074EFCEF02F0D8900932074EFCEF02F003
:1004F200D8900932FCEF02F0030E07648EEF02F08F
:10050200075E09380F0B096E0438F00B0926043810
:100512000F0B046E074EFCEF02F0D8900432093242
:10052200074EFCEF02F0D89004320932074EFCEF7E
:1005320002F0D89004320932FCEF02F0030E076495
:10054200B6EF02F0075E09380F0B096E0438F00BA4
:10055200092604380F0B046E0538F00B0426053803
:100562000F0B056E074EFCEF02F0D89005320432F5
:100572000932074EFCEF02F0D890053204320932FC
:10058200074EFCEF02F0D890053204320932FCEF3C
:1005920002F0030E0764E7EF02F0075E09380F0B63
:1005A200096E0438F00B092604380F0B046E053867
:1005B200F00B042605380F0B056E0638F00B0526E6
:1005C20006380F0B066E074EFCEF02F0D89006328B
:1005D200053204320932074EFCEF02F0D89006329F
:1005E200053204320932074EFCEF02F0D89006328F
:1005F200053204320932086A000E0EAE09EF03F02A
:10060200091E041E051E061E092A042205220622B0
:1006120009500826045000220550012206500222E9
:100622000EBE20EF03F0D8A02FEF03F0023201320A
:1006320000320832033E2FEF03F039EF03F0D8B057
:1006420034EF03F0000E081E001E011E021E082ACF
:100652000022012202220A7E34EF03F0010E0C6E08
:1006620000DD40EF03F0020E0C6EFBDC40EF03F006
:10067200040E0C6ED2DC40EF03F0000E0C6E120082
:10068200086A080E0C6E003408360450085ED8B0B2
:0E06920002D00826D89000360C2EF5D71200A4
:1006A0000D6A086A0050D8B4000C04180A6E0ABE1D
:1006B0000D1E0B6A04AE02D0041E042A00AE02D046
:1006C000001E002A005004100A6E0ABE1FD00450FB
:1006D000085E003600340836045008260036060E40
:1006E0000C6E00340836045000B0085E00A00826E6
:1006F00000360C2EF6D700A008260BB015D00DAE94
:10070000000C001E002A081E082A000C04AE09D0A6
:1007100000BE04D00050086E006AF1D7006A002ABB
:10072000000C001E0B2AD3D7082A0450085CD8A45A
:0E073000E6D7086A002A00AEE2D7FF0C1200DE
:10073E000134083609360450085E0550D8A0053C31
:10074E00095E003601360F0E0C6E0134083609367E
:10075E00045000A006D0085E0550D8A0053C095EE6
:10076E0005D008260550D8B0053C092600360136BE
:10077E000C2EEBD700B006D0045008260550D8B08A
:08078E00053C092600001200E1
:080796000B6A0B86FF0E120036
:10079E00086A096A000E0762036454EF04F00250FF
:1007AE0006180A6E075003267E0ED8A0E5EF03F05A
:1007BE00035ED8B059EF04F0E9EF03F0035ED8A062
:1007CE005EEF04F0028E068E02C00EF001C00BF03A
:1007DE0000C00DF000500402F4CF0CF001500502E1
:1007EE00F4CF00F0F3CF08F00402F3500C26F450CF
:1007FE000822000E00220D500502F3500C26F45074
:10080E000822000E002202500402F3500826F45073
:10081E00002202500502016A000E0122F35000264A
:10082E00F45001220D500602F3500826F450002217
:10083E00026A000E012202220B500602F35000261D
:10084E00F4500122000E02220E500602F350012631
:10085E00F450022202BE3CEF04F008360036013698
:10086E0002360306D8B45EEF04F04FEF04F0D880E2
:10087E00800E08640030000E002201220222D8A051
:10088E004FEF04F0023201320032034A59EF04F006
:10089E000AAE029E000E61EF04F0010E1AEC00F09B
:1008AE0061EF04F0020E0EEC00F061EF04F0040EA6
:0608BE0021EC00F0120025
:1008C4000001B351390806E3300EB35D03E3010EB2
:0808D400006E01D0006A120061
:1008DC000B6A0A6A096A086A0E6A033408360450FD
:1008EC00085E0550D8A0053C095E0650D8A0063C11
:1008FC000A5E0750D8A0073C0B5EE86AD8A0010E30
:10090C000E5E0336070E0C6E0334083609360A36B3
:10091C000B360E36045003A012D0085E0550D8A03A
:10092C00053C095E0650D8A0063C0A5E0750D8A0CC
:10093C00073C0B5EE86AD8A0010E0E5E11D00826AB
:10094C000550D8B0053C09260650D8B0063C0A26FE
:10095C000750D8B0073C0B26E86AD8B0010E0E261B
:10096C0003360C2ED1D70234083609360A360B362C
:10097C000E36045003A012D0085E0550D8A0053CDA
:10098C00095E0650D8A0063C0A5E0750D8A0073C6A
:10099C000B5EE86AD8A0010E0E5E11D00826055039
:1009AC00D8B0053C09260650D8B0063C0A2607509C
:1009BC00D8B0073C0B26E86AD8B0010E0E260236DA
:1009CC00070E0C6E0234083609360A360B360E3614
:1009DC00045002A012D0085E0550D8A0053C095E58
:1009EC000650D8A0063C0A5E0750D8A0073C0B5E08
:1009FC00E86AD8A0010E0E5E11D008260550D8B0BA
:100A0C00053C09260650D8B0063C0A260750D8B03B
:100A1C00073C0B26E86AD8B0010E0E2602360C2EC7
:100A2C00D1D70134083609360A360B360E36045047
:100A3C0002A012D0085E0550D8A0053C095E0650F5
:100A4C00D8A0063C0A5E0750D8A0073C0B5EE86AAB
:100A5C00D8A0010E0E5E11D008260550D8B0053C6A
:100A6C0009260650D8B0063C0A260750D8B0073CD9
:100A7C000B26E86AD8B0010E0E260136070E0C6E56
:100A8C000134083609360A360B360E36045001A0EE
:100A9C0012D0085E0550D8A0053C095E0650D8A0BF
:100AAC00063C0A5E0750D8A0073C0B5EE86AD8A04B
:100ABC00010E0E5E11D008260550D8B0053C092653
:100ACC000650D8B0063C0A260750D8B0073C0B2677
:100ADC00E86AD8B0010E0E2601360C2ED1D70034A0
:100AEC00083609360A360B360E36045001A012D0E1
:100AFC00085E0550D8A0053C095E0650D8A0063CFF
:100B0C000A5E0750D8A0073C0B5EE86AD8A0010E1D
:100B1C000E5E11D008260550D8B0053C09260650AB
:100B2C00D8B0063C0A260750D8B0073C0B26E86A1A
:100B3C00D8B0010E0E260036070E0C6E00340836A7
:100B4C0009360A360B360E36045000A012D0085E59
:100B5C000550D8A0053C095E0650D8A0063C0A5E9C
:100B6C000750D8A0073C0B5EE86AD8A0010E0E5EB9
:100B7C0011D008260550D8B0053C09260650D8B02F
:100B8C00063C0A260750D8B0073C0B26E86AD8B0BA
:100B9C00010E0E2600360C2ED1D700B00ED004500C
:100BAC0008260550D8B0053C09260650D8B0063C9E
:0C0BBC000A260750D8B0073C0B26120098
:100BC800800E0001B319006E800E000A005CD8B0D8
:100BD80064D1B3510008016E01C0B3F0800E011852
:100BE800006E800E6E0A005CD8A0BAD0640E046E47
:100BF800B3C000F051DD120E0024056E000E00BED9
:100C0800FF0E066E000E062205C000F006C001F0B9
:100C1800000E06BEFF0E026E036E0036009001360F
:100C28000236033600360090013602360336D00EFF
:100C38000024F66E3F0E0120F76E000E0220F86EBB
:100C48000900F5CFB4F00900F5CFB5F00900F5CFEC
:100C5800B6F00900F5CFB7F0640E046EB3C000F02B
:100C68001BDD08C000F00A0E046E16DD090E002414
:100C7800056E000E00BEFF0E066E000E062205C0B1
:100C880000F006C001F0000E06BEFF0E026E036EF5
:100C980000360090013602360336003600900136E1
:100CA80002360336D00E0024F66E3F0E0120F76E92
:100CB800000E0220F86E0900F5CF00F00900F5CF0C
:100CC80001F00900F5CF02F00900F5CF03F0B4C038
:100CD80004F0B5C005F0B6C006F0B7C007F05BDD9C
:100CE80000C0B4F001C0B5F002C0B6F003C0B7F060
:100CF8000A0E046EB3C000F0CFDC08C000F000C0DC
:100D080001F0000E00BEFF0E026E036E046E013687
:100D18000190023603360436013601900236033656
:100D28000436D00E0124F66E3F0E0220F76E000E38
:100D38000320F86E0900F5CF00F00900F5CF01F0A7
:100D48000900F5CF02F00900F5CF03F0B4C004F0B4
:100D5800B5C005F0B6C006F0B7C007F01CDD04D278
:100D6800800E0A0A006E800EB319005C6EE20A0E4D
:100D7800046EB3C000F090DC090E0024056E000E6E
:100D880000BEFF0E066E000E062205C000F006C06B
:100D980001F0000E06BEFF0E026E036E00360090D4
:100DA8000136023603360036009001360236033625
:100DB800D00E0024F66E3F0E0120F76E000E0220C2
:100DC800F86E0900F5CFB4F00900F5CFB5F00900C9
:100DD800F5CFB6F00900F5CFB7F00A0E046EB3C030
:100DE80000F05ADC08C000F000C001F0000E00BEA0
:100DF800FF0E026E036E046E013601900236033652
:100E0800043601360190023603360436D00E01242A
:100E1800F66E3F0E0220F76E000E0320F86E0900F2
:100E2800F5CF00F00900F5CF01F00900F5CF02F089
:100E38000900F5CF03F0B4C004F0B5C005F0B6C0A2
:100E480006F0B7C007F0A7DC8FD1B3C000F0000EE2
:100E5800B3BFFF0E016E026E036E003600900136BE
:100E68000236033600360090013602360336D00EBD
:100E78000024F66E3F0E0120F76E000E0220F86E79
:100E88000900F5CF00F00900F5CF01F00900F5CF12
:100E980002F00900F5CF03F067D1800EB319006E98
:100EA800800E6E0A005CD8A0C0D0640E046EB3C079
:100EB80000F050EC03F0120E0024056E000E00BE88
:100EC800FF0E066E000E062205C000F006C001F0F7
:100ED800000E06BEFF0E026E036E0036009001364D
:100EE8000236033600360090013602360336040E09
:100EF8000024F66E400E0120F76E000E0220F86EF8
:100F08000900F5CFB4F00900F5CFB5F00900F5CF29
:100F1800B6F00900F5CFB7F0640E046EB3C000F068
:100F280050EC03F008C000F00A0E046E50EC03F019
:100F3800090E0024056E000E00BEFF0E066E000EA0
:100F4800062205C000F006C001F0000E06BEFF0E26
:100F5800026E036E00360090013602360336003604
:100F68000090013602360336040E0024F66E400E59
:100F78000120F76E000E0220F86E0900F5CF00F090
:100F88000900F5CF01F00900F5CF02F00900F5CF0F
:100F980003F0B4C004F0B5C005F0B6C006F0B7C0A1
:100FA80007F0CFEC03F000C0B4F001C0B5F002C008
:100FB800B6F003C0B7F00A0E046EB3C000F050ECF0
:100FC80003F008C000F000C001F0000E00BEFF0EE4
:100FD800026E036E046E0136019002360336043643
:100FE80001360190023603360436040E0124F66EEB
:100FF800400E0220F76E000E0320F86E0900F5CFB0
:1010080000F00900F5CF01F00900F5CF02F0090062
:10101800F5CF03F0B4C004F0B5C005F0B6C006F0D3
:10102800B7C007F0CFEC03F09FD0800E0A0A006E1D
:10103800800EB319005C71E20A0E046EB3C000F0B2
:1010480050EC03F0090E0024056E000E00BEFF0EE2
:10105800066E000E062205C000F006C001F0000E64
:1010680006BEFF0E026E036E003600900136023691
:10107800033600360090013602360336040E00248B
:10108800F66E400E0120F76E000E0220F86E090081
:10109800F5CFB4F00900F5CFB5F00900F5CFB6F0FB
:1010A8000900F5CFB7F00A0E046EB3C000F050EC9B
:1010B80003F008C000F000C001F0000E00BEFF0EF3
:1010C800026E036E046E0136019002360336043652
:1010D80001360190023603360436040E0124F66EFA
:1010E800400E0220F76E000E0320F86E0900F5CFBF
:1010F80000F00900F5CF01F00900F5CF02F0090072
:10110800F5CF03F0B4C004F0B5C005F0B6C006F0E2
:10111800B7C007F0CFEC03F027D0B3C000F0000E43
:10112800B3BFFF0E016E026E036E003600900136EB
:101138000236033600360090013602360336040EB6
:101148000024F66E400E0120F76E000E0220F86EA5
:101158000900F5CF00F00900F5CF01F00900F5CF3F
:0A11680002F00900F5CF03F01200B9
:101172000B6A0C6A0A6A086A0350D8B441EF09F094
:10118200028E9E0E035E03BECCEF08F0D8B4CCEF05
:1011920008F031EF09F0036C080E035CD8A0FEEFF3
:1011A20008F0036E083600C008F001C000F002C06B
:1011B20001F0026A080E035CD8A0FEEF08F0036E8D
:1011C200083600C008F001C000F0016A080E035C96
:1011D200D8A0FEEF08F0036E083600C008F0006ADF
:1011E200080E035CD8A0FEEF08F0036E0836086A0A
:1011F2000350D8A4D8900AEF09F00350D8B40AEFEC
:1012020009F0D8900232013200320832032E02EF86
:1012120009F00BBC08A01BEF09F0D8A01BEF09F0E6
:10122200082AD8B4002AD8B4012AD8B4022A02BEA5
:1012320045EF09F00AAE41EF09F0021E011E001E41
:10124200081E082AD8B4002AD8B4012AD8B4022A1F
:1012520041EF09F0026A016A006A086A41EF09F087
:101262000B800BAE4BEF09F0026A0AAE4BEF09F0AE
:10127200026E016E006E086E0A3602324BEF09F002
:10128200000E0C6A4CEF09F0010E0C6E23EC01F01B
:101292004CEF09F0FF0E0250036E0150026E005037
:0812A200016E0850006E1200FD
:1012AA006E0E0001B35DD8A0CAD0640E046EB3C03E
:1012BA0000F041EC03F0120E0024056E066A000EDF
:1012CA00062205C000F006C001F0000E06BEFF0EA1
:1012DA00026E036E0036009001360236033600367F
:1012EA000090013602360336D00E0024F66E3F0E09
:1012FA000120F76E000E0220F86E0900F5CF00F00B
:10130A000900F5CF01F00900F5CF02F00900F5CF89
:10131A0003F0000E046E000E056E000E066E7E0EC1
:10132A00076ECFEC03F000C0B4F001C0B5F002C004
:10133A00B6F003C0B7F0640E046EB3C000F041EC1F
:10134A0003F008C000F00A0E046E41EC03F0090E27
:10135A000024056E066A000E062205C000F006C0CB
:10136A0001F0000E06BEFF0E026E036E00360090FC
:10137A00013602360336003600900136023603364D
:10138A00D00E0024F66E3F0E0120F76E000E0220EA
:10139A00F86E0900F5CF00F00900F5CF01F0090059
:1013AA00F5CF02F00900F5CF03F0B4C004F0B5C0E0
:1013BA0005F0B6C006F0B7C007F0CFEC03F000C0E6
:1013CA00B4F001C0B5F002C0B6F003C0B7F00A0E1F
:1013DA00046EB3C000F041EC03F008C000F000C096
:1013EA0001F0000E026E036E046E013601900236A1
:1013FA000336043601360190023603360436D00E1F
:10140A000124F66E3F0E0220F76E000E0320F86EDE
:10141A000900F5CF00F00900F5CF01F00900F5CF7A
:10142A0002F00900F5CF03F0B4C004F0B5C005F02E
:10143A00B6C006F0B7C007F0CFEC03F0B1D0B35195
:10144A000A08D8B07ED00A0E046EB3C000F041EC90
:10145A0003F0090E0024056E066A000E062205C076
:10146A0000F006C001F0000E06BEFF0E026E036E0B
:10147A0000360090013602360336003600900136F7
:10148A0002360336D00E0024F66E3F0E0120F76EA8
:10149A00000E0220F86E0900F5CF00F00900F5CF22
:1014AA0001F00900F5CF02F00900F5CF03F0000EB4
:1014BA00046E000E056E000E066E7E0E076ECFECF1
:1014CA0003F000C0B4F001C0B5F002C0B6F003C02A
:1014DA00B7F00A0E046EB3C000F041EC03F008C086
:1014EA0000F000C001F0000E026E036E046E0136B9
:1014FA00019002360336043601360190023603366D
:10150A000436D00E0124F66E3F0E0220F76E000E4E
:10151A000320F86E0900F5CF00F00900F5CF01F0BD
:10152A000900F5CF02F00900F5CF03F0B4C004F0CA
:10153A00B5C005F0B6C006F0B7C007F0CFEC03F0AF
:10154A002FD0B3C000F0000E016E026E036E00369B
:10155A000090013602360336003600900136023614
:10156A000336D00E0024F66E3F0E0120F76E000EF1
:10157A000220F86E0900F5CF00F00900F5CF01F05E
:10158A000900F5CF02F00900F5CF03F0000E046E52
:10159A00000E056E000E066E7E0E076ECFEC03F08F
:0215AA0012002D
:1015AC000450000A08E10550000A05E1FF0E006E28
:1015BC007F0E016E58D00D6A096A086A015000103E
:1015CC00D8B4000C015005180A6E0ABE0D1E0B6A29
:1015DC0005AE05D0041E051E042AD8B4052A01AE9A
:1015EC0005D0001E011E002AD8B4012A0150051096
:1015FC000A6E0ABE10D09FEC03F00BB020D00DAEDB
:10160C00000C001E011E002AD8B4012A081E091E57
:10161C00082AD8B4092A000C05AE0DD001BE07D09B
:10162C000150096E0050086E016A006AE8D7016A21
:10163C00006A002A000C011E001E0B2ADDD7082AA6
:10164C00D8B4092A0450085CD8A4D9D70550095C31
:10165C00D8A4D5D7096A086A002AD8B4012A01AEE1
:08166C00CED70000FF0C1200B4
:1016740003500718D8A44EEF0BF002500618D8A454
:101684004EEF0BF001500518D8A44EEF0BF00050AC
:0E1694000418D8B4D8841200D89412001200A2
:1016A2000B6A0C6A086A0350D8B4D5EF0BF002C07B
:1016B2000AF0028E9E0E035E03AEC5EF0BF0036CC2
:1016C200080E035CD8A092EF0BF0036E083600C040
:1016D20008F001C000F002C001F0026A080E035CCB
:1016E200D8A092EF0BF0036E083600C008F001C0DC
:1016F20000F0016A080E035CD8A092EF0BF0036EB3
:10170200083600C008F0006A080E035CD8A092EF09
:101712000BF0036E0836086A0350D8A4D8909EEFE7
:101722000BF00350D8B49EEF0BF0D8900232013286
:1017320000320832032E96EF0BF00BBC08A0AFEF7D
:101742000BF0D8A0AFEF0BF0082AD8B4002AD8B417
:10175200012AD8B4022A02BED9EF0BF00AAED5EFA5
:101762000BF0021E011E001E081E082AD8B4002A11
:10177200D8B4012AD8B4022AD5EF0BF0026A016A62
:10178200006A086AD5EF0BF00B800BAEE0EF0BF0AE
:10179200026A0AAEE0EF0BF0026E016E006E086E96
:1017A2000A360232E0EF0BF00C6A000EE1EF0BF0AA
:1017B200010E0C6E000E23EC01F0E1EF0BF0FF0EB8
:1017C2000250036E0150026E0050016E0850006E0E
:0217D200120003
:1017D4000A6A0350D8A40A800750D8A40A820A507F
:1017E400D8B44DEF0CF0030AD8B406EF0CF00AB0ED
:1017F40001EF0CF006AE4BEF0CF049EF0CF002AE2B
:1018040049EF0CF04BEF0CF00250800B0A6E029E75
:101814000650800B069E0A18D8B417EF0CF00A5035
:10182400D8B449EF0CF04BEF0CF00750035CD8B47C
:1018340021EF0CF0D8A03DEF0CF043EF0CF0065074
:10184400025CD8B42BEF0CF0D8A03DEF0CF043EFC2
:101854000CF00550015CD8B435EF0CF0D8A03DEF86
:101864000CF043EF0CF00450005CD8B44DEF0CF0D6
:10187400D8B043EF0CF00A52D8B44BEF0CF049EF58
:101884000CF00A52D8B449EF0CF04BEF0CF0D880AE
:0E1894001200D8901200D880D88412001200E2
:1018A2000050086E0150006E0250016E0350026E2D
:1018B200036A0B6A0C6A9E0E036E0A6A020E0C6EB3
:0618C20032EC00F0120000
:0818C800067E31EC01F0120074
:1018D0000450000A12E10550000A0FE10650000A08
:1018E0000CE10750000A09E1FF0E006EFF0E016EC9
:1018F0007F0E026EFF0E036EA8D0086A096A0750B9
:10190000D8B413EF0DF00350D8B418EF0DF0025017
:1019100006180A6E028E068E0E6A02C008F001C01A
:101920000CF000C00DF004500D5E0550D8A0053C31
:101930000C5E0650D8A0063C085E086A0C6A0D6A68
:10194000D8A0AAEF0CF0D89002320132003208324F
:10195000010E0E6E0750035ED8A0B7EF0CF07E0E9E
:101960000E240326D8B01DEF0DF0BDEF0CF07E0E57
:101970000E240326D8A022EF0DF0180E0B6E0D36A4
:101980000C3608360036013602360E360450005E3C
:101990000550D8A0053C015E0650D8A0063C025E6A
:1019A00006340E120EA0D8EF0CF00D80E3EF0CF011
:1019B000045000260550D8B0053C01260650D8B08A
:1019C000062802260D900B2EBFEF0CF009EF0DF04C
:1019D000D8900036013602360E360450005E0550AF
:1019E000D8A0053C015E0650D8A0063C025E063435
:1019F0000E10010B0D26D8B00C2AD8B4082AD8A492
:101A000009EF0DF008320C320D32032AD8B41DEF65
:101A10000DF00AAE089E0850026E0C50016E0D507B
:101A2000006E25EF0DF0010ECBEC03F025EF0DF06D
:101A3000020E1AEC00F025EF0DF0040E0EEC00F093
:0C1A400025EF0DF0080E21EC00F0120064
:101A4C000B6A0A6A096A00500402F4CF09F0F3CF5A
:101A5C0008F001500502F4CF0BF0F3CF0AF0005060
:101A6C000502F3500926F4500A22E86A0B220150B1
:101A7C000402F3500926F4500A22E86A0B2208C02B
:101A8C0000F009C001F00AC002F00BC003F0120014
:101A9C000C6A0E6A0250D8A467EF0DF001C002F078
:101AAC0000C001F0006A0E860250D8A467EF0DF05A
:101ABC0001C002F0016A0E960E880250D8B479EF7C
:101ACC000DF00E50035ED8A4D8A07FEF0DF0D89087
:101ADC0002BE85EF0DF0003601360236032E6EEF96
:101AEC000DF07FEF0DF0010E0C6E1AEC00F089EF8B
:101AFC000DF0020E0C6E21EC00F089EF0DF0040ECF
:081B0C000C6E2EEC00F012003B
:101B14006A0E4F6E1B0E506E8B0E516E000E526E7F
:101B2400FF0E536EFF0E546E000E556E000E566E71
:101B3400FF0E576EFF0E586E000E596E000E5A6E51
:101B4400FF0E5B6EFF0E5C6E000E5D6E000E5E6E31
:101B5400AC8A900EAB6E948E949C9EAA03D0AECFAA
:061B640000F0FBD71200A7
:0E1B6A00ACB202D00000FCD78BC0ADFF120061
:0C1B7800240E0D6E0D2EFED70000120092
:101B84000001AB6BAC6B9F6BA06B8DC000F08EC083
:101B940001F08FC002F0010E8D27000E8E238F23DB
:101BA40000C0F6FF01C0F7FF02C0F8FF0900F5CF3F
:101BB40000F000C09CF00052D8B4CDEF1DF09C5151
:101BC400250A0BE08BC0E1FF8CC0E2FF9CC0E6FF5E
:101BD4008B4B8C2BAB4BAC2BD8D79D6B9E6B9F6BDD
:101BE400A06B23D09F87010E8D27000E8E238F2399
:101BF40059D09F81010E8D27000E8E238F2352D042
:101C04009F83010E8D27000E8E238F234BD0A08738
:101C1400010E8D27000E8E238F2344D09F85010E45
:101C24008D27000E8E238F233DD08DC0F6FF8EC0EE
:101C3400F7FF8FC0F8FF0900F5CF01F001502D0A1E
:101C4400D1E08DC0F6FF8EC0F7FF8FC0F8FF09000A
:101C5400F5CF01F00150200ACCE08DC0F6FF8EC014
:101C6400F7FF8FC0F8FF0900F5CF01F001502B0AF0
:101C7400C7E08DC0F6FF8EC0F7FF8FC0F8FF0900E4
:101C8400F5CF01F00150230AC2E08DC0F6FF8EC0EB
:101C9400F7FF8FC0F8FF0900F5CF01F00150300ABB
:101CA400BDE001D09ED79FA301D09F919FA701D0F3
:101CB4009F958DC0F6FF8EC0F7FF8FC0F8FF090017
:101CC400F5CF00F0000E016E00C0B3F062EC04F03A
:101CD400005235E09D6B9E6B9DC000F09EC001F0EC
:101CE4000A0E046E000E056EAFDE8DC0F6FF8EC0C8
:101CF400F7FF8FC0F8FF0900F5CF02F0025000246F
:101D04009D6F000E01209E6F300E9D5F000E9E5B46
:101D1400010E8D27000E8E238F238DC0F6FF8EC0FB
:101D2400F7FF8FC0F8FF0900F5CF00F0000E016E39
:101D340000C0B3F062EC04F00052CEE133D08DC0A9
:101D4400F6FF8EC0F7FF8FC0F8FF0900F5CF01F052
:101D540001502A0A27E190C0E9FF91C0EAFFEECFC3
:101D640000F0EECF01F000C0E9FF01C0EAFFEECFC2
:101D74009DF0EECF9EF090C0E9FF91C0EAFF020E05
:101D8400EE24006E000EEE20016E90C0E1FF91C0C3
:101D9400E2FF00C0E6FF01C0E6FF010E8D27000E42
:101DA4008E238F238DC0F6FF8EC0F7FF8FC0F8FF00
:101DB4000900F5CF01F001502E0A6FE1010E8D27C5
:101DC400000E8E238F238DC0F6FF8EC0F7FF8FC0C9
:101DD400F8FF0900F5CF01F001502A0A28E190C06C
:101DE400E9FF91C0EAFFEECF00F0EECF01F000C0B2
:101DF400E9FF01C0EAFFEECF9AF0EECF9BF090C06E
:101E0400E9FF91C0EAFF020EEE24006E000EEE2000
:101E1400016E90C0E1FF91C0E2FF00C0E6FF01C087
:101E2400E6FF010E8D27000E8E238F2335D09A6B8B
:101E34009B6B8DC0F6FF8EC0F7FF8FC0F8FF0900C3
:101E4400F5CF00F0000E016E00C0B3F062EC04F0B8
:101E5400005222E09AC000F09BC001F00A0E046E0A
:101E6400000E056EF1DD8DC0F6FF8EC0F7FF8FC04A
:101E7400F8FF0900F5CF02F0025000249A6F000E1B
:101E840001209B6F300E9A5F000E9B5B010E8D2725
:101E9400000E8E238F23CDD703D09A6B9B6BA08922
:101EA4008DC000F08EC001F08FC002F0010E8D27AE
:101EB400000E8E238F2300C0F6FF01C0F7FF02C07F
:101EC400F8FF0900F5CF9CF0F9D0ABC000F0ACC02E
:101ED40001F0D1EF1DF09F89E3D7A0852ED19F8B10
:101EE400A0812BD1A08329D19F8D27D126D19F8B6F
:101EF4009F8F23D190C0E9FF91C0EAFFEECF00F09D
:101F0400EECF01F000C0E9FF01C0EAFFEECFA7F079
:101F1400EECFA8F090C0E9FF91C0EAFF020EEE24D4
:101F2400006E000EEE20016E90C0E1FF91C0E2FF52
:101F340000C0E6FF01C0E6FF000EA81902E1000E92
:101F4400A71904E1150EA76F000EA86FA96BAA6B61
:101F5400A951A725E96EAA51A821EA6EEE520BE019
:101F6400010EA925006E000EAA21016E00C0A9F081
:101F740001C0AAF0EDD79A519B110AE0AA519B5DCA
:101F840002E1A9519A5D04E29AC0A9F09BC0AAF0AB
:101F94009E51AA5D02E19D51A95D05E2A9519D5F93
:101FA400AA519E5B02D09D6B9E6B9FB716D09DC0BD
:101FB40000F09EC001F0010E9D5F000E9E5B00507C
:101FC40001100BE08BC0E1FF8CC0E2FF200EE66E37
:101FD4008B4B8C2BAB4BAC2BEAD7A9C002F0AAC01D
:101FE40003F0010EA95D006E000EAA59016E00C037
:101FF400A9F001C0AAF00250031019E0A7C0E9FF3C
:10200400A8C0EAFF8BC0E1FF8CC0E2FFEECFE6FF81
:102014008B4B8C2B010EA725006E000EA821016EA0
:1020240000C0A7F001C0A8F0AB4BAC2BD6D79FA73C
:1020340016D09DC000F09EC001F0010E9D5F000E01
:102044009E5B005001100BE08BC0E1FF8CC0E2FFEF
:10205400200EE66E8B4B8C2BAB4BAC2BEAD795D575
:1020640090C0E9FF91C0EAFFEECF00F0EECF01F09F
:1020740000C0E9FF01C0EAFFEECF9CF090C0E9FF89
:1020840091C0EAFF020EEE24006E000EEE20016EF7
:1020940090C0E1FF91C0E2FF00C0E6FF01C0E6FF8F
:1020A4009C0EA76F000EA86F010EA96F000EAA6FF9
:1020B40062D7C00E9F13000EA0133FD09C51000A9C
:1020C400D8B403D79C516C0AD8B405D79C514C0A98
:1020D400D8B401D79C51660AD8B4FFD69C51450A9E
:1020E400D8B4FDD69C51650AD8B4FAD69C51670A77
:1020F400D8B4F8D69C516F0AD8B4F6D69C51640A69
:10210400D8B4F4D69C51690AD8B4F0D69C51700A5C
:10211400D8B4EDD69C51580AD8B4E9D69C51780A63
:10212400D8B4E6D69C51730AD8B4E4D69C51630A59
:1021340097E09C51750ABDE0B3D7000E9F15006E61
:10214400A051070B016E00500110D8B474EF19F0C0
:10215400A0A904D0060E9A6F000E9B6F90C0E9FFF1
:1021640091C0EAFFEECF00F0EECF01F000C0E9FF2E
:1021740001C0EAFFEECFA1F0EECFA2F0EECFA3F0C4
:10218400EECFA4F090C0E9FF91C0EAFF040EEE2464
:10219400006E000EEE20016E90C0E1FF91C0E2FFE0
:1021A40000C0E6FF01C0E6FF046A056A066A076A22
:1021B400A1C000F0A2C001F0A3C002F0A4C003F0CB
:1021C400EAEC0BF0010ED8B0000E006E005205E0F0
:1021D400A37F030E9F13000EA013A56BA66BA1C0D3
:1021E40000F0A2C001F0A3C002F0A4C003F0046A8E
:1021F400056A066A076A3AEC0BF0000ED8A4010ED1
:10220400006E0052D8B489D0A4C000F0016A026AFA
:10221400036AFF0E0016000E01167E0E005E000E0D
:10222400015A00C0A5F001C0A6F0010E005E000E28
:10223400015A00C0A5F001C0A6F0030E046E000E02
:10224400056E02DC00C0A5F001C0A6F00A0E046E03
:10225400000E056ED6EC0AF000C0A5F001C0A6F091
:10226400800E0118026E800E025C02E1000E005C1A
:1022740005E2010E0001A55F000EA65B0001A55159
:102284000008B36FE4EC05F0A1C004F0A2C005F0AF
:10229400A3C006F0A4C007F0CFEC03F000C0A7F081
:1022A40001C0A8F002C0A9F003C0AAF0000E046E99
:1022B400000E056E000E066E7F0E076EA7C000F0BE
:1022C400A8C001F0A9C002F0AAC003F0EAEC0BF028
:1022D400010ED8B0000E006E005205E0010EA55F9D
:1022E400000EA65B1AD0000E046E000E056E200EC2
:1022F400066E820E076EA7C000F0A8C001F0A9C048
:1023040002F0AAC003F0EAEC0BF0000ED8B0010E04
:10231400006E005202E0A54BA62B800E006E800ECC
:10232400A619005C02E1A551000803E3010E9C6FAD
:1023340002D0A5C09CF0A0B118D0A0A315D0800EE7
:10234400A619006E7F0E005C02E1FC0EA55D0BE396
:10235400800EA619006E800E9B19005C02E19A5152
:10236400A55D01E201D001D0EFD39A519B1106E0A3
:10237400A0A304D0010E9A5F000E9B5B9B51000842
:1023840002E19A51080803E2080E9C6F02D09AC039
:102394009CF0A1C000F0A2C001F0A3C002F0A4C050
:1023A40003F0046A056A066A076A3AEC0BF0000E49
:1023B400D8A4010E006E0052D8B44BD1A5C0B3F01E
:1023C400E4EC05F000C004F001C005F002C006F022
:1023D40003C007F0A1C000F0A2C001F0A3C002F046
:1023E400A4C003F068EC0CF000C0A1F001C0A2F09E
:1023F40002C0A3F003C0A4F000019C510008B36F15
:10240400E4EC05F000C004F001C005F002C006F0E1
:1024140003C007F0A1C000F0A2C001F0A3C002F005
:10242400A4C003F068EC0CF000C0ADF001C0AEF045
:1024340002C0AFF003C0B0F0ADC0A1F0AEC0A2F0D6
:10244400AFC0A3F0B0C0A4F0ADC000F0AEC001F0C6
:10245400AFC002F0B0C003F0B9EC08F051EC0CF0DE
:1024640000C004F001C005F002C006F003C007F08C
:10247400ADC000F0AEC001F0AFC002F0B0C003F0D8
:1024840064EC0CF0000E046E000E056E000E066E79
:102494007E0E076EEAEC0BF0000ED8B0010E006E53
:1024A40000521AE0A1C000F0A2C001F0A3C002F0E3
:1024B400A4C003F0000E046E000E056E000E066E3E
:1024C4007E0E076E31EC01F000C0A1F001C0A2F055
:1024D40002C0A3F003C0A4F0A1C000F0A2C001F0A8
:1024E400A3C002F0A4C003F0B9EC08F000019C51B1
:1024F400010F096E0A6A000E0A2209C004F00AC01C
:1025040005F0000E0ABEFF0E066E076E0436049038
:102514000536063607360436049005360636073681
:10252400680E0424F66E400E0520F76E000E062099
:10253400F86E0900F5CF05F00900F5CF06F00900A3
:10254400F5CF07F00900F5CF08F00850035C08E167
:102554000750025C05E10650015C02E10550005C95
:102564001EE30001A1C000F0A2C001F0A3C002F06C
:10257400A4C003F0CD0E046ECC0E056E4C0E066E98
:102584007B0E076ECFEC03F000C0A1F001C0A2F0F7
:1025940002C0A3F003C0A4F0A54BA62B5AD0A1C03F
:1025A40000F0A2C001F0A3C002F0A4C003F0B9EC93
:1025B40008F09CC004F0000E056E066E076E04362B
:1025C400049005360636073604360490053606367A
:1025D4000736680E0424F66E400E0520F76E000ED2
:1025E4000620F86E0900F5CF05F00900F5CF06F0D6
:1025F4000900F5CF07F00900F5CF08F00850035C97
:1026040008E10750025C05E10650015C02E1055057
:10261400005C1FE20001A1C000F0A2C001F0A3C051
:1026240002F0A4C003F0000E046E000E056E200E2E
:10263400066E820E076ECFEC03F000C0A1F001C05D
:10264400A2F002C0A3F003C0A4F0010EA55F000E27
:10265400A65B0001A0A393D0A0B791D0800E000A7E
:10266400006E800E9B19005C02E19A510A0804E294
:102674000A0E9A6F000E9B6FA1C000F0A2C001F079
:10268400A3C002F0A4C003F0B9EC08F000C0A7F0A6
:1026940001C0A8F002C0A9F003C0AAF0A751A81174
:1026A400A911AA1142E00A0E046E000E056E066E10
:1026B400076EA7C000F0A8C001F0A9C002F0AAC02C
:1026C40003F06EEC04F008C000F009C001F00AC089
:1026D40002F00BC003F0000E046E031808E104506E
:1026E400021805E10450011802E10050000A1DE13E
:1026F400010E9A5F000E9B5B0A0E046E000E056EBF
:10270400066E076EA7C000F0A8C001F0A9C002F0D1
:10271400AAC003F06EEC04F000C0A7F001C0A8F05A
:1027240002C0A9F003C0AAF0B9D7800E9B19006EAD
:10273400800E005C02E19C519A5D21E29A519C5DFD
:10274400B36FE4EC05F000C004F001C005F002C072
:1027540006F003C007F0A1C000F0A2C001F0A3C0BE
:1027640002F0A4C003F068EC0CF000C0A1F001C0BA
:10277400A2F002C0A3F003C0A4F09AC09CF0050E1E
:1027840000019A25006E000E9B21016E00509D5F92
:1027940001509E5B9A519B1103E1A0B701D004D074
:1027A400010E9D5F000E9E5B030E9F15006EA0C080
:1027B40001F0000E01160050011004E0010E9D5FAF
:1027C400000E9E5B9FA539D09FA312D09FA103D07A
:1027D4002D0E926F02D02B0E926F8BC0E1FF8CC036
:1027E400E2FF92C0E6FF8B4B8C2BAB4BAC2B0CD097
:1027F4009FA10AD08BC0E1FF8CC0E2FF200EE66EE1
:102804008B4B8C2BAB4BAC2B800E006E800E9E1929
:10281400005C02E19D5100080FE28BC0E1FF8CC017
:10282400E2FF300EE66E8B4B8C2BAB4BAC2B010EC8
:102834009D5F000E9E5BE8D73AD09FB718D0800EFC
:10284400006E800E9E19005C02E19D5100080FE2AB
:102854008BC0E1FF8CC0E2FF200EE66E8B4B8C2B0D
:10286400AB4BAC2B010E9D5F000E9E5BE8D79FA384
:1028740012D09FA103D02D0E936F02D02B0E936F15
:102884008BC0E1FF8CC0E2FF93C0E6FF8B4B8C2B27
:10289400AB4BAC2B0CD09FA10AD08BC0E1FF8CC0FA
:1028A400E2FF200EE66E8B4B8C2BAB4BAC2BA1C006
:1028B40000F0A2C001F0A3C002F0A4C003F0B9EC80
:1028C40008F000C0A7F001C0A8F002C0A9F003C03E
:1028D400AAF09CC000F0000E016E026E036E00367A
:1028E4000090013602360336003600900136023677
:1028F4000336680E0024F66E400E0120F76E000EBB
:102904000220F86E0900F5CF04F00900F5CF05F0B8
:102914000900F5CF06F00900F5CF07F0A7C000F0D5
:10292400A8C001F0A9C002F0AAC003F06EEC04F044
:10293400300E00268BC0E1FF8CC0E2FF00C0E6FF32
:102944008B4B8C2BAB4BAC2B9A519B1103E1A0B757
:1029540001D06FD08BC0E1FF8CC0E2FF2E0EE66E7B
:102964008B4B8C2BAB4BAC2B9C519A5F000E9B5B1F
:102974009C534DE09C079CC000F0000E016E026E5B
:10298400036E00360090013602360336003600909E
:10299400013602360336680E0024F66E400E01201E
:1029A400F76E000E0220F86E0900F5CF04F009005E
:1029B400F5CF05F00900F5CF06F00900F5CF07F0D3
:1029C400A7C000F0A8C001F0A9C002F0AAC003F09B
:1029D4006EEC04F00A0E046E000E056E066E076EB1
:1029E4006EEC04F008C000F009C001F00AC002F067
:1029F4000BC003F0300E00268BC0E1FF8CC0E2FF59
:102A040000C0E6FF8B4B8C2BAB4BAC2BB1D79A5150
:102A14009B110FE08BC0E1FF8CC0E2FF300EE66E2D
:102A24008B4B8C2BAB4BAC2B010E9A5F000E9B5B3C
:102A3400EED79FAB0BD08BC0E1FF8CC0E2FF450EFD
:102A4400E66E8B4B8C2BAB4BAC2B0AD08BC0E1FFCF
:102A54008CC0E2FF650EE66E8B4B8C2BAB4BAC2B24
:102A6400800EA619006E800E005C02E1000EA55DCA
:102A740011E2A5510008A56FA651000EA6578BC000
:102A8400E1FF8CC0E2FF2D0EE66E8B4B8C2BAB4B23
:102A9400AC2B0AD08BC0E1FF8CC0E2FF2B0EE66E9C
:102AA4008B4B8C2BAB4BAC2B0A0E046E000E056EBD
:102AB400A5C000F0A6C001F0D6EC0AF0300E002646
:102AC4008BC0E1FF8CC0E2FF00C0E6FF00018B4B2E
:102AD4008C2BAB4BAC2B0A0E046E000E056EA5C0FE
:102AE40000F0A6C001F0D6EC0AF008C000F009C05E
:102AF40001F0300E00268BC0E1FF8CC0E2FF00C065
:102B0400E6FF00018B4B8C2BAB4BAC2B9FA71AD051
:102B1400800E006E800E9E19005C02E19D5100083B
:102B240011E28BC0E1FF8CC0E2FF200EE66E8B4BFE
:102B34008C2BAB4BAC2B010E9D5F000E9E5B9D510D
:102B44009E11EFE1C7EF0DF0A0A3F3D0800EA619FC
:102B5400006E800E005C02E1000EA55D0AE2010E2B
:102B6400A55D006E000EA659016E00509A5F0150DB
:102B74009B5BA1C000F0A2C001F0A3C002F0A4C0FE
:102B840003F0B9EC08F000C0A7F001C0A8F002C03F
:102B9400A9F003C0AAF0010E9C6F9C510A0A34E00C
:102BA4009CC000F0000E016E026E036E00360090B1
:102BB40001360236033600360090013602360336FB
:102BC400680E0024F66E400E0120F76E000E0220FF
:102BD400F86E0900F5CF01F00900F5CF02F0090005
:102BE400F5CF03F00900F5CF04F00450AA5D08E125
:102BF4000350A95D05E10250A85D02E10150A75D03
:102C040001E202D09C2BC9D79C519A5DB16F000E92
:102C14009B59B26FB1C09AF0B2C09BF0A7C000F04C
:102C2400A8C001F0A9C002F0AAC003F051EC0CF056
:102C340000C004F001C005F002C006F003C007F0B4
:102C4400A1C000F0A2C001F0A3C002F0A4C003F030
:102C540064EC0CF000C0ADF001C0AEF002C0AFF007
:102C640003C0B0F0B1C0B3F0E4EC05F0ADC004F0C3
:102C7400AEC005F0AFC006F0B0C007F0CFEC03F073
:102C8400000E046E000E056E000E066E7E0E076EBC
:102C940031EC01F0B9EC08F000C0A7F001C0A8F0D5
:102CA40002C0A9F003C0AAF09A519B1142E00A0E97
:102CB400046E000E056E066E076EA7C000F0A8C075
:102CC40001F0A9C002F0AAC003F06EEC04F008C041
:102CD40000F009C001F00AC002F00BC003F0000EBE
:102CE400046E031808E10450021805E104500118A9
:102CF40002E10050000A1DE10A0E046E000E056E8A
:102D0400066E076EA7C000F0A8C001F0A9C002F0CB
:102D1400AAC003F06EEC04F000C0A7F001C0A8F054
:102D240002C0A9F003C0AAF0010E9A5F000E9B5BDB
:102D3400BBD7800E006E800E9B19005C02E19A5195
:102D44000C0816E39AC0B3F055EC09F0A1C004F0E6
:102D5400A2C005F0A3C006F0A4C007F031EC01F056
:102D640000C0A1F001C0A2F002C0A3F003C0A4F00F
:102D7400A1C000F0A2C001F0A3C002F0A4C003F0FF
:102D8400046A056A066A076A3AEC0BF0000ED8A4D6
:102D9400010E006E0052D8B477D0A1C000F0A2C0DA
:102DA40001F0A3C002F0A4C003F0B9EC08F0000ED7
:102DB400046E031808E10450021805E104500118D8
:102DC40002E10050000A60E1800E006E800EA61938
:102DD400005C02E1A551010857E2A5C0B3F0E4ECA0
:102DE40005F000C004F001C005F002C006F003C005
:102DF40007F0A1C000F0A2C001F0A3C002F0A4C07B
:102E040003F068EC0CF05F0E046E700E056E090E94
:102E1400066E810E076EEAEC0BF0010ED8B0000EC0
:102E2400006E005206E0090E0001A55F000EA65BCD
:102E340005D00001080EA55F000EA65BA5C0B3F087
:102E4400E4EC05F000C004F001C005F002C006F097
:102E540003C007F0A1C000F0A2C001F0A3C002F0BB
:102E6400A4C003F068EC0CF0B9EC08F000C0A7F0C3
:102E740001C0A8F002C0A9F003C0AAF00001A16B30
:102E8400A26BA36BA46B38D0A1C000F0A2C001F068
:102E9400A3C002F0A4C003F0B9EC08F000C0A7F08E
:102EA40001C0A8F002C0A9F003C0AAF0A7C000F0B6
:102EB400A8C001F0A9C002F0AAC003F051EC0CF0C4
:102EC40000C004F001C005F002C006F003C007F022
:102ED400A1C000F0A2C001F0A3C002F0A4C003F09E
:102EE40064EC0CF000C0A1F001C0A2F002C0A3F099
:102EF40003C0A4F0A56BA66B010E9C6F9C510A0A3B
:102F040034E09CC000F0000E016E026E036E0036C9
:102F14000090013602360336003600900136023640
:102F24000336680E0024F66E400E0120F76E000E84
:102F34000220F86E0900F5CF01F00900F5CF02F088
:102F44000900F5CF03F00900F5CF04F00450AA5DA1
:102F540008E10350A95D05E10250A85D02E10150BA
:102F6400A75D01E202D09C2BC9D79C519A25006E23
:102F7400000E9B21016EA5510026A651012200508E
:102F84009D5F01509E5BA0B704D09A519B1101E153
:102F940004D0010E9D5F000E9E5B030E9F15006E14
:102FA400A0C001F0000E01160050011004E0010E53
:102FB4009D5F000E9E5B9FA539D09FA312D09FA159
:102FC40003D02D0E946F02D02B0E946F8BC0E1FFB3
:102FD4008CC0E2FF94C0E6FF8B4B8C2BAB4BAC2B2D
:102FE4000CD09FA10AD08BC0E1FF8CC0E2FF200E61
:102FF400E66E8B4B8C2BAB4BAC2B800E006E800E95
:103004009E19005C02E19D5100080FE28BC0E1FFB4
:103014008CC0E2FF300EE66E8B4B8C2BAB4BAC2B93
:10302400010E9D5F000E9E5BE8D73AD09FB718D083
:10303400800E006E800E9E19005C02E19D51000816
:103044000FE28BC0E1FF8CC0E2FF200EE66E8B4BDB
:103054008C2BAB4BAC2B010E9D5F000E9E5BE8D717
:103064009FA312D09FA103D02D0E956F02D02B0EDB
:10307400956F8BC0E1FF8CC0E2FF95C0E6FF8B4BE0
:103084008C2BAB4BAC2B0CD09FA10AD08BC0E1FF97
:103094008CC0E2FF200EE66E8B4B8C2BAB4BAC2B23
:1030A4009CC000F09C0700524CE09CC000F0000E55
:1030B400016E026E036E003600900136023603364E
:1030C40000360090013602360336680E0024F66E90
:1030D400400E0120F76E000E0220F86E0900F5CFB5
:1030E40004F00900F5CF05F00900F5CF06F009005A
:1030F400F5CF07F0A7C000F0A8C001F0A9C002F006
:10310400AAC003F06EEC04F00A0E046E000E056E05
:10311400066E076E6EEC04F008C000F009C001F002
:103124000AC002F00BC003F0300E00268BC0E1FF92
:103134008CC0E2FF00C0E6FF8B4B8C2BAB4BAC2B5F
:10314400AFD7800E006E800EA619005C02E1A55177
:1031540000080FE28BC0E1FF8CC0E2FF300EE66E88
:103164008B4B8C2BAB4BAC2B010EA55F000EA65BDF
:10317400E8D7800E000A006E800E9B19005C02E105
:103184009A51080803E2080E9C6F02D09AC09CF082
:103194009C519A5F000E9B5B9C5303E1A0B701D046
:1031A4000AD08BC0E1FF8CC0E2FF2E0EE66E8B4B83
:1031B4008C2BAB4BAC2B9CC0B3F0E4EC05F0A1C062
:1031C40004F0A2C005F0A3C006F0A4C007F0CFEC41
:1031D40003F051EC0BF000C0A7F001C0A8F002C04E
:1031E400A9F003C0AAF09C534DE09C079CC000F0DA
:1031F400000E016E026E036E003600900136023638
:10320400033600360090013602360336680E002479
:10321400F66E400E0120F76E000E0220F86E0900D3
:10322400F5CF04F00900F5CF05F00900F5CF06F05D
:103234000900F5CF07F0A7C000F0A8C001F0A9C0AD
:1032440002F0AAC003F06EEC04F00A0E046E000E45
:10325400056E066E076E6EEC04F008C000F009C03F
:1032640001F00AC002F00BC003F0300E00268BC040
:10327400E1FF8CC0E2FF00C0E6FF8B4B8C2BAB4B15
:10328400AC2BB1D79A519B110FE08BC0E1FF8CC0DE
:10329400E2FF300EE66E8B4B8C2BAB4BAC2B010E4E
:1032A4009A5F000E9B5BEED79FA71AD0800E006E2C
:1032B400800E9E19005C02E19D51000811E28BC052
:1032C400E1FF8CC0E2FF200EE66E8B4B8C2BAB4BE8
:1032D400AC2B010E9D5F000E9E5B9D519E11EFE194
:1032E400C7EF0DF0C00E9F15016EA0C002F0000ED6
:1032F4000216000E021802E1000E0118D8A480D0B4
:103304009FA927D090C0E9FF91C0EAFFEECF00F05B
:10331400EECF01F000C0E9FF01C0EAFFEECFA7F055
:10332400EECFA8F0EECFA9F0EECFAAF090C0E9FF5F
:1033340091C0EAFF040EEE24006E000EEE20016E32
:1033440090C0E1FF91C0E2FF00C0E6FF01C0E6FFCC
:103354002FD090C0E9FF91C0EAFFEECF00F0EECF8E
:1033640001F000C0E9FF01C0EAFFEECF00F0EECFAC
:1033740001F0000E01BEFF0E026E036E00C0A7F046
:1033840001C0A8F002C0A9F003C0AAF090C0E9FFF0
:1033940091C0EAFF020EEE24006E000EEE20016ED4
:1033A40090C0E1FF91C0E2FF00C0E6FF01C0E6FF6C
:1033B400800EAA19006E800E005C08E1000EA95D63
:1033C40005E1000EA85D02E1000EA75D18E2030E00
:1033D4009F13000EA013006A016A026A036AA751D0
:1033E400005EA851015AA951025AAA51035A00C0B9
:1033F400A7F001C0A8F002C0A9F003C0AAF04ED003
:103404009FA927D090C0E9FF91C0EAFFEECF00F05A
:10341400EECF01F000C0E9FF01C0EAFFEECFA7F054
:10342400EECFA8F0EECFA9F0EECFAAF090C0E9FF5E
:1034340091C0EAFF040EEE24006E000EEE20016E31
:1034440090C0E1FF91C0E2FF00C0E6FF01C0E6FFCB
:1034540025D090C0E9FF91C0EAFFEECF00F0EECF97
:1034640001F000C0E9FF01C0EAFFEECFA7F0EECF04
:10347400A8F0000EA96FAA6F90C0E9FF91C0EAFFFF
:10348400020EEE24006E000EEE20016E90C0E1FFED
:1034940091C0E2FF00C0E6FF01C0E6FF000E9B19E9
:1034A40002E1000E9A190FE1000E006EAA1908E15C
:1034B4000050A91905E10050A81902E1A751000A1A
:1034C40002E19A4B9B2BC00E9F15006E00C005F0C5
:1034D400AED0010E9C6F9C510A0A34E09CC000F0EF
:1034E400000E016E026E036E003600900136023645
:1034F400033600360090013602360336680E002487
:10350400F66E400E0120F76E000E0220F86E0900E0
:10351400F5CF01F00900F5CF02F00900F5CF03F073
:103524000900F5CF04F00450AA5D08E10350A95D39
:1035340005E10250A85D02E10150A75D01E202D05D
:103544009C2BC9D782D0010E9C6F9C51080A34E091
:103554009CC000F0000E016E026E036E00360090F7
:103564000136023603360036009001360236033641
:10357400900E0024F66E400E0120F76E000E02201D
:10358400F86E0900F5CF01F00900F5CF02F009004B
:10359400F5CF03F00900F5CF04F00450AA5D08E16B
:1035A4000350A95D05E10250A85D02E10150A75D49
:1035B40001E202D09C2BC9D748D0010E9C6F9C51CC
:1035C4000C0A34E09CC000F0000E016E026E036E23
:1035D400003600900136023603360036009001367C
:1035E40002360336380E0024F66E400E0120F76EC4
:1035F400000E0220F86E0900F5CF01F00900F5CFA6
:1036040002F00900F5CF03F00900F5CF04F00450EF
:10361400AA5D08E10350A95D05E10250A85D02E13D
:103624000150A75D01E202D09C2BC9D70ED00550F2
:10363400000AD8B44ED70550C00AD8B44AD70550AA
:10364400800A81E00550400AB8E0800E006E800ECA
:103654009B19005C02E19A519C5D03E29AC09CF0C4
:103664000DD0800E9B19006E800E005C02E19C510F
:103674009A5D04E29CC09AF0000E9B6F9D519E11CE
:103684000EE0030E9F15006EA0C001F0000E01169F
:103694000050011004E0010E9D5F000E9E5B800E41
:1036A4009B19006E800E9E19005C02E19D519A5D8B
:1036B40005E29A519D5F9B519E5B02D09D6B9E6B70
:1036C400C40E9F15016EA051080B026E0250080A29
:1036D40002E1400E011808E19D519E1104E0010E23
:1036E4009D5F000E9E5B1CD0C00E9F15016EA05105
:1036F400080B026E0250080A02E1800E011810E164
:10370400800E006E800E9E19005C02E19D5102083D
:1037140005E2020E9D5F000E9E5B02D09D6B9E6BC8
:103724009FA55DD09FA312D09FA103D02D0E966FAD
:1037340002D02B0E966F8BC0E1FF8CC0E2FF96C0C7
:10374400E6FF8B4B8C2BAB4BAC2B34D09FA10BD017
:103754008BC0E1FF8CC0E2FF200EE66E8B4B8C2BFE
:10376400AB4BAC2B27D0C00E9F15016EA051080B9C
:10377400026E0250080A02E1800E01181BE18BC0A0
:10378400E1FF8CC0E2FF300EE66E8B4B8C2BAB4B13
:10379400AC2B9FAB03D0580E976F02D0780E976F67
:1037A4008BC0E1FF8CC0E2FF97C0E6FF8B4B8C2BF4
:1037B400AB4BAC2B9D519E1111E08BC0E1FF8CC033
:1037C400E2FF300EE66E8B4B8C2BAB4BAC2B010E19
:1037D4009D5F000E9E5B9D519E11EFE174D09D5143
:1037E4009E1113E09FB711D08BC0E1FF8CC0E2FFA4
:1037F400200EE66E8B4B8C2BAB4BAC2B010E9D5FDE
:10380400000E9E5B9D519E11EFE19FA312D09FA1DC
:1038140003D02D0E986F02D02B0E986F8BC0E1FF52
:103824008CC0E2FF98C0E6FF8B4B8C2BAB4BAC2BD0
:103834000CD09FA10AD08BC0E1FF8CC0E2FF200E08
:10384400E66E8B4B8C2BAB4BAC2BC00E9F15016ED5
:10385400A051080B026E0250080A02E1400E011842
:103864000BE18BC0E1FF8CC0E2FF300EE66E8B4BA8
:103874008C2BAB4BAC2B27D0C00E9F15016EA051E7
:10388400080B026E0250080A02E1800E01181BE1C7
:103894008BC0E1FF8CC0E2FF300EE66E8B4B8C2BAD
:1038A400AB4BAC2B9FAB03D0580E996F02D0780E64
:1038B400996F8BC0E1FF8CC0E2FF99C0E6FF8B4B90
:1038C4008C2BAB4BAC2B800E006E800E9B19005CD6
:1038D40002E19A519C5D0BE28BC0E1FF8CC0E2FFD8
:1038E400300EE66E8B4B8C2BAB4BAC2BECD79AC0CB
:1038F40000F09BC001F0010E9A5F000E9B5B00502C
:103904000110D8B42AD1C00E9F15006E00C0ADF0CE
:103914000AD19AC000F09BC001F0000E9BBFFF0EBD
:10392400026E036E0036009001360236033600360E
:103934000090013602360336680E0024F66E400EFF
:103944000120F76E000E0220F86E0900F5CF04F096
:103954000900F5CF05F00900F5CF06F00900F5CF11
:1039640007F0A7C000F0A8C001F0A9C002F0AAC0E7
:1039740003F06EEC04F00A0E046E000E056E066E83
:10398400076E6EEC04F008C000F009C001F00AC034
:1039940002F00BC003F0300E00249C6FD3D09FAB19
:1039A40045D09AC000F09BC001F0000E9BBFFF0EF3
:1039B400026E036E0036009001360236033600367E
:1039C4000090013602360336900E0024F66E400E47
:1039D4000120F76E000E0220F86E0900F5CF04F006
:1039E4000900F5CF05F00900F5CF06F00900F5CF81
:1039F40007F0A7C000F0A8C001F0A9C002F0AAC057
:103A040003F06EEC04F00F0E0016000E0116021601
:103A14000316C10E0024F66E400E0120F76E000E50
:103A24000220F86E0900F5CF9CF044D09AC000F053
:103A34009BC001F0000E9BBFFF0E026E036E0036AA
:103A44000090013602360336003600900136023605
:103A54000336900E0024F66E400E0120F76E000E21
:103A64000220F86E0900F5CF04F00900F5CF05F047
:103A74000900F5CF06F00900F5CF07F0A7C000F064
:103A8400A8C001F0A9C002F0AAC003F06EEC04F0D3
:103A94000F0E0016000E011602160316B00E0024B7
:103AA400F66E400E0120F76E000E0220F86E09003B
:103AB400F5CF9CF047D09AC000F09BC001F0000EF7
:103AC4009BBFFF0E026E036E003600900136023675
:103AD400033600360090013602360336380E0024D1
:103AE400F66E400E0120F76E000E0220F86E0900FB
:103AF400F5CF04F00900F5CF05F00900F5CF06F085
:103B04000900F5CF07F0A7C000F0A8C001F0A9C0D4
:103B140002F0AAC003F06EEC04F0070E00149C6FD0
:103B2400300E9C270FD0AD51000AD8B4F2D6AD5157
:103B3400C00AD8B4EED6AD51800AD8B430D7AD514E
:103B4400400AB9E08BC0E1FF8CC0E2FF9CC0E6FFF5
:103B54008B4B8C2BAB4BAC2BCAD69FA71AD0800EA9
:103B6400006E800E9E19005C02E19D51000811E276
:103B74008BC0E1FF8CC0E2FF200EE66E8B4B8C2BDA
:103B8400AB4BAC2B010E9D5F000E9E5B9D519E11B5
:103B9400EFE1C7EF0DF0ABC000F0ACC001F01200D4
:103BA400C26A201C006E0050C116070EC012C08EDF
:103BB4005FC000F000360090003600900050C21242
:103BC400C280BCEC0DF0C282C2A201D0FDD7C4CF2A
:103BD40001F0006AC3500012000E0112C2901200DC
:103BE400850E5F6E000E0001606F80C08BF081C097
:103BF4008CF082C08DF083C08EF084C08FF05F0E95
:103C0400906F000E916FC2EC0DF000C089F001C0FE
:103C14008AF000508025E16E01508121E26EE66A4F
:0A3C240089C000F08AC001F0120010
:103C2E00C186C184C192C180F29EF28C9D80CD8AE4
:103C3E00CD88E70ECF6E960ECE6ECD8095908C8091
:103C4E00B886020EB06E080EAF6EAC848AEC0DF024
:043C5E00F28E1200D0
:103C62000900F5CFE6FF0006FBE10106F9E11200CB
:103C720080C000F081C001F082C002F083C003F076
:103C8200000E046E000E056E7A0E066E880E076E2A
:103C9200CFEC03F0000E046E000E056E1D0E066ED4
:0A3CA200870E076E68EC0CF01200AC
:103CAC000050086E0150006E016A026A036A0B6ACA
:103CBC000C6A960E036E0A6A00C001F008C000F090
:0A3CCC00086A026A4EEC0DF01200C7
:103CD6000001606B80C0E9FF81C0EAFFEECF5FF0B4
:103CE6005F50000A0FE05FC08BF0B5EC0DF00001ED
:103CF600602B60518025E96E000E8121EA6EEECFC1
:063D06005FF0EED7120091
:103D0C00300E006E060E016E4E0E026E980E036E95
:103D1C0080C004F081C005F082C006F083C007F0BB
:063D2C00CFEC03F01200D1
:103D3200000E046E000E056E200E066E810E076EDA
:103D420080C000F081C001F082C002F083C003F0A5
:103D520068EC0CF0000E046E000E056E160E066E78
:0A3D6200860E076E68EC0CF01200EC
:103D6C0080C01CF081C01DF082C01EF083C01FF00B
:023D7C00120033
:103D7E0080C000F081C001F082C002F083C003F069
:103D8E00000E046E000E056E200E066E810E076E7E
:103D9E00CFEC03F0000E046EC00E056E7F0E066EA5
:0A3DAE00880E076E68EC0CF012009E
:103DB8006EEC20F038DF5F6AF1DE74DF00C080F05F
:103DC80001C081F002C082F003C083F0D4DF00C0DC
:103DD80061F001C062F002C063F003C064F083B018
:103DE80009D061C080F062C081F063C082F064C015
:103DF80083F0B8DF1CC004F01DC005F01EC006F03B
:103E08001FC007F061C000F062C001F063C002F09B
:103E180064C003F064EC0CF000C061F001C062F013
:103E280002C063F003C064F000C080F001C081F0FC
:103E380002C082F003C083F078DF00C065F001C0E3
:103E480066F002C067F003C068F000C080F001C0EF
:103E580081F002C082F003C083F054DF00C069F033
:103E680001C06AF002C06BF003C06CF000C080F0C3
:103E780001C081F002C082F003C083F0F6DE00C00A
:103E88006DF001C06EF002C06FF003C070F0000E5C
:103E9800311802E1640E3018D8A477D0306A316A3C
:103EA800710E0001806F000E816FD20E826F400E7E
:103EB800836F000E846F65C085F066C086F067C0AA
:103EC80087F068C088F08ADE320E806F000E816F3E
:103ED800FEDE710E806F000E816FF9DE0D0E8B6FA6
:103EE800B5EC0DF0710E0001806F000E816FD50EDC
:103EF800826F400E836F000E846F69C085F06AC0C0
:103F080086F06BC087F06CC088F068DE290E806F81
:103F1800000E816FDCDE710E806F000E816FD7DEC0
:103F2800470E806F000E816FD2DE0D0E8B6FB5ECE1
:103F38000DF0710E0001806F000E816FD80E826F38
:103F4800400E836F000E846F6DC085F06EC086F0E2
:103F58006FC087F070C088F041DE3E0E806F000EA3
:103F6800816FB5DE710E806F000E816FB0DE210E9D
:103F7800806F000E816FABDE0D0E8B6FB5EC0DF010
:0E3F88000D0E00018B6FB5EC0DF015D7FFD7B5
:1040DC0010EE15F03A0E006E010E016E960EF66E95
:0E40EC003F0EF76E000EF86E31EC1EF0120063
:073F9600286E756C6C290018
:043F9D000000000020
:013FA10030EF
:083FA20050617363616C730050
:073FAA00466F7263613A00EB
:023FB10000000E
:0C3FB3004465666F726D6163616F3A00D7
:093FBF005072657373616F3A00E2
:083FC8004E6577746F6E730003
:103FD0000000007FCDCC4C7B0AD723786F1203758D
:103FE00017B75171ACC5276EBD37066B95BF5667C5
:103FF00077CC2B645F700961FFE65B5D08E53C3CB4
:044000006042221BDD
:104004000000007F000020820000488500007A88BC
:1040140000401C8C0050438F0024749280961896A4
:1040240020BC3E99286B6E9CF90215A0EC782DC13A
:04403400CAF249E2A1
:10403800010000000800000040000000000200002D
:1040480000100000008000000000040000002000B4
:10405800000000010000000800000040000000000F
:10406800010000000A00000064000000E8030000EE
:1040780010270000A086010040420F00809698009B
:0840880000E1F50500CA9A3BB6
:1040900001000000100000000001000000100000FE
:1040A00000000100000010000000000100000010EE
:1040B000303132333435363738396162636465669E
:0140C00000FF
:1040C100303132333435363738394142434445464D
:0140D10000EE
:0340D20025660060
:0340D5002566005D
:0340D8002566005A
:020000040030CA
:0E000000000C1F1EFF0381FF0FC00FE00F401A
:00000001FF
