:04000000CFEF22F02C
:1000080000C016F001C015F0E1CF17F0E2CF18F0EC
:100018009EA00AD0010E00016C6F000E6D6F0B0ED2
:10002800CF6EDC0ECE6E9E909EAA1BD0760E03017C
:100038008425F16F000E8521F26F56EC20F0F1C394
:10004800E1FFF2C3E2FF00C0E6FF0301844B852B0A
:100058008551030A02E1000E841902E1846B856B65
:100068009E9AF2A204D00001704B712BF292F0A07C
:1000780004D00301944B952BF09016C000F015C0E6
:0C00880001F017C0E1FF18C0E2FF1100FA
:100094000B820BAE54EF00F003680268016800683D
:0800A4000A360232FF0E1200C1
:0E00AC00026A016A006A086A036A000E120006
:0800BA000AAE029E000E1200C6
:1000C2000B840BAE6CEF00F0010E036E026A016A44
:0A00D200006A0A360232FF0E120027
:1000DC000CB0B0EF00F00CA256EF01F00E6A000E5F
:1000EC000264C7EF00F0F00E0214D8A492EF00F0F7
:1000FC00023A01380F0B02260138F00B016E003862
:10010C000F0B01260038F00B006E08380F0B002681
:10011C000838F00B086E0E84D89002BEABEF00F0DE
:10012C0008360036013602360E2A02BEABEF00F05E
:10013C0008360036013602360E2A02BEABEF00F04E
:10014C0008360036013602360E2A0E5003644CEF88
:10015C0001F0035E0BBC08AE51EF01F0D880800EAD
:10016C0008640030000E002201220222D8A051EFB8
:10017C0001F0023201320032034A56EF01F051EF26
:10018C0001F001C002F000C001F008C000F0086AE4
:10019C00000E0E860264FEEF00F0F00E0214D8A4DE
:1001AC00E6EF00F0023A01380F0B02260138F00B93
:1001BC00016E00380F0B01260038F00B006E0E8418
:1001CC00D89002BEABEF00F00036013602360E2A94
:1001DC0002BEABEF00F00036013602360E2A02BE2C
:1001EC00ABEF00F00036013602360E2AABEF00F012
:1001FC0001C002F000C001F0006A000E0E960E88DD
:10020C0002642BEF01F0F00E0214D8A416EF01F0EB
:10021C00023A01380F0B02260138F00B016E0E84E6
:10022C00D89002BEABEF00F0013602360E2A02BEA9
:10023C00ABEF00F0013602360E2A02BEABEF00F037
:10024C00013602360E2AABEF00F001C002F0016A53
:10025C00000E0E8602645BEF01F0F00E0214D8A4BF
:10026C003AEF01F0023A0E84D89002BEABEF00F0E8
:10027C0002360E2A02BEABEF00F002360E2A02BE88
:10028C00ABEF00F002360E2AABEF00F0010E0C6E55
:10029C0012DF5EEF01F0020E0C6E09DF5EEF01F073
:1002AC00040E0C6EF1DE5EEF01F0080E0C6EF8DE43
:0202BC0012002E
:1002BE00025006180E6E086A096A0B6A035007642C
:1002CE0052EF02F006500A6E068E028E03500B6E2F
:1002DE000750036E000E0B64A2EF01F00B50075E89
:1002EE00D8B443EF02F0070E076411EF02F0075E79
:1002FE0000C008F001C000F002C001F0026A074E13
:10030E0043EF02F00764E6EF01F0075E00C008F06D
:10031E0001C000F0016A074E43EF02F00764C4EF1C
:10032E0001F0075E00C008F0006A074E43EF02F0CE
:10033E000764ABEF01F00AC002F005C001F004C083
:10034E0000F0086A6CEF03F0030E0764B6EF01F0DD
:10035E00075E08380F0B086E074E43EF02F0D89079
:10036E000832074E43EF02F0D8900832074E43EFA3
:10037E0002F0D890083243EF02F0030E0764D5EF77
:10038E0001F0075E08380F0B086E0038F00B0826D8
:10039E0000380F0B006E074E43EF02F0D89000327C
:1003AE000832074E43EF02F0D89000320832074E63
:1003BE0043EF02F0D8900032083243EF02F0030E02
:1003CE000764FDEF01F0075E08380F0B086E00386A
:1003DE00F00B082600380F0B006E0138F00B0026CC
:1003EE0001380F0B016E074E43EF02F0D890013229
:1003FE0000320832074E43EF02F0D890013200323D
:10040E000832074E43EF02F0D89001320032083224
:10041E0043EF02F0030E07642EEF02F0075E08387A
:10042E000F0B086E0038F00B082600380F0B006E0D
:10043E000138F00B002601380F0B016E0238F00B5D
:10044E00012602380F0B026E074E43EF02F0D890D2
:10045E000232013200320832074E43EF02F0D890DA
:10046E000232013200320832074E43EF02F0D890CA
:10047E000232013200320832096A000E0EAE37EF38
:10048E0003F0081E001E011E021E082A0022012271
:10049E00022237EF03F00750D8A458EF02F06CEFAA
:1004AE0003F0096A02C00AF0028E068E0750035C42
:1004BE00076ED8B42AEF03F0070E0764F8EF02F0C8
:1004CE00075E0450096E0550046E0650056E066AEE
:1004DE00074E2AEF03F0070E0764CDEF02F0075E1A
:1004EE000450096E0550046E056A074E2AEF03F09C
:1004FE00070E0764ABEF02F0075E0450096E046A44
:10050E00074E2AEF03F0070E076492EF02F00AC0BF
:10051E0002F06CEF03F0030E07649DEF02F0075E2E
:10052E0009380F0B096E074E2AEF03F0D8900932E7
:10053E00074E2AEF03F0D8900932074E2AEF03F048
:10054E00D89009322AEF03F0030E0764BCEF02F0D5
:10055E00075E09380F0B096E0438F00B09260438B4
:10056E000F0B046E074E2AEF03F0D89004320932B7
:10057E00074E2AEF03F0D89004320932074E2AEFC5
:10058E0003F0D890043209322AEF03F0030E076409
:10059E00E4EF02F0075E09380F0B096E0438F00B1A
:1005AE00092604380F0B046E0538F00B04260538A7
:1005BE000F0B056E074E2AEF03F0D890053204326A
:1005CE000932074E2AEF03F0D89005320432093271
:1005DE00074E2AEF03F0D8900532043209322AEF83
:1005EE0003F0030E076415EF03F0075E09380F0BD7
:1005FE00096E0438F00B092604380F0B046E05380B
:10060E00F00B042605380F0B056E0638F00B052689
:10061E0006380F0B066E074E2AEF03F0D8900632FF
:10062E00053204320932074E2AEF03F0D890063213
:10063E00053204320932074E2AEF03F0D890063203
:10064E00053204320932086A000E0EAE37EF03F09F
:10065E00091E041E051E061E092A04220522062254
:10066E00095008260450002205500122065002228D
:10067E000EBE4EEF03F0D8A05DEF03F00232013252
:10068E0000320832033E5DEF03F067EF03F0D8B09F
:10069E0062EF03F0000E081E001E011E021E082A45
:1006AE000022012202220A7E62EF03F0010E0C6E7E
:1006BE000EDD6EEF03F0020E0C6E09DD6EEF03F031
:1006CE00040E0C6EE0DC6EEF03F0000E0C6E1200EA
:1006DE000D6A086A0050D8B4000C04180A6E0ABEDF
:1006EE000D1E0B6A04AE02D0041E042A00AE02D008
:1006FE00001E002A005004100A6E0ABE1FD00450BD
:10070E00085E003600340836045008260036060E01
:10071E000C6E00340836045000B0085E00A00826A7
:10072E0000360C2EF6D700A008260BB015D00DAE55
:10073E00000C001E002A081E082A000C04AE09D068
:10074E0000BE04D00050086E006AF1D7006A002A7D
:10075E00000C001E0B2AD3D7082A0450085CD8A41C
:0E076E00E6D7086A002A00AEE2D7FF0C1200A0
:10077C000134083609360450085E0550D8A0053CF3
:10078C00095E003601360F0E0C6E01340836093640
:10079C00045000A006D0085E0550D8A0053C095EA8
:1007AC0005D008260550D8B0053C09260036013680
:1007BC000C2EEBD700B006D0045008260550D8B04C
:0807CC00053C092600001200A3
:1007D400086A096A000E076203646FEF04F00250AE
:1007E40006180A6E075003267E0ED8A000EF04F008
:1007F400035ED8B074EF04F004EF04F0035ED8A0F5
:1008040079EF04F0028E068E02C00EF001C00BF0E8
:1008140000C00DF000500402F4CF0CF001500502AA
:10082400F4CF00F0F3CF08F00402F3500C26F45098
:100834000822000E00220D500502F3500C26F4503D
:100844000822000E002202500402F3500826F4503D
:10085400002202500502016A000E0122F350002614
:10086400F45001220D500602F3500826F4500022E1
:10087400026A000E012202220B500602F3500026E7
:10088400F4500122000E02220E500602F3500126FB
:10089400F450022202BE57EF04F008360036013647
:1008A40002360306D8B479EF04F06AEF04F0D88076
:1008B400800E08640030000E002201220222D8A01B
:1008C4006AEF04F0023201320032034A74EF04F09A
:1008D4000AAE029E000E7CEF04F0010E56EC00F00E
:1008E4007CEF04F0020E4AEC00F07CEF04F0040EFE
:0608F40061EC00F01200AF
:1008FA000B800BAE89EF04F0026A0AAEFF0E026E9D
:0C090A00016E006E0A360232FF0E120071
:080916000B6A0B86FF0E1200B4
:10091E00F0C3C9FFC7B002D00000FCD7C9CF00F0AA
:02092E001200B5
:10093000086A080E0C6E003408360450085ED8B001
:0E09400002D00826D89000360C2EF5D71200F3
:0E094E00ACB202D00000FCD7F0C3ADFF120027
:10095C0003500718D8A4C2EF04F002500618D8A40C
:10096C00C2EF04F001500518D8A4C2EF04F00050F7
:0E097C000418D8B4D8841200D89412001200C7
:0C098A000000000000000000000012004F
:100996000450000A08E10550000A05E1FF0E006E4A
:1009A6007F0E016E57D00D6A096A086A0150001061
:1009B600D8B4000C015005180A6E0ABE0D1E0B6A4B
:1009C60005AE05D0041E051E042AD8B4052A01AEBC
:1009D60005D0001E011E002AD8B4012A01500510B8
:1009E6000A6E0ABE10D0C7DE0BB020D00DAE000CCA
:1009F600001E011E002AD8B4012A081E091E082A54
:100A0600D8B4092A000C05AE0DD001BE07D001509E
:100A1600096E0050086E016A006AE8D7016A006A2A
:100A2600002A000C011E001E0B2ADDD7082AD8B4A6
:100A3600092A0450085CD8A4D9D70550095CD8A463
:100A4600D5D7096A086A002AD8B4012A01AECED7DA
:060A56000000FF0C12007D
:100A5C00240E0C6EB50E0D6E0D2EFED70C2EFCD783
:060A6C0000000000120072
:100A72000B6A0A6A096A00500402F4CF09F0F3CF44
:100A820008F001500502F4CF0BF0F3CF0AF000504A
:100A92000502F3500926F4500A22E86A0B2201509B
:100AA2000402F3500926F4500A22E86A0B2208C015
:100AB20000F009C001F00AC002F00BC003F01200FE
:100AC200F250026EF29E0500FF6A0150FE6E005067
:080AD200FD6E02BEF28E12005F
:0A0ADA00530E0D6E0D2EFED7120014
:100AE4000A6A0350D8A40A800750D8A40A820A507C
:100AF400D8B4D5EF05F0030AD8B48EEF05F00AB0E8
:100B040089EF05F006AED3EF05F0D1EF05F002AEA4
:100B1400D1EF05F0D3EF05F00250800B0A6E029E70
:100B24000650800B069E0A18D8B49FEF05F00A50B1
:100B3400D8B4D1EF05F0D3EF05F00750035CD8B477
:100B4400A9EF05F0D8A0C5EF05F0CBEF05F00650EE
:100B5400025CD8B4B3EF05F0D8A0C5EF05F0CBEF35
:100B640005F00550015CD8B4BDEF05F0D8A0C5EF81
:100B740005F0CBEF05F00450005CD8B4D5EF05F0D8
:100B8400D8B0CBEF05F00A52D8B4D3EF05F0D1EFCB
:100B940005F00A52D8B4D1EF05F0D3EF05F0D880B0
:0E0BA4001200D8901200D880D88412001200DF
:100BB2000B6A0A6A096A086A0E6A03340836045024
:100BC200085E0550D8A0053C095E0650D8A0063C38
:100BD2000A5E0750D8A0073C0B5EE86AD8A0010E57
:100BE2000E5E0336070E0C6E0334083609360A36DB
:100BF2000B360E36045003A012D0085E0550D8A062
:100C0200053C095E0650D8A0063C0A5E0750D8A0F3
:100C1200073C0B5EE86AD8A0010E0E5E11D00826D2
:100C22000550D8B0053C09260650D8B0063C0A2625
:100C32000750D8B0073C0B26E86AD8B0010E0E2642
:100C420003360C2ED1D70234083609360A360B3653
:100C52000E36045003A012D0085E0550D8A0053C01
:100C6200095E0650D8A0063C0A5E0750D8A0073C91
:100C72000B5EE86AD8A0010E0E5E11D00826055060
:100C8200D8B0053C09260650D8B0063C0A260750C3
:100C9200D8B0073C0B26E86AD8B0010E0E26023601
:100CA200070E0C6E0234083609360A360B360E363B
:100CB200045002A012D0085E0550D8A0053C095E7F
:100CC2000650D8A0063C0A5E0750D8A0073C0B5E2F
:100CD200E86AD8A0010E0E5E11D008260550D8B0E1
:100CE200053C09260650D8B0063C0A260750D8B063
:100CF200073C0B26E86AD8B0010E0E2602360C2EEF
:100D0200D1D70134083609360A360B360E3604506E
:100D120002A012D0085E0550D8A0053C095E06501C
:100D2200D8A0063C0A5E0750D8A0073C0B5EE86AD2
:100D3200D8A0010E0E5E11D008260550D8B0053C91
:100D420009260650D8B0063C0A260750D8B0073C00
:100D52000B26E86AD8B0010E0E260136070E0C6E7D
:100D62000134083609360A360B360E36045001A015
:100D720012D0085E0550D8A0053C095E0650D8A0E6
:100D8200063C0A5E0750D8A0073C0B5EE86AD8A072
:100D9200010E0E5E11D008260550D8B0053C09267A
:100DA2000650D8B0063C0A260750D8B0073C0B269E
:100DB200E86AD8B0010E0E2601360C2ED1D70034C7
:100DC200083609360A360B360E36045001A012D008
:100DD200085E0550D8A0053C095E0650D8A0063C26
:100DE2000A5E0750D8A0073C0B5EE86AD8A0010E45
:100DF2000E5E11D008260550D8B0053C09260650D3
:100E0200D8B0063C0A260750D8B0073C0B26E86A41
:100E1200D8B0010E0E260036070E0C6E00340836CE
:100E220009360A360B360E36045000A012D0085E80
:100E32000550D8A0053C095E0650D8A0063C0A5EC3
:100E42000750D8A0073C0B5EE86AD8A0010E0E5EE0
:100E520011D008260550D8B0053C09260650D8B056
:100E6200063C0A260750D8B0073C0B26E86AD8B0E1
:100E7200010E0E2600360C2ED1D700B00ED0045033
:100E820008260550D8B0053C09260650D8B0063CC5
:0C0E92000A260750D8B0073C0B261200BF
:100E9E000B6A0C6A086A0350D8B4D3EF07F002C08D
:100EAE000AF0028E9E0E035E03AEC3EF07F0036CD4
:100EBE00080E035CD8A090EF07F0036E083600C052
:100ECE0008F001C000F002C001F0026A080E035CD7
:100EDE00D8A090EF07F0036E083600C008F001C0EE
:100EEE0000F0016A080E035CD8A090EF07F0036EC5
:100EFE00083600C008F0006A080E035CD8A090EF18
:100F0E0007F0036E0836086A0350D8A4D8909CEFF9
:100F1E0007F00350D8B49CEF07F0D890023201329C
:100F2E0000320832032E94EF07F00BBC08A0ADEF91
:100F3E0007F0D8A0ADEF07F0082AD8B4002AD8B42D
:100F4E00012AD8B4022A02BED7EF07F00AAED3EFB9
:100F5E0007F0021E011E001E081E082AD8B4002A21
:100F6E00D8B4012AD8B4022AD3EF07F0026A016A74
:100F7E00006A086AD3EF07F00B800BAEDDEF07F0C7
:100F8E00026A0AAEDDEF07F0026E016E006E086EA9
:100F9E000A360232DDEF07F00C6A000EDEEF07F0C4
:100FAE00010E0C6E000EA2DCDEEF07F0FF0E0250FB
:100FBE00036E0150026E0050016E0850006E12005A
:100FCE006E0E0301EB5DD8A0C6D0640E046EEBC3AB
:100FDE0000F0A7DC120E0024056E066A000E062233
:100FEE0005C000F006C001F0000E06BEFF0E026E38
:100FFE00036E00360090013602360336003600903E
:10100E00013602360336CF0E0024F66E470E01204F
:10101E00F76E000E0220F86E0900F5CF00F0090001
:10102E00F5CF01F00900F5CF02F00900F5CF03F07E
:10103E00000E046E000E056E000E066E7E0E076E1E
:10104E00EAEC03F000C0ECF301C0EDF302C0EEF3E6
:10105E0003C0EFF3640E046EEBC300F062DC08C055
:10106E0000F00A0E046E5DDC090E0024056E066AA1
:10107E00000E062205C000F006C001F0000E06BEEE
:10108E00FF0E026E036E00360090013602360336F6
:10109E0000360090013602360336CF0E0024F66E6F
:1010AE00470E0120F76E000E0220F86E0900F5CFF4
:1010BE0000F00900F5CF01F00900F5CF02F00900AC
:1010CE00F5CF03F0ECC304F0EDC305F0EEC306F06C
:1010DE00EFC307F0EAEC03F000C0ECF301C0EDF350
:1010EE0002C0EEF303C0EFF30A0E046EEBC300F082
:1010FE0018DC08C000F000C001F0000E026E036E96
:10110E00046E013601900236033604360136019024
:10111E00023603360436CF0E0124F66E470E022039
:10112E00F76E000E0320F86E0900F5CF00F00900EF
:10113E00F5CF01F00900F5CF02F00900F5CF03F06D
:10114E00ECC304F0EDC305F0EEC306F0EFC307F0F9
:10115E00EAEC03F0B1D0EB510A08D8B07ED00A0EFB
:10116E00046EEBC300F098EC04F0090E0024056E3B
:10117E00066A000E062205C000F006C001F0000E41
:10118E0006BEFF0E026E036E00360090013602366A
:10119E00033600360090013602360336CF0E002499
:1011AE00F66E470E0120F76E000E0220F86E090053
:1011BE00F5CF00F00900F5CF01F00900F5CF02F0F0
:1011CE000900F5CF03F0000E046E000E056E000E42
:1011DE00066E7E0E076EEAEC03F000C0ECF301C063
:1011EE00EDF302C0EEF303C0EFF30A0E046EEBC391
:1011FE0000F098EC04F008C000F000C001F0000E02
:10120E00026E036E046E013601900236033604360A
:10121E0001360190023603360436CF0E0124F66EE7
:10122E00470E0220F76E000E0320F86E0900F5CF70
:10123E0000F00900F5CF01F00900F5CF02F009002A
:10124E00F5CF03F0ECC304F0EDC305F0EEC306F0EA
:10125E00EFC307F0EAEC03F02FD0EBC300F0000E63
:10126E00016E026E036E00360090013602360336B2
:10127E0000360090013602360336CF0E0024F66E8D
:10128E00470E0120F76E000E0220F86E0900F5CF12
:10129E0000F00900F5CF01F00900F5CF02F00900CA
:1012AE00F5CF03F0000E046E000E056E000E066EF6
:0A12BE007E0E076EEAEC03F012004A
:0812C800067E5FEC01F012004C
:1012D0000450000A12E10550000A0FE10650000A0E
:1012E0000CE10750000A09E1FF0E006EFF0E016ECF
:1012F0007F0E026EFF0E036EA8D0086A096A0750BF
:10130000D8B413EF0AF00350D8B418EF0AF0025023
:1013100006180A6E028E068E0E6A02C008F001C020
:101320000CF000C00DF004500D5E0550D8A0053C37
:101330000C5E0650D8A0063C085E086A0C6A0D6A6E
:10134000D8A0AAEF09F0D890023201320032083258
:10135000010E0E6E0750035ED8A0B7EF09F07E0EA7
:101360000E240326D8B01DEF0AF0BDEF09F07E0E63
:101370000E240326D8A022EF0AF0180E0B6E0D36AD
:101380000C3608360036013602360E360450005E42
:101390000550D8A0053C015E0650D8A0063C025E70
:1013A00006340E120EA0D8EF09F00D80E3EF09F01D
:1013B000045000260550D8B0053C01260650D8B090
:1013C000062802260D900B2EBFEF09F009EF0AF058
:1013D000D8900036013602360E360450005E0550B5
:1013E000D8A0053C015E0650D8A0063C025E06343B
:1013F0000E10010B0D26D8B00C2AD8B4082AD8A498
:1014000009EF0AF008320C320D32032AD8B41DEF6E
:101410000AF00AAE089E0850026E0C50016E0D5084
:10142000006E25EF0AF0010E8BEC04F025EF0AF0B8
:10143000020E56EC00F025EF0AF0040E4AEC00F024
:0C14400025EF0AF0080E61EC00F012002D
:10144C00800E0301EB19006E800E000A005CD8B010
:10145C006DD1EB510008016E01C0EBF3800E011849
:10146C00006E800E6E0A005CD8A0C0D0640E046EB4
:10147C00EBC300F06FEC03F0120E0024056E000EAF
:10148C0000BEFF0E066E000E062205C000F006C060
:10149C0001F0000E06BEFF0E026E036E00360090C9
:1014AC00013602360336003600900136023603361A
:1014BC00CF0E0024F66E470E0120F76E000E0220B0
:1014CC00F86E0900F5CFECF30900F5CFEDF3090048
:1014DC00F5CFEEF30900F5CFEFF3640E046EEBC31A
:1014EC0000F06FEC03F008C000F00A0E046E6FEC15
:1014FC0003F0090E0024056E000E00BEFF0E066EF2
:10150C00000E062205C000F006C001F0000E06BE5B
:10151C00FF0E026E036E0036009001360236033663
:10152C0000360090013602360336CF0E0024F66EDC
:10153C00470E0120F76E000E0220F86E0900F5CF61
:10154C0000F00900F5CF01F00900F5CF02F0090019
:10155C00F5CF03F0ECC304F0EDC305F0EEC306F0D9
:10156C00EFC307F0EAEC03F000C0ECF301C0EDF3BD
:10157C0002C0EEF303C0EFF30A0E046EEBC300F0EF
:10158C006FEC03F008C000F000C001F0000E00BECC
:10159C00FF0E026E036E046E0136019002360336A6
:1015AC00043601360190023603360436CF0E012480
:1015BC00F66E470E0220F76E000E0320F86E09003F
:1015CC00F5CF00F00900F5CF01F00900F5CF02F0DE
:1015DC000900F5CF03F0ECC304F0EDC305F0EEC346
:1015EC0006F0EFC307F0EAEC03F007D2800E0A0A0C
:1015FC00006E800EEB19005C71E20A0E046EEBC3F8
:10160C0000F06FEC03F0090E0024056E000E00BE16
:10161C00FF0E066E000E062205C000F006C001F09B
:10162C00000E06BEFF0E026E036E003600900136F1
:10163C000236033600360090013602360336CF0EE2
:10164C000024F66E470E0120F76E000E0220F86E95
:10165C000900F5CFECF30900F5CFEDF30900F5CF58
:10166C00EEF30900F5CFEFF30A0E046EEBC300F0B6
:10167C006FEC03F008C000F000C001F0000E00BEDB
:10168C00FF0E026E036E046E0136019002360336B5
:10169C00043601360190023603360436CF0E01248F
:1016AC00F66E470E0220F76E000E0320F86E09004E
:1016BC00F5CF00F00900F5CF01F00900F5CF02F0ED
:1016CC000900F5CF03F0ECC304F0EDC305F0EEC355
:1016DC0006F0EFC307F0EAEC03F08FD1EBC300F098
:1016EC00000EEBBFFF0E016E026E036E0036009013
:1016FC0001360236033600360090013602360336C8
:10170C00CF0E0024F66E470E0120F76E000E02205D
:10171C00F86E0900F5CF00F00900F5CF01F00900D3
:10172C00F5CF02F00900F5CF03F067D1800EEB196D
:10173C00006E800E6E0A005CD8A0C0D0640E046EE1
:10174C00EBC300F06FEC03F0120E0024056E000EDC
:10175C0000BEFF0E066E000E062205C000F006C08D
:10176C0001F0000E06BEFF0E026E036E00360090F6
:10177C000136023603360036009001360236033647
:10178C00030E0024F66E480E0120F76E000E0220A8
:10179C00F86E0900F5CFECF30900F5CFEDF3090075
:1017AC00F5CFEEF30900F5CFEFF3640E046EEBC347
:1017BC0000F06FEC03F008C000F00A0E046E6FEC42
:1017CC0003F0090E0024056E000E00BEFF0E066E1F
:1017DC00000E062205C000F006C001F0000E06BE89
:1017EC00FF0E026E036E0036009001360236033691
:1017FC0000360090013602360336030E0024F66ED6
:10180C00480E0120F76E000E0220F86E0900F5CF8D
:10181C0000F00900F5CF01F00900F5CF02F0090046
:10182C00F5CF03F0ECC304F0EDC305F0EEC306F006
:10183C00EFC307F0EAEC03F000C0ECF301C0EDF3EA
:10184C0002C0EEF303C0EFF30A0E046EEBC300F01C
:10185C006FEC03F008C000F000C001F0000E00BEF9
:10186C00FF0E026E036E046E0136019002360336D3
:10187C00043601360190023603360436030E012479
:10188C00F66E480E0220F76E000E0320F86E09006B
:10189C00F5CF00F00900F5CF01F00900F5CF02F00B
:1018AC000900F5CF03F0ECC304F0EDC305F0EEC373
:1018BC0006F0EFC307F0EAEC03F09FD0800E0A0AA3
:1018CC00006E800EEB19005C71E20A0E046EEBC325
:1018DC0000F06FEC03F0090E0024056E000E00BE44
:1018EC00FF0E066E000E062205C000F006C001F0C9
:1018FC00000E06BEFF0E026E036E0036009001361F
:10190C000236033600360090013602360336030EDB
:10191C000024F66E480E0120F76E000E0220F86EC1
:10192C000900F5CFECF30900F5CFEDF30900F5CF85
:10193C00EEF30900F5CFEFF30A0E046EEBC300F0E3
:10194C006FEC03F008C000F000C001F0000E00BE08
:10195C00FF0E026E036E046E0136019002360336E2
:10196C00043601360190023603360436030E012488
:10197C00F66E480E0220F76E000E0320F86E09007A
:10198C00F5CF00F00900F5CF01F00900F5CF02F01A
:10199C000900F5CF03F0ECC304F0EDC305F0EEC382
:1019AC0006F0EFC307F0EAEC03F027D0EBC300F02E
:1019BC00000EEBBFFF0E016E026E036E0036009040
:1019CC0001360236033600360090013602360336F5
:1019DC00030E0024F66E480E0120F76E000E022056
:1019EC00F86E0900F5CF00F00900F5CF01F0090001
:0C19FC00F5CF02F00900F5CF03F0120057
:101A08000050086E0150006E0250016E0350026EC5
:101A1800036A0B6A0C6A9E0E036E0A6A020E0C6E4B
:061A28006EEC00F012005C
:101A2E000B6A0C6A0A6A086A0350D8B49FEF0DF06D
:101A3E00028E9E0E035E03BE2AEF0DF0D8B42AEF7F
:101A4E000DF08FEF0DF0036C080E035CD8A05CEF69
:101A5E000DF0036E083600C008F001C000F002C0A1
:101A6E0001F0026A080E035CD8A05CEF0DF0036E65
:101A7E00083600C008F001C000F0016A080E035CD1
:101A8E00D8A05CEF0DF0036E083600C008F0006AB7
:101A9E00080E035CD8A05CEF0DF0036E0836086AE2
:101AAE000350D8A4D89068EF0DF00350D8B468EF67
:101ABE000DF0D8900232013200320832032E60EF60
:101ACE000DF00BBC08A079EF0DF0D8A079EF0DF05A
:101ADE00082AD8B4002AD8B4012AD8B4022A02BEE1
:101AEE00A3EF0DF00AAE9FEF0DF0021E011E001EB9
:101AFE00081E082AD8B4002AD8B4012AD8B4022A5B
:101B0E009FEF0DF0026A016A006A086A9FEF0DF0FE
:101B1E000B800BAEA9EF0DF0026A0AAEA9EF0DF025
:101B2E00026E016E006E086E0A360232A9EF0DF0DB
:101B3E00000E0C6AAAEF0DF0010E0C6E7DEC04F097
:101B4E00AAEF0DF0FF0E0250036E0150026E005010
:081B5E00016E0850006E120038
:101B66000301EB51390806E3300EEB5D03E3010E8A
:081B7600006E01D0006A1200AC
:101B7E007AC3E1FF7BC3E2FFC3C3E6FF78C300F085
:0A1B8E0079C301F061EC05F01200CC
:101B9800C3C302F0C4C303F002C000F003C001F0E5
:101BA800024A032A00C0E9FF01C0EAFFEE5201E041
:101BB800F3D70301C351025C006EC4510358016E90
:0A1BC800010E005E000E015A12002B
:101BD2000301C3BF02D0819E01D0818EC3BD02D05A
:101BE200819C01D0818CC3BB02D0819401D08184BD
:101BF200C3B902D0819601D0818696B102D0818A82
:101C020001D0819A8188C5EC04F08198C3B702D0D3
:101C1200819E01D0818EC3B502D0819C01D0818C7E
:101C2200C3B302D0819401D08184C3B102D0819622
:101C320001D0818696B102D0818A01D0819A8188B1
:101C4200C5EC04F0819896A103D02EEC05F002D0E9
:061C52006DEC05F012002C
:101C5800C3C3E9FFC4C3EAFFEE500301C51905E198
:101C6800C3C300F0C4C301F010D0C3C300F0C4C3A1
:101C780001F0C34BC42B00C0E9FF01C0EAFFEECF5F
:0C1C880000F00052E5E1006A016A120061
:101C9400C7C300F00301C707005228E0C3C3E9FF2C
:101CA400C4C3EAFFEE50000A0CE0C3C3E9FFC4C397
:101CB400EAFFC5C3D9FFC6C3DAFFEE50DE1801E15F
:101CC4000FD0C3C3E9FFC4C3EAFFC5C3D9FFC6C36A
:101CD400DAFFDE50EE5C006E016A000E015A08D095
:101CE4000301C34BC42BC54BC62BD2D7006A016A70
:021CF4001200DC
:101CF6000301E36BE46BD76BD86BC5C300F0C6C3B7
:101D060001F0C7C302F0010EC527000EC623C72384
:101D160000C0F6FF01C0F7FF02C0F8FF0900F5CFCB
:101D260000F000C0D4F30052D8B486EF1EF0D451B0
:101D3600250A0BE0C3C3E1FFC4C3E2FFD4C3E6FF39
:101D4600C34BC42BE34BE42BD8D7D56BD66BD76BE1
:101D5600D86B23D0D787010EC527000EC623C7230D
:101D660059D0D781010EC527000EC623C72352D0EE
:101D7600D783010EC527000EC623C7234BD0D887AD
:101D8600010EC527000EC623C72344D0D785010EF2
:101D9600C527000EC623C7233DD0C5C3F6FFC6C35D
:101DA600F7FFC7C3F8FF0900F5CF01F001502D0A70
:101DB600D1E0C5C3F6FFC6C3F7FFC7C3F8FF0900E6
:101DC600F5CF01F00150200ACCE0C5C3F6FFC6C32B
:101DD600F7FFC7C3F8FF0900F5CF01F001502B0A42
:101DE600C7E0C5C3F6FFC6C3F7FFC7C3F8FF0900C0
:101DF600F5CF01F00150230AC2E0C5C3F6FFC6C302
:101E0600F7FFC7C3F8FF0900F5CF01F00150300A0C
:101E1600BDE001D09ED7D7A301D0D791D7A701D0D7
:101E2600D795C5C3F6FFC6C3F7FFC7C3F8FF0900BA
:101E3600F5CF00F0000E016E00C0EBF391DE00520C
:101E460035E0D56BD66BD5C300F0D6C301F00A0ECC
:101E5600046E000E056E39EC05F0C5C3F6FFC6C369
:101E6600F7FFC7C3F8FF0900F5CF02F002500024C0
:101E7600D56F000E0120D66F300ED55F000ED65BF3
:101E8600010EC527000EC623C723C5C3F6FFC6C36A
:101E9600F7FFC7C3F8FF0900F5CF00F0000E016E8B
:101EA60000C0EBF35DDE0052CEE133D0C5C3F6FFD2
:101EB600C6C3F7FFC7C3F8FF0900F5CF01F001500D
:101EC6002A0A27E1C8C3E9FFC9C3EAFFEECF00F03B
:101ED600EECF01F000C0E9FF01C0EAFFEECFD5F377
:101EE600EECFD6F3C8C3E9FFC9C3EAFF020EEE245C
:101EF600006E000EEE20016EC8C3E1FFC9C3E2FF0B
:101F060000C0E6FF01C0E6FF010EC527000EC6238E
:101F1600C723C5C3F6FFC6C3F7FFC7C3F8FF09004B
:101F2600F5CF01F001502E0A6FE1010EC527000E14
:101F3600C623C723C5C3F6FFC6C3F7FFC7C3F8FF4B
:101F46000900F5CF01F001502A0A28E1C8C3E9FFCC
:101F5600C9C3EAFFEECF00F0EECF01F000C0E9FF03
:101F660001C0EAFFEECFD2F3EECFD3F3C8C3E9FF49
:101F7600C9C3EAFF020EEE24006E000EEE20016ECB
:101F8600C8C3E1FFC9C3E2FF00C0E6FF01C0E6FF28
:101F9600010EC527000EC623C72335D0D26BD36BDF
:101FA600C5C3F6FFC6C3F7FFC7C3F8FF0900F5CFE1
:101FB60000F0000E016E00C0EBF3D2DD005223E00C
:101FC600D2C300F0D3C301F00A0E046E000E056EF4
:101FD60039EC05F0C5C3F6FFC6C3F7FFC7C3F8FF64
:101FE6000900F5CF02F002500024D26F000E012046
:101FF600D36F300ED25F000ED35B010EC527000EE5
:10200600C623C723CDD703D0D26BD36BD889C5C31C
:1020160000F0C6C301F0C7C302F0010EC527000ECB
:10202600C623C72300C0F6FF01C0F7FF02C0F8FFB2
:102036000900F5CFD4F3F9D0E3C300F0E4C301F00F
:102046008AEF1EF0D789E3D7D8852ED1D78BD881D2
:102056002BD1D88329D1D78D27D126D1D78BD78F0E
:1020660023D1C8C3E9FFC9C3EAFFEECF00F0EECF24
:1020760001F000C0E9FF01C0EAFFEECFDFF3EECFCB
:10208600E0F3C8C3E9FFC9C3EAFF020EEE24006EFF
:10209600000EEE20016EC8C3E1FFC9C3E2FF00C017
:1020A600E6FF01C0E6FF000EE01902E1000EDF19AF
:1020B60004E1440EDF6F000EE06FE16BE26BE1516D
:1020C600DF25E96EE251E021EA6EEE520BE0010EE9
:1020D600E125006E000EE221016E00C0E1F301C0B1
:1020E600E2F3EDD7D251D3110AE0E251D35D02E11A
:1020F600E151D25D04E2D2C3E1F3D3C3E2F3D65198
:10210600E25D02E1D551E15D05E2E151D55FE251C3
:10211600D65B02D0D56BD66BD7B716D0D5C300F039
:10212600D6C301F0010ED55F000ED65B005001103C
:102136000BE0C3C3E1FFC4C3E2FF200EE66EC34B50
:10214600C42BE34BE42BEAD7E1C302F0E2C303F06E
:10215600010EE15D006E000EE259016E00C0E1F372
:1021660001C0E2F30250031019E0DFC3E9FFE0C348
:10217600EAFFC3C3E1FFC4C3E2FFEECFE6FFC34BF2
:10218600C42B010EDF25006E000EE021016E00C09B
:10219600DFF301C0E0F3E34BE42BD6D7D7A716D085
:1021A600D5C300F0D6C301F0010ED55F000ED65B95
:1021B600005001100BE0C3C3E1FFC4C3E2FF200ED1
:1021C600E66EC34BC42BE34BE42BEAD796D5C8C3C4
:1021D600E9FFC9C3EAFFEECF00F0EECF01F000C081
:1021E600E9FF01C0EAFFEECFD4F3C8C3E9FFC9C3D4
:1021F600EAFF020EEE24006E000EEE20016EC8C34A
:10220600E1FFC9C3E2FF00C0E6FF01C0E6FFD40E4E
:10221600DF6F030EE06F010EE16F000EE26F62D713
:10222600C00ED713000ED8133FD0D451000AD8B42D
:1022360003D7D4516C0AD8B405D7D4514C0AD8B4B4
:1022460001D7D451660AD8B4FFD6D451450AD8B4BA
:10225600FDD6D451650AD8B4FAD6D451670AD8B493
:10226600F8D6D4516F0AD8B4F6D6D451640AD8B485
:10227600F4D6D451690AD8B4F0D6D451700AD8B479
:10228600EDD6D451580AD8B4E9D6D451780AD8B480
:10229600E6D6D451730AD8B4E4D6D451630A97E08B
:1022A600D451750ABDE0B3D7000ED715006ED851CC
:1022B600070B016E00500110D8B42DEF1AF0D8A903
:1022C60004D0060ED26F000ED36FC8C3E9FFC9C390
:1022D600EAFFEECF00F0EECF01F000C0E9FF01C04B
:1022E600EAFFEECFD9F3EECFDAF3EECFDBF3EECFA4
:1022F600DCF3C8C3E9FFC9C3EAFF040EEE24006E8F
:10230600000EEE20016EC8C3E1FFC9C3E2FF00C0A4
:10231600E6FF01C0E6FF046A056A066A076AD9C3D2
:1023260000F0DAC301F0DBC302F0DCC303F072ECA9
:1023360005F0010ED8B0000E006E005205E0DB7FFE
:10234600030ED713000ED813DD6BDE6BD9C300F076
:10235600DAC301F0DBC302F0DCC303F0046A056AEA
:10236600066A076AAEEC04F0000ED8A4010E006EF1
:102376000052D8B48AD0DCC300F0016A026A036A4C
:10238600FF0E0016000E01167E0E005E000E015AAC
:1023960000C0DDF301C0DEF3010E005E000E015A3F
:1023A60000C0DDF301C0DEF3030E046E000E056E01
:1023B60039EC05F000C0DDF301C0DEF30A0E046E51
:1023C600000E056ECBEC04F000C0DDF301C0DEF3B9
:1023D600800E0118026E800E025C02E1000E005CA7
:1023E60005E2010E0301DD5F000EDE5B0301DD5138
:1023F6000008EB6F26EC0AF0D9C304F0DAC305F047
:10240600DBC306F0DCC307F0EAEC03F000C0DFF341
:1024160001C0E0F302C0E1F303C0E2F3000E046E74
:10242600000E056E000E066E7F0E076EDFC300F00F
:10243600E0C301F0E1C302F0E2C303F072EC05F081
:10244600010ED8B0000E006E005205E0010EDD5FF1
:10245600000EDE5B1AD0000E046E000E056E200E16
:10246600066E820E076EDFC300F0E0C301F0E1C323
:1024760002F0E2C303F072EC05F0000ED8B0010ED4
:10248600006E005202E0DD4BDE2B800E006E800EE9
:10249600DE19005C02E1DD51000803E3010ED46F92
:1024A60002D0DDC3D4F3D8B118D0D8A315D0800E8E
:1024B600DE19006E7F0E005C02E1FC0EDD5D0BE3B3
:1024C600800EDE19006E800ED319005C02E1D25137
:1024D600DD5D01E201D001D0EFD3D251D31106E088
:1024E600D8A304D0010ED25F000ED35BD3510008EF
:1024F60002E1D251080803E2080ED46F02D0D2C31B
:10250600D4F3D9C300F0DAC301F0DBC302F0DCC3B5
:1025160003F0046A056A066A076AAEEC04F0000E68
:10252600D8A4010E006E0052D8B44BD1DDC3EBF334
:1025360026EC0AF000C004F001C005F002C006F067
:1025460003C007F0D9C300F0DAC301F0DBC302F021
:10255600DCC303F068EC09F000C0D9F301C0DAF37C
:1025660002C0DBF303C0DCF30301D4510008EB6FB8
:1025760026EC0AF000C004F001C005F002C006F027
:1025860003C007F0D9C300F0DAC301F0DBC302F0E1
:10259600DCC303F068EC09F000C0E5F301C0E6F324
:1025A60002C0E7F303C0E8F3E5C3D9F3E6C3DAF301
:1025B600E7C3DBF3E8C3DCF3E5C300F0E6C301F0F1
:1025C600E7C302F0E8C303F017EC0DF004EC0DF0DE
:1025D60000C004F001C005F002C006F003C007F019
:1025E600E5C300F0E6C301F0E7C302F0E8C303F079
:1025F60064EC09F0000E046E000E056E000E066E09
:102606007E0E076E72EC05F0000ED8B0010E006E5D
:1026160000521AE0D9C300F0DAC301F0DBC302F0BE
:10262600DCC303F0000E046E000E056E000E066E8F
:102636007E0E076E5FEC01F000C0D9F301C0DAF33D
:1026460002C0DBF303C0DCF3D9C300F0DAC301F048
:10265600DBC302F0DCC303F017EC0DF00301D45129
:10266600010F096E0A6A000E0A2209C004F00AC0A8
:1026760005F0000E0ABEFF0E066E076E04360490C5
:10268600053606360736043604900536063607360E
:10269600670E0424F66E480E0520F76E000E06201F
:1026A600F86E0900F5CF05F00900F5CF06F0090030
:1026B600F5CF07F00900F5CF08F00850035C08E1F4
:1026C6000750025C05E10650015C02E10550005C22
:1026D6001EE30301D9C300F0DAC301F0DBC302F045
:1026E600DCC303F0CD0E046ECC0E056E4C0E066EEA
:1026F6007B0E076EEAEC03F000C0D9F301C0DAF3F3
:1027060002C0DBF303C0DCF3DD4BDE2B5AD0D9C3AA
:1027160000F0DAC301F0DBC302F0DCC303F017EC10
:102726000DF0D4C304F0000E056E066E076E043677
:102736000490053606360736043604900536063606
:102746000736670E0424F66E480E0520F76E000E57
:102756000620F86E0900F5CF05F00900F5CF06F062
:102766000900F5CF07F00900F5CF08F00850035C23
:1027760008E10750025C05E10650015C02E10550E4
:10278600005C1FE20301D9C300F0DAC301F0DBC32A
:1027960002F0DCC303F0000E046E000E056E200E80
:1027A600066E820E076EEAEC03F000C0D9F301C094
:1027B600DAF302C0DBF303C0DCF3010EDD5F000ECB
:1027C600DE5B0301D8A393D0D8B791D0800E000A60
:1027D600006E800ED319005C02E1D2510A0804E2B1
:1027E6000A0ED26F000ED36FD9C300F0DAC301F020
:1027F600DBC302F0DCC303F017EC0DF000C0DFF31F
:1028060001C0E0F302C0E1F303C0E2F3DF51E011DF
:10281600E111E21142E00A0E046E000E056E066E2C
:10282600076EDFC300F0E0C301F0E1C302F0E2C3CC
:1028360003F0D9EC05F008C000F009C001F00AC0A9
:1028460002F00BC003F0000E046E031808E10450FA
:10285600021805E10450011802E10050000A1DE1CA
:10286600010ED25F000ED35B0A0E046E000E056EDB
:10287600066E076EDFC300F0E0C301F0E1C302F0AD
:10288600E2C303F0D9EC05F000C0DFF301C0E0F3CA
:1028960002C0E1F303C0E2F3B9D7800ED319006E8C
:1028A600800E005C02E1D451D25D21E2D251D45DAA
:1028B600EB6F26EC0AF000C004F001C005F002C080
:1028C60006F003C007F0D9C300F0DAC301F0DBC39A
:1028D60002F0DCC303F068EC09F000C0D9F301C0D4
:1028E600DAF302C0DBF303C0DCF3D2C3D4F3050E84
:1028F6000301D225006E000ED321016E0050D55F74
:102906000150D65BD251D31103E1D8B701D004D020
:10291600010ED55F000ED65B030ED715006ED8C329
:1029260001F0000E01160050011004E0010ED55F03
:10293600000ED65BD7A539D0D7A312D0D7A103D026
:102946002D0ECA6F02D02B0ECA6FC3C3E1FFC4C3DC
:10295600E2FFCAC3E6FFC34BC42BE34BE42B0CD008
:10296600D7A10AD0C3C3E1FFC4C3E2FF200EE66EBF
:10297600C34BC42BE34BE42B800E006E800ED6199E
:10298600005C02E1D55100080FE2C3C3E1FFC4C3F6
:10299600E2FF300EE66EC34BC42BE34BE42B010E75
:1029A600D55F000ED65BE8D73AD0D7B718D0800EE1
:1029B600006E800ED619005C02E1D55100080FE2C8
:1029C600C3C3E1FFC4C3E2FF200EE66EC34BC42BB4
:1029D600E34BE42B010ED55F000ED65BE8D7D7A3F9
:1029E60012D0D7A103D02D0ECB6F02D02B0ECB6FFA
:1029F600C3C3E1FFC4C3E2FFCBC3E6FFC34BC42B93
:102A0600E34BE42B0CD0D7A10AD0C3C3E1FFC4C368
:102A1600E2FF200EE66EC34BC42BE34BE42BD9C377
:102A260000F0DAC301F0DBC302F0DCC303F017ECFD
:102A36000DF000C0DFF301C0E0F302C0E1F303C014
:102A4600E2F3D4C300F0000E016E026E036E003690
:102A56000090013602360336003600900136023603
:102A66000336670E0024F66E480E0120F76E000E40
:102A76000220F86E0900F5CF04F00900F5CF05F045
:102A86000900F5CF06F00900F5CF07F0DFC300F027
:102A9600E0C301F0E1C302F0E2C303F0D9EC05F0B4
:102AA600300E0026C3C3E1FFC4C3E2FF00C0E6FF49
:102AB600C34BC42BE34BE42BD251D31103E1D8B75C
:102AC60001D06FD0C3C3E1FFC4C3E2FF2E0EE66E92
:102AD600C34BC42BE34BE42BD451D25F000ED35B24
:102AE600D4534DE0D407D4C300F0000E016E026E3D
:102AF600036E00360090013602360336003600902B
:102B0600013602360336670E0024F66E480E0120A3
:102B1600F76E000E0220F86E0900F5CF04F00900EA
:102B2600F5CF05F00900F5CF06F00900F5CF07F05F
:102B3600DFC300F0E0C301F0E1C302F0E2C303F03B
:102B4600D9EC05F00A0E046E000E056E066E076ED1
:102B5600D9EC05F008C000F009C001F00AC002F087
:102B66000BC003F0300E0026C3C3E1FFC4C3E2FF6F
:102B760000C0E6FFC34BC42BE34BE42BB1D7D251C5
:102B8600D3110FE0C3C3E1FFC4C3E2FF300EE66E0C
:102B9600C34BC42BE34BE42B010ED25F000ED35B79
:102BA600EED7D7AB0BD0C3C3E1FFC4C3E2FF450EDC
:102BB600E66EC34BC42BE34BE42B0AD0C3C3E1FF41
:102BC600C4C3E2FF650EE66EC34BC42BE34BE42B96
:102BD600800EDE19006E800E005C02E1000EDD5DE7
:102BE60011E2DD510008DD6FDE51000EDE57C3C372
:102BF600E1FFC4C3E2FF2D0EE66EC34BC42BE34BCD
:102C0600E42B0AD0C3C3E1FFC4C3E2FF2B0EE66E7A
:102C1600C34BC42BE34BE42B0A0E046E000E056E69
:102C2600DDC300F0DEC301F0CBEC04F0300E00266D
:102C3600C3C3E1FFC4C3E2FF00C0E6FF0301C34B09
:102C4600C42BE34BE42B0A0E046E000E056EDDC3A7
:102C560000F0DEC301F0CBEC04F008C000F009C0C0
:102C660001F0300E0026C3C3E1FFC4C3E2FF00C07B
:102C7600E6FF0301C34BC42BE34BE42BD7A71AD0C3
:102C8600800E006E800ED619005C02E1D551000858
:102C960011E2C3C3E1FFC4C3E2FF200EE66EC34BDD
:102CA600C42BE34BE42B010ED55F000ED65BD5514A
:102CB600D611EFE180EF0EF0D8A3F3D0800EDE1927
:102CC600006E800E005C02E1000EDD5D0AE2010E80
:102CD600DD5D006E000EDE59016E0050D25F0150C0
:102CE600D35BD9C300F0DAC301F0DBC302F0DCC367
:102CF60003F017EC0DF000C0DFF301C0E0F302C0F3
:102D0600E1F303C0E2F3010ED46FD4510A0A34E0B2
:102D1600D4C300F0000E016E026E036E0036009002
:102D26000136023603360036009001360236033687
:102D3600670E0024F66E480E0120F76E000E022084
:102D4600F86E0900F5CF01F00900F5CF02F0090091
:102D5600F5CF03F00900F5CF04F00450E25D08E179
:102D66000350E15D05E10250E05D02E10150DF5DE7
:102D760001E202D0D42BC9D7D451D25DE96F000E3F
:102D8600D359EA6FE9C3D2F3EAC3D3F3DFC300F042
:102D9600E0C301F0E1C302F0E2C303F004EC0DF07E
:102DA60000C004F001C005F002C006F003C007F041
:102DB600D9C300F0DAC301F0DBC302F0DCC303F0D1
:102DC60064EC09F000C0E5F301C0E6F302C0E7F3E6
:102DD60003C0E8F3E9C3EBF326EC0AF0E5C304F01D
:102DE600E6C305F0E7C306F0E8C307F0EAEC03F034
:102DF600000E046E000E056E000E066E7E0E076E49
:102E06005FEC01F017EC0DF000C0DFF301C0E0F35A
:102E160002C0E1F303C0E2F3D251D31142E00A0E3D
:102E2600046E000E056E066E076EDFC300F0E0C38B
:102E360001F0E1C302F0E2C303F0D9EC05F008C0EB
:102E460000F009C001F00AC002F00BC003F0000E4A
:102E5600046E031808E10450021805E10450011835
:102E660002E10050000A1DE10A0E046E000E056E16
:102E7600066E076EDFC300F0E0C301F0E1C302F0A7
:102E8600E2C303F0D9EC05F000C0DFF301C0E0F3C4
:102E960002C0E1F303C0E2F3010ED25F000ED35B82
:102EA600BBD7800E006E800ED319005C02E1D251B2
:102EB6000C0816E3D2C3EBF3E7EC07F0D9C304F032
:102EC600DAC305F0DBC306F0DCC307F05FEC01F004
:102ED60000C0D9F301C0DAF302C0DBF303C0DCF3B0
:102EE600D9C300F0DAC301F0DBC302F0DCC303F0A0
:102EF600046A056A066A076AAEEC04F0000ED8A4F6
:102F0600010E006E0052D8B477D0D9C300F0DAC3F0
:102F160001F0DBC302F0DCC303F017EC0DF0000E8A
:102F2600046E031808E10450021805E10450011864
:102F360002E10050000A60E1800E006E800EDE198C
:102F4600005C02E1DD51010857E2DDC3EBF326EC3C
:102F56000AF000C004F001C005F002C006F003C08C
:102F660007F0D9C300F0DAC301F0DBC302F0DCC31B
:102F760003F068EC09F05F0E046E700E056E090E24
:102F8600066E810E076E72EC05F0010ED8B0000ECB
:102F9600006E005206E0090E0301DD5F000EDE5BE7
:102FA60005D00301080EDD5F000EDE5BDDC3EBF32B
:102FB60026EC0AF000C004F001C005F002C006F0DD
:102FC60003C007F0D9C300F0DAC301F0DBC302F097
:102FD600DCC303F068EC09F017EC0DF000C0DFF37A
:102FE60001C0E0F302C0E1F303C0E2F30301D96BD1
:102FF600DA6BDB6BDC6B38D0D9C300F0DAC301F0D7
:10300600DBC302F0DCC303F017EC0DF000C0DFF306
:1030160001C0E0F302C0E1F303C0E2F3DFC300F056
:10302600E0C301F0E1C302F0E2C303F004EC0DF0EB
:1030360000C004F001C005F002C006F003C007F0AE
:10304600D9C300F0DAC301F0DBC302F0DCC303F03E
:1030560064EC09F000C0D9F301C0DAF302C0DBF377
:1030660003C0DCF3DD6BDE6B010ED46FD4510A0AAC
:1030760034E0D4C300F0000E016E026E036E00361B
:1030860000900136023603360036009001360236CD
:103096000336670E0024F66E480E0120F76E000E0A
:1030A6000220F86E0900F5CF01F00900F5CF02F015
:1030B6000900F5CF03F00900F5CF04F00450E25DF6
:1030C60008E10350E15D05E10250E05D02E10150D7
:1030D600DF5D01E202D0D42BC9D7D451D225006ED0
:1030E600000ED321016EDD510026DE510122005073
:1030F600D55F0150D65BD8B704D0D251D31101E1C8
:1031060004D0010ED55F000ED65B030ED715006EF8
:10311600D8C301F0000E01160050011004E0010EA4
:10312600D55F000ED65BD7A539D0D7A312D0D7A1CD
:1031360003D02D0ECC6F02D02B0ECC6FC3C3E1FF94
:10314600C4C3E2FFCCC3E6FFC34BC42BE34BE42B63
:103156000CD0D7A10AD0C3C3E1FFC4C3E2FF200E3F
:10316600E66EC34BC42BE34BE42B800E006E800E41
:10317600D619005C02E1D55100080FE2C3C3E1FF96
:10318600C4C3E2FF300EE66EC34BC42BE34BE42B05
:10319600010ED55F000ED65BE8D73AD0D7B718D068
:1031A600800E006E800ED619005C02E1D551000833
:1031B6000FE2C3C3E1FFC4C3E2FF200EE66EC34BBA
:1031C600C42BE34BE42B010ED55F000ED65BE8D78C
:1031D600D7A312D0D7A103D02D0ECD6F02D02B0EC0
:1031E600CD6FC3C3E1FFC4C3E2FFCDC3E6FFC34B4C
:1031F600C42BE34BE42B0CD0D7A10AD0C3C3E1FF09
:10320600C4C3E2FF200EE66EC34BC42BE34BE42B94
:10321600D4C300F0D40700524CE0D4C300F0000E33
:10322600016E026E036E00360090013602360336DA
:1032360000360090013602360336670E0024F66E1D
:10324600480E0120F76E000E0220F86E0900F5CF39
:1032560004F00900F5CF05F00900F5CF06F00900E6
:10326600F5CF07F0DFC300F0E0C301F0E1C302F0E1
:10327600E2C303F0D9EC05F00A0E046E000E056EEB
:10328600066E076ED9EC05F008C000F009C001F023
:103296000AC002F00BC003F0300E0026C3C3E1FFE4
:1032A600C4C3E2FF00C0E6FFC34BC42BE34BE42BD1
:1032B600AFD7800E006E800EDE19005C02E1DD5194
:1032C60000080FE2C3C3E1FFC4C3E2FF300EE66E9F
:1032D600C34BC42BE34BE42B010EDD5F000EDE5B1C
:1032E600E8D7800E000A006E800ED319005C02E15A
:1032F600D251080803E2080ED46F02D0D2C3D4F329
:10330600D451D25F000ED35BD45303E1D8B701D0BA
:103316000AD0C3C3E1FFC4C3E2FF2E0EE66EC34B61
:10332600C42BE34BE42BD4C3EBF326EC0AF0D9C34E
:1033360004F0DAC305F0DBC306F0DCC307F0EAEC01
:1033460003F04FEC07F000C0DFF301C0E0F302C06A
:10335600E1F303C0E2F3D4534DE0D407D4C300F045
:10336600000E016E026E036E0036009001360236C4
:10337600033600360090013602360336670E002407
:10338600F66E480E0120F76E000E0220F86E090058
:10339600F5CF04F00900F5CF05F00900F5CF06F0EA
:1033A6000900F5CF07F0DFC300F0E0C301F0E1C389
:1033B60002F0E2C303F0D9EC05F00A0E046E000E2B
:1033C600056E066E076ED9EC05F008C000F009C060
:1033D60001F00AC002F00BC003F0300E0026C3C392
:1033E600E1FFC4C3E2FF00C0E6FFC34BC42BE34BBF
:1033F600E42BB1D7D251D3110FE0C3C3E1FFC4C34D
:10340600E2FF300EE66EC34BC42BE34BE42B010EFA
:10341600D25F000ED35BEED7D7A71AD0800E006E10
:10342600800ED619005C02E1D551000811E2C3C333
:10343600E1FFC4C3E2FF200EE66EC34BC42BE34B91
:10344600E42B010ED55F000ED65BD551D611EFE108
:1034560080EF0EF0C00ED715016ED8C302F0000E35
:103466000216000E021802E1000E0118D8A480D040
:10347600D7A927D0C8C3E9FFC9C3EAFFEECF00F03A
:10348600EECF01F000C0E9FF01C0EAFFEECFDFF3A7
:10349600EECFE0F3EECFE1F3EECFE2F3C8C3E9FF00
:1034A600C9C3EAFF040EEE24006E000EEE20016E84
:1034B600C8C3E1FFC9C3E2FF00C0E6FF01C0E6FFE3
:1034C6002FD0C8C3E9FFC9C3EAFFEECF00F0EECFA5
:1034D60001F000C0E9FF01C0EAFFEECF00F0EECF39
:1034E60001F0000E01BEFF0E026E036E00C0DFF398
:1034F60001C0E0F302C0E1F303C0E2F3C8C3E9FF91
:10350600C9C3EAFF020EEE24006E000EEE20016E25
:10351600C8C3E1FFC9C3E2FF00C0E6FF01C0E6FF82
:10352600800EE219006E800E005C08E1000EE15D7F
:1035360005E1000EE05D02E1000EDF5D18E2030E1C
:10354600D713000ED813006A016A026A036ADF51B4
:10355600005EE051015AE151025AE251035A00C09D
:10356600DFF301C0E0F302C0E1F303C0E2F34ED0A3
:10357600D7A927D0C8C3E9FFC9C3EAFFEECF00F039
:10358600EECF01F000C0E9FF01C0EAFFEECFDFF3A6
:10359600EECFE0F3EECFE1F3EECFE2F3C8C3E9FFFF
:1035A600C9C3EAFF040EEE24006E000EEE20016E83
:1035B600C8C3E1FFC9C3E2FF00C0E6FF01C0E6FFE2
:1035C60025D0C8C3E9FFC9C3EAFFEECF00F0EECFAE
:1035D60001F000C0E9FF01C0EAFFEECFDFF3EECF56
:1035E600E0F3000EE16FE26FC8C3E9FFC9C3EAFF6B
:1035F600020EEE24006E000EEE20016EC8C3E1FF3F
:10360600C9C3E2FF00C0E6FF01C0E6FF000ED31902
:1036160002E1000ED2190FE1000E006EE21908E178
:103626000050E11905E10050E01902E1DF51000AFE
:1036360002E1D24BD32BC00ED715006E00C005F0A9
:10364600AED0010ED46FD4510A0A34E0D4C300F0D0
:10365600000E016E026E036E0036009001360236D1
:10366600033600360090013602360336670E002414
:10367600F66E480E0120F76E000E0220F86E090065
:10368600F5CF01F00900F5CF02F00900F5CF03F000
:103696000900F5CF04F00450E25D08E10350E15D56
:1036A60005E10250E05D02E10150DF5D01E202D07A
:1036B600D42BC9D782D0010ED46FD451080A34E076
:1036C600D4C300F0000E016E026E036E0036009049
:1036D60001360236033600360090013602360336CE
:1036E6008F0E0024F66E480E0120F76E000E0220A3
:1036F600F86E0900F5CF01F00900F5CF02F00900D8
:10370600F5CF03F00900F5CF04F00450E25D08E1BF
:103716000350E15D05E10250E05D02E10150DF5D2D
:1037260001E202D0D42BC9D748D0010ED46FD451B0
:103736000C0A34E0D4C300F0000E016E026E036E74
:103746000036009001360236033600360090013608
:1037560002360336370E0024F66E480E0120F76E49
:10376600000E0220F86E0900F5CF01F00900F5CF32
:1037760002F00900F5CF03F00900F5CF04F004507C
:10378600E25D08E10350E15D05E10250E05D02E122
:103796000150DF5D01E202D0D42BC9D70ED005500F
:1037A600000AD8B44ED70550C00AD8B44AD7055037
:1037B600800A81E00550400AB8E0800E006E800E57
:1037C600D319005C02E1D251D45D03E2D2C3D4F333
:1037D6000DD0800ED319006E800E005C02E1D4512C
:1037E600D25D04E2D4C3D2F3000ED36FD551D61105
:1037F6000EE0030ED715006ED8C301F0000E0116B9
:103806000050011004E0010ED55F000ED65B800E5D
:10381600D319006E800ED619005C02E1D551D25D37
:1038260005E2D251D55FD351D65B02D0D56BD66BAC
:10383600C40ED715016ED851080B026E0250080A45
:1038460002E1400E011808E1D551D61104E0010E3F
:10385600D55F000ED65B1CD0C00ED715016ED851B1
:10386600080B026E0250080A02E1800E011810E1F0
:10387600800E006E800ED619005C02E1D55102085A
:1038860005E2020ED55F000ED65B02D0D56BD66B75
:10389600D7A55DD0D7A312D0D7A103D02D0ECE6F5A
:1038A60002D02B0ECE6FC3C3E1FFC4C3E2FFCEC36B
:1038B600E6FFC34BC42BE34BE42B34D0D7A10BD08C
:1038C600C3C3E1FFC4C3E2FF200EE66EC34BC42BA5
:1038D600E34BE42B27D0C00ED715016ED851080B49
:1038E600026E0250080A02E1800E01181BE1C3C3F2
:1038F600E1FFC4C3E2FF300EE66EC34BC42BE34BBD
:10390600E42BD7AB03D0580ECF6F02D0780ECF6F13
:10391600C3C3E1FFC4C3E2FFCFC3E6FFC34BC42B5F
:10392600E34BE42BD551D61111E0C3C3E1FFC4C369
:10393600E2FF300EE66EC34BC42BE34BE42B010EC5
:10394600D55F000ED65BD551D611EFE174D0D551B7
:10395600D61113E0D7B711D0C3C3E1FFC4C3E2FF4A
:10396600200EE66EC34BC42BE34BE42B010ED55F52
:10397600000ED65BD551D611EFE1D7A312D0D7A151
:1039860003D02D0ED06F02D02B0ED06FC3C3E1FF34
:10399600C4C3E2FFD0C3E6FFC34BC42BE34BE42B07
:1039A6000CD0D7A10AD0C3C3E1FFC4C3E2FF200EE7
:1039B600E66EC34BC42BE34BE42BC00ED715016E4A
:1039C600D851080B026E0250080A02E1400E011897
:1039D6000BE1C3C3E1FFC4C3E2FF300EE66EC34B87
:1039E600C42BE34BE42B27D0C00ED715016ED8515C
:1039F600080B026E0250080A02E1800E01181BE154
:103A0600C3C3E1FFC4C3E2FF300EE66EC34BC42B53
:103A1600E34BE42BD7AB03D0580ED16F02D0780E10
:103A2600D16FC3C3E1FFC4C3E2FFD1C3E6FFC34BFB
:103A3600C42BE34BE42B800E006E800ED319005C82
:103A460002E1D251D45D0BE2C3C3E1FFC4C3E2FF7E
:103A5600300EE66EC34BC42BE34BE42BECD7D2C33C
:103A660000F0D3C301F0010ED25F000ED35B00500D
:103A76000110D8B42AD1C00ED715006E00C0E5F3E8
:103A86000AD1D2C300F0D3C301F0000ED3BFFF0E9C
:103A9600026E036E0036009001360236033600369B
:103AA6000090013602360336670E0024F66E480E85
:103AB6000120F76E000E0220F86E0900F5CF04F023
:103AC6000900F5CF05F00900F5CF06F00900F5CF9E
:103AD60007F0DFC300F0E0C301F0E1C302F0E2C388
:103AE60003F0D9EC05F00A0E046E000E056E066EA4
:103AF600076ED9EC05F008C000F009C001F00AC055
:103B060002F00BC003F0300E0024D46FD3D0D7AB35
:103B160045D0D2C300F0D3C301F0000ED3BFFF0ED1
:103B2600026E036E0036009001360236033600360A
:103B360000900136023603368F0E0024F66E480ECC
:103B46000120F76E000E0220F86E0900F5CF04F092
:103B56000900F5CF05F00900F5CF06F00900F5CF0D
:103B660007F0DFC300F0E0C301F0E1C302F0E2C3F7
:103B760003F0D9EC05F00F0E0016000E0116021622
:103B86000316C00E0024F66E480E0120F76E000ED6
:103B96000220F86E0900F5CFD4F344D0D2C300F06A
:103BA600D3C301F0000ED3BFFF0E026E036E0036C4
:103BB6000090013602360336003600900136023692
:103BC60003368F0E0024F66E480E0120F76E000EA7
:103BD6000220F86E0900F5CF04F00900F5CF05F0D4
:103BE6000900F5CF06F00900F5CF07F0DFC300F0B6
:103BF600E0C301F0E1C302F0E2C303F0D9EC05F043
:103C06000F0E0016000E011602160316AF0E002444
:103C1600F66E480E0120F76E000E0220F86E0900BF
:103C2600F5CFD4F347D0D2C300F0D3C301F0000ED2
:103C3600D3BFFF0E026E036E0036009001360236C9
:103C4600033600360090013602360336370E00245E
:103C5600F66E480E0120F76E000E0220F86E09007F
:103C6600F5CF04F00900F5CF05F00900F5CF06F011
:103C76000900F5CF07F0DFC300F0E0C301F0E1C3B0
:103C860002F0E2C303F0D9EC05F0070E0014D46F7E
:103C9600300ED4270FD0E551000AD8B4F2D6E5513C
:103CA600C00AD8B4EED6E551800AD8B430D7E5516B
:103CB600400AB9E0C3C3E1FFC4C3E2FFD4C3E6FFD1
:103CC600C34BC42BE34BE42BCAD6D7A71AD0800E1E
:103CD600006E800ED619005C02E1D551000811E293
:103CE600C3C3E1FFC4C3E2FF200EE66EC34BC42B81
:103CF600E34BE42B010ED55F000ED65BD551D611F2
:103D0600EFE180EF0EF0E3C300F0E4C301F0120030
:103D1600000E0301B91902E1000EB81937E0B8C365
:103D2600E9FFB9C3EAFFEE5231E0BAC3C3F3BBC33E
:103D3600C4F3CCEC0DF000C0C7F3B8C3C3F3B9C3EA
:103D4600C4F3BAC3C5F3BBC3C6F34AEC0EF0000E08
:103D5600011802E1000E001805E1B8C300F0B9C36E
:103D660001F016D0010E0301B825C36F000EB9216C
:103D7600C46FBAC3E9FFBBC3EAFFEECFC5F32CECB1
:103D86000EF000C0B8F301C0B9F3C2D7006A016AE9
:023D9600120019
:103D9800BD0E0301C16F030EC26FB8C3C3F3B9C32D
:103DA800C4F3BAC3C5F3BBC3C6F3BCC3C7F3C10EE0
:103DB800C86F030EC96F7BEC0EF000C0BFF301C0E3
:103DC800C0F30050B825E16E0150B921E26EE66AF1
:0A3DD800BFC300F0C0C301F01200E9
:103DE200086A096A100E0C6E01340836093604504E
:103DF200085E0550D8A0053C095ED8B007D0045033
:103E020008260550D8B0053C0926D8900036013660
:063E12000C2EEAD712009D
:103E180003019691B8C3C3F3E9EC0DF09681120043
:103E2800B8C3C9FFC7B002D00000FCD7C9CF00F0A3
:023E3800120076
:103E3A000301BB6BB8C3E9FFB9C3EAFFEECFBAF31C
:103E4A00BA51000A0FE0BAC3F0F3A7EC04F0030179
:103E5A00BB2BBB51B825E96E000EB921EA6EEECF35
:063E6A00BAF3EED71200CE
:103E70000301BB6BB8C3E9FFB9C3EAFFEECFBAF3E6
:103E8000BA51000A0FE0BAC3C3F3BFEC0DF003014F
:103E9000BB2BBB51B825E96E000EB921EA6EEECFFF
:063EA000BAF3EED7120098
:103EA6000C6A0E6A0250D8A46CEF1FF001C002F033
:103EB60000C001F0006A0E860250D8A46CEF1FF015
:103EC60001C002F0016A0E960E880250D8B47EEF49
:103ED6001FF00E50035ED8A4D8A084EF1FF0D89030
:103EE60002BE8AEF1FF0003601360236032E73EF4C
:103EF6001FF084EF1FF0010E0C6E56EC00F08EEFF3
:103F06001FF0020E0C6E61EC00F08EEF1FF0040E37
:083F16000C6E5DEC00F01200DE
:103F1E000900F5CFE6FF0006FBE10106F9E112000C
:103F2E00280E03018E6F3E0E8F6FB80E906F030E2C
:103F3E00916F1E0E7C6F090E7D6FF00E7E6F030E5D
:103F4E007F6F949A94969488C66A400EC76EC68AFE
:023F5E0012004F
:103F60009398939A93969394939C939E8198819A15
:103F7000819E819C819481962EEC05F02EEC05F0BB
:103F80002EEC05F0818481868188C5EC04F081984F
:103F90002EEC05F08188C5EC04F081982EEC05F03C
:103FA0008188C5EC04F081982EEC05F0819681881B
:103FB000C5EC04F081982EEC05F08188C5EC04F086
:103FC00081988194818E8188C5EC04F081982EECD3
:103FD00005F0819E81868188C5EC04F081988196E8
:103FE0008188C5EC04F081982EEC05F08188C5EC41
:103FF00004F0819881868188C5EC04F081982EECCC
:1040000005F081968188C5EC04F08198818E818CC1
:10401000818481868188C5EC04F081982EEC05F0BE
:064020000301968112006D
:064026009490828012005C
:10402C0010D0800E0301A36F1AD0C00EA36F17D04F
:10403C00940EA36F14D0D40EA36F11D0800EA36F67
:10404C000ED00301A351010AECE0A351020AEDE0EA
:10405C00A351030AEDE0A351040AEDE0EFD7A40548
:10406C00006EA351002600C0A3F300C0C3F3E9EC1B
:10407C000DF09691A76BA751A525E96E000EA62110
:10408C00EA6EEE520BE0A751A525E96E000EA621B3
:10409C00EA6EEECFB8F3BADEA72BEDD796811200FD
:1040AC00AECF01F0ABA202D0AB98AB8801C000F050
:0240BC001200F0
:1040BE000B6A0350D8B4A5EF20F002500A6E028EA0
:1040CE008E0E035E03AEA9EF20F0036C080E035CA8
:1040DE00D8A084EF20F0036E013602C001F0026A10
:1040EE00080E035CD8A084EF20F0036E0136016A3F
:1040FE000350D8A4D8908EEF20F00350D8B48EEF92
:10410E0020F0D89002320132032E88EF20F00BBC43
:10411E0001A09BEF20F0D8A09BEF20F0012AD8B48D
:10412E00022A02BEB8EF20F00AAEBEEF20F0021E49
:10413E00011E012AD8B4022ABEEF20F0026A016ADB
:10414E00BEEF20F00B800BAEC2EF20F0026A0AAE7B
:10415E00C2EF20F0FF0E026E016E0A360232C2EF7F
:10416E0020F0010E0C6E7DEC04F0C4EF20F0000E7A
:10417E000C6EC4EF20F0FF0E0C6E0150006E02505C
:04418E00016E1200AC
:104192004E0E0301786F090E796FF00E7A6F030EDF
:1041A2007B6FAC0E806F400E816F000E826F000E2F
:1041B200836FFF0E8A6FFF0E8B6F000E8C6F000EE7
:1041C2008D6FFF0E866FFF0E876F000E886F000ED9
:1041D200896FAC8A900EAB6E948E949C9EAA03D08B
:0841E200AECF00F0FBD7120084
:1041EA0080A209D08C988C9A8C8C010E0301926F54
:1041FA00000E936F13D080A809D003018C988C8A83
:10420A008C9C020E926F000E936F08D003018C886B
:0E421A008C9A8C9C030E926F000E936F120014
:104228000301A76B050EA75D0AE2A751A525E16E5C
:10423800000EA621E26E200EE66EA72BF3D7A7513B
:10424800A525E16E000EA621E26EE66AA707A75132
:10425800A525A86F000EA621A96F0A0E046E000EF0
:10426800056EA3C300F0A4C301F0B7DD08C000F0D9
:1042780009C001F0300E0026A8C3E1FFA9C3E2FF80
:1042880000C0E6FF0A0E046E000E056EA3C300F020
:10429800A4C301F0A2DD00C0A3F301C0A4F3000E83
:1042A800011802E1000E001801E102D0A707CFD7DC
:0242B8001200F2
:1042BA000301A56BA551A325E96E000EA421EA6EA0
:1042CA00EE520BE0A551A325E96E000EA421EA6E79
:0C42DA00EECFB8F39CDDA52BEDD7120051
:1042E600A90E0301B86F030EB96FD10EBA6F480E4F
:1042F600BB6F000EBC6FA3C3BDF3A4C3BEF349DD01
:10430600580EB86F000EB96F95DDA90EB86F030E83
:10431600B96F90DD0D0EF06FA7EC04F0AE0E030141
:10432600B86F030EB96FD40EBA6F480EBB6F000E8E
:10433600BC6FA5C3BDF3A6C3BEF32BDD630EB86F7A
:10434600000EB96F77DDAE0EB86F030EB96F72DD72
:104356000D0EF06FA7EC04F0B30E0301B86F030E59
:10436600B96FD70EBA6F480EBB6F000EBC6FA7C3EE
:10437600BDF3A8C3BEF30DDD5D0EB86F000EB96FB9
:1043860059DDB30EB86F030EB96F54DD0D0EF06F25
:06439600A7EC04F0120088
:10439C0082900301B86B42DD00C0A4F30301B86B3B
:1043AC003DDD00C0A3F38280A3C300F0A4C301F0E1
:0243BC001200ED
:1043BE0000C008F00150006E016A026A036A0B6ABF
:1043CE000C6A016A026A036A960E036E0A6A00AEEE
:1043DE00F7EF21F0081E001E082AD8B4002A0A8E14
:1043EE0000C001F008C000F0086A026A55DD120034
:1043FE00A3C3E9FFA4C3EAFFEECFA5F3000E0301AA
:10440E00A66F000EA66F000EA61902E1200EA519CA
:10441E0007E0000EA61902E1090EA51901E003D06E
:10442E00A34BA42BE5D7A76BA86BA96BAA6B000EA9
:10443E00A61902E12D0EA51905E1A94BAA2BA34B36
:10444E00A42B08D0000EA61902E12B0EA51902E12D
:10445E00A34BA42BA3C3E9FFA4C3EAFFEECFA5F39E
:10446E00000EA66F000EA66FA5C3EBF3B3EC0DF016
:10447E00005219E0A7C300F0A8C301F00A0E046EA3
:10448E00000E056E39EC05F0300EA55D026E000EC5
:10449E00A659036E02500024A76F03500120A86F87
:1044AE00A34BA42BD7D7A951AA1108E0A7510008F6
:1044BE00006EA8C301F0000E015604D0A7C300F091
:0644CE00A8C301F012007A
:1044D400760E0301B86F000EB96F3D0EBA6F000E71
:1044E400BB6F17DC00C074F001C075F0000E01183A
:1044F40002E1000E001850E0330E0301B86F000E05
:10450400B96FB4DC120EA36F000EA46F800EA41951
:10451400006E800E005C02E11B0EA35D11E2A3514C
:1045240000017425E96E0301A45100017521EA6EAE
:10453400EECFC3F3BFEC0DF00301A34BA42BE6D7DE
:104544000D0EC36FBFEC0DF0280E0301B86F000E03
:10455400B96F8CDC1E0EA36F000EA46F800EA4191D
:10456400006E800E005C02E1280EA35D11E2A351EF
:1045740000017425E96E0301A45100017521EA6E5E
:10458400EECFC3F3BFEC0DF00301A34BA42BE6D78E
:0A4594000D0EC36FBFEC0DF0120016
:10459E006DEC24F0C186C184C182C1800F0EB46E51
:1045AE00810EAF6EAC84EEDDBBDC36DDD2DC0C0EE4
:1045BE00C36FE9EC0DF0010EC36FE9EC0DF0010EC7
:1045CE00A36F060EA46F200EA56F000EA66F27DD3B
:1045DE00F28EF28C9D8AF288F19CF086F19A9D8083
:1045EE00CD8ACD88B18E0B0ECF6EDC0ECE6ECD8009
:1045FE00949C948E9492120E926E956A00016C5158
:10460E006D11D8B4B4D06A4B6B2B6C6B6D6B000E06
:10461E006B1902E10A0E6A19D8A4A9D0B8DE00C03F
:10462E0068F001C069F000016A6B6B6B6E1D006E65
:10463E006F1D016E00C06EF001C06FF000B002D0B1
:10464E008B9201D08B82F80E6815016E69517F0B2B
:10465E00026E02320132029E02320132029E02329A
:10466E000132029E01C0A3F302C0A4F30301A433DE
:10467E00A333A49F970EA56F030EA66FCEDD970EE4
:10468E00A36F030EA46FB4DE00C09FF301C0A0F3AE
:10469E001ADF020E0301A36F010EA46F190EA56F90
:1046AE00000EA66FBCDC990EA36F030EA46FFEDD89
:1046BE00DF0EB86F0CEC1FF0430EB86F0CEC1FF052
:1046CE0070C000F071C001F03C0E046E000E056E5D
:1046DE0039EC05F000C0A1F301C0A2F3A1C372F042
:1046EE00A2C373F094C300F095C301F061DE000E17
:1046FE00046E000E056E400E066E7F0E076EEAEC1F
:10470E0003F0D6DC00C076F301C077F3A1C3A3F3A8
:10471E00A2C3A4F300C0A5F301C0A6F392C3A7F3EE
:10472E0093C3A8F3D9DD4B0E0301B86F000EB96F1A
:10473E001DEC1FF0970EB86F030EB96F1DEC1FF036
:10474E000D0EF06FA7EC04F00001706B716B03019E
:10475E00946B956B43DD800EA019006E800E005C8D
:10476E0002E1780E9F5D02E38C8001D08C9046D7DB
:02477E00FFD763
:1048DA0010EE19F04F0E006E010E016E800EF66E8C
:0E48EA00470EF76E000EF86E8FEC1FF01200F6
:0747800054656D703A200042
:084787004D415836363735006C
:0B478F006C6F6E6769747564653A001A
:0A479A006C617469747564653A007F
:0747A4002447504747410084
:0747AB00286E756C6C2900FB
:0D47B20074656D70657261747572613A0016
:0547BF0072706D3A006C
:0647C400636F6D623A0014
:0547CA0076656C3A0069
:1047CF000000007FCDCC4C7B0AD723786F12037586
:1047DF0017B75171ACC5276EBD37066B95BF5667BE
:1047EF0077CC2B645F700961FFE65B5D08E53C3CAD
:0447FF006042221BD7
:104803000000007F000020820000488500007A88B5
:1048130000401C8C0050438F00247492809618969D
:1048230020BC3E99286B6E9CF90215A0EC782DC133
:04483300CAF249E29A
:104837000100000008000000400000000002000026
:1048470000100000008000000000040000002000AD
:104857000000000100000008000000400000000008
:10486700010000000A00000064000000E8030000E7
:1048770010270000A086010040420F008096980094
:0848870000E1F50500CA9A3BAF
:10488F0001000000100000000001000000100000F7
:10489F0000000100000010000000000100000010E7
:1048AF003031323334353637383961626364656697
:0148BF0000F8
:1048C0003031323334353637383941424344454646
:0148D00000E7
:0348D1002564005B
:0348D40025640058
:0348D70025640055
:020000040030CA
:0D000100220F0EFFFF81FF0FC00FE00F4028
:00000001FF
