:1000000088EF02F00000000000EF00F000000000A8
:0A0010000000000000000000F3D71C
:0A001C00530E0D6E0D2EFED71200DC
:10002600240E0C6EB50E0D6E0D2EFED70C2EFCD7C3
:06003600000000001200B2
:0C003C00000000000000000000001200A6
:100048005DBE02D0819001D081805DBC02D08192DA
:1000580001D081825DBA02D0819401D081845DB8DB
:1000680002D0819601D0818633B002D0818A01D036
:10007800819A8188DFDF81985DB602D0819001D0B6
:1000880081805DB402D0819201D081825DB202D0BC
:10009800819401D081845DB002D0819601D081869F
:1000A80033B002D0818A01D0819A8188C3DF8198D8
:0C00B80033A002D0B4DF01D0ADDF120095
:1000C4005C50390806E3300E5C5C03E3010E006EFD
:0600D40001D0006A1200D9
:1000DA005CC0C9FFC7B002D00000FCD7C9CF00F08E
:0200EA00120002
:0C00EC0033905CC05DF0AADF338012008E
:1000F8000B6A0A6A096A00500402F4CF09F0F3CFC8
:1001080008F001500502F4CF0BF0F3CF0AF00050CD
:100118000502F3500926F4500A22E86A0B2201501E
:100128000402F3500926F4500A22E86A0B2208C098
:1001380000F009C001F00AC002F00BC003F0120081
:10014800086A096A100E0C6E013408360936045024
:10015800085E0550D8A0053C095ED8B007D0045009
:1001680008260550D8B0053C0926D8900036013637
:060178000C2EEAD7120074
:0E017E00ACB202D00000FCD75CC0ADFF120096
:10018C00586A050E585C0AE258505624E16E000E6F
:10019C005720E26E200EE66E582AF3D7585056249C
:1001AC00E16E000E5720E26EE66A5806585056244F
:1001BC00596E000E57205A6E0A0E046E000E056E14
:1001CC0054C000F055C001F0B9DF08C000F009C000
:1001DC0001F0300E002659C0E1FF5AC0E2FF00C00A
:1001EC00E6FF0A0E046E000E056E54C000F055C0FA
:1001FC0001F0A4DF00C054F001C055F0000E01184E
:10020C0002E1000E001801E102D05806CFD712000F
:10021C009398939A93969394939293908198819AAE
:10022C008190819281948196F8DEF7DEF6DE8184EE
:10023C0081868188FDDE8198F0DE8188F9DE8198E7
:10024C00ECDE8188F5DE8198E8DE81968188F0DE2F
:10025C008198E3DE8188ECDE8198819481808188AD
:10026C00E7DE8198DADE819081868188E1DE8198F3
:10027C0081968188DDDE8198D0DE8188D9DE8198F7
:10028C0081868188D5DE8198C8DE81968188D0DE12
:10029C00819881808182818481868188C9DE819860
:0602AC00BCDE33801200ED
:1002B2000900F5CFE6FF0006FBE10106F9E11200B5
:0602C200949082801200FE
:1002C800DA0E406E000E416E5C0E426E000E436EFA
:1002D800FF0E446EFF0E456EFF0E466EFF0E476E14
:1002E800949A94969488C66A400EC76EC68A12007D
:1002F8007E0E486E010E496E5C0E4A6E000E4B6E05
:10030800FF0E346EFF0E356E000E366E000E376E21
:10031800FF0E386EFF0E396E000E3A6E000E3B6E01
:10032800FF0E3C6EFF0E3D6E000E3E6E000E3F6EE1
:10033800AC8A900EAB6E948E949C9EAA03D0AECFDE
:0603480000F0FBD71200DB
:10034E0054C0E9FF55C0EAFFEECF56F0000E576ECF
:10035E00000E576E000E571802E1200E561807E0D9
:10036E00000E571802E1090E561801E003D0544A48
:10037E00552AE6D7586A596A5A6A5B6A000E5718A8
:10038E0002E12D0E561805E15A4A5B2A544A552AA7
:10039E0008D0000E571802E12B0E561802E1544AEF
:1003AE00552A54C0E9FF55C0EAFFEECF56F0000EB5
:1003BE00576E000E576E56C05CF07DDE005218E090
:1003CE0058C000F059C001F00A0E046E000E056E02
:1003DE008CDE300E565C026E000E5758036E0250C5
:1003EE000024586E03500120596E544A552AD9D70D
:1003FE005A505B1008E058500008006E59C001F0CA
:10040E00000E015604D058C000F059C001F0120081
:10041E0082905C6A5BDE00C055F05C6A57DE00C0FD
:0E042E0054F0828054C000F055C001F012005E
:10043C00566A56505424E96E000E5520EA6EEE5260
:10044C000BE056505424E96E000E5520EA6EEECFA8
:0A045C005CF046DE562AEDD71200D0
:100466000FD0800E546E19D0C00E546E16D0940E56
:10047600546E13D0D40E546E10D0800E546E0DD020
:100486005450010AEEE05450020AEEE05450030ABA
:10049600EEE05450040AEEE0F0D75504006E5450D6
:1004A600002600C054F000C05DF0CBDD3390586AE2
:1004B60058505624E96E000E5720EA6EEE520BE0B5
:1004C60058505624E96E000E5720EA6EEECF5CF0C7
:0A04D6000ADE582AEDD73380120029
:1004E000576A54C0E9FF55C0EAFFEECF56F05650A8
:1004F000000A0DE056C05CF042DE572A57505424E3
:10050000E96E000E5520EA6EEECF56F0F0D71200DD
:1005100014EC03F0C186C184C182C180810EAF6E2C
:10052000AC84EADED1DECDDE79DE0C0E5D6E8CDDD4
:10053000010E5D6E89DD010E546E060E556E290E9C
:10054000566E000E576E8FDF956A69DF00C031F07E
:1005500001C032F0F80E3114016E32507F0B026E82
:1005600002320132029E02320132029E0232013216
:10057000029E01C054F002C055F055325432559ECF
:100580004C0E566E000E576E01DE020E546E010EBA
:10059000556E150E566E000E576E65DF4E0E546E7C
:1005A000000E556E4BDFDF0E5C6EA0DD430E5C6E01
:1005B0009DDD1C0E546E000E556E92DF4C0E546E77
:1005C000000E556E8DDF0D0E5C6ED9DD4C0E546E37
:1005D000000E556EBCDE800E0118026E800E025CAD
:1005E00002E1780E005C02E38C8001D08C901A0E40
:1005F0000B6E5E0E0C6E6E0E0D6E0D2EFED70C2E5B
:0C060000FCD70B2EFAD70000A0D7FFD7C4
:1006280010EE15F01C0E006E010E016E0C0EF66E2B
:0E063800060EF76E000EF86E59EC01F012007F
:07060C0054656D703A2000F7
:0D06130074656D70657261747572613A00F6
:080620004D4158363637350014
:020000040030CA
:0D000100220F0EFFFF81FF0FC00FE00F4028
:00000001FF
