:04000000D5EF03F045
:100008009EA00BD0010E516E000E526E474A482A30
:10001800E70ECF6E960ECE6E9E90F2A203D04B4A9C
:100028004C2AF292F0A003D04F4A502AF0901100C7
:080038000AAE029E000E120048
:100040000B840BAE2BEF00F0010E036E026A016A07
:0A005000006A0A360232FF0E1200A9
:0E005A00026A016A006A086A036A000E120058
:100068000134083609360450085E0550D8A0053C0E
:10007800095E003601360F0E0C6E0134083609365B
:10008800045000A006D0085E0550D8A0053C095EC3
:1000980005D008260550D8B0053C0926003601369B
:1000A8000C2EEBD700B006D0045008260550D8B067
:0800B800053C092600001200BE
:1000C0000C6A0E6A0250D8A479EF00F001C002F069
:1000D00000C001F0006A0E860250D8A479EF00F04B
:1000E00001C002F0016A0E960E880250D8B48BEF60
:1000F00000F00E50035ED8A4D8A090EF00F0D89086
:1001000002BE95EF00F0003601360236032E80EF76
:1001100000F090EF00F0010E0C6E9FDF98EF00F002
:10012000020E0C6E8DDF98EF00F0040E0C6E84DF73
:020130001200BB
:100132000B820BAEA3EF00F003680268016800684F
:080142000A360232FF0E120022
:10014A000B800BAEB1EF00F0026A0AAEFF0E026E30
:0C015A00016E006E0A360232FF0E120029
:100166000B6A0A6A096A00500402F4CF09F0F3CF59
:1001760008F001500502F4CF0BF0F3CF0AF000505F
:100186000502F3500926F4500A22E86A0B220150B0
:100196000402F3500926F4500A22E86A0B2208C02A
:1001A60000F009C001F00AC002F00BC003F0120013
:1001B60000C008F00150006E016A026A036A0B6A09
:1001C6000C6A016A026A036A960E036E0A6A00AE38
:1001D600F3EF00F0081E001E082AD8B4002A0A8E83
:1001E60000C001F008C000F0086A026A66DF12006B
:1001F6000B6A0A6A096A086A0E6A033408360450EA
:10020600085E0550D8A0053C095E0650D8A0063CFD
:100216000A5E0750D8A0073C0B5EE86AD8A0010E1C
:100226000E5E0336070E0C6E0334083609360A36A0
:100236000B360E36045003A012D0085E0550D8A027
:10024600053C095E0650D8A0063C0A5E0750D8A0B9
:10025600073C0B5EE86AD8A0010E0E5E11D0082698
:100266000550D8B0053C09260650D8B0063C0A26EB
:100276000750D8B0073C0B26E86AD8B0010E0E2608
:1002860003360C2ED1D70234083609360A360B3619
:100296000E36045003A012D0085E0550D8A0053CC7
:1002A600095E0650D8A0063C0A5E0750D8A0073C57
:1002B6000B5EE86AD8A0010E0E5E11D00826055026
:1002C600D8B0053C09260650D8B0063C0A26075089
:1002D600D8B0073C0B26E86AD8B0010E0E260236C7
:1002E600070E0C6E0234083609360A360B360E3601
:1002F600045002A012D0085E0550D8A0053C095E45
:100306000650D8A0063C0A5E0750D8A0073C0B5EF4
:10031600E86AD8A0010E0E5E11D008260550D8B0A6
:10032600053C09260650D8B0063C0A260750D8B028
:10033600073C0B26E86AD8B0010E0E2602360C2EB4
:10034600D1D70134083609360A360B360E36045034
:1003560002A012D0085E0550D8A0053C095E0650E2
:10036600D8A0063C0A5E0750D8A0073C0B5EE86A98
:10037600D8A0010E0E5E11D008260550D8B0053C57
:1003860009260650D8B0063C0A260750D8B0073CC6
:100396000B26E86AD8B0010E0E260136070E0C6E43
:1003A6000134083609360A360B360E36045001A0DB
:1003B60012D0085E0550D8A0053C095E0650D8A0AC
:1003C600063C0A5E0750D8A0073C0B5EE86AD8A038
:1003D600010E0E5E11D008260550D8B0053C092640
:1003E6000650D8B0063C0A260750D8B0073C0B2664
:1003F600E86AD8B0010E0E2601360C2ED1D700348D
:10040600083609360A360B360E36045001A012D0CD
:10041600085E0550D8A0053C095E0650D8A0063CEB
:100426000A5E0750D8A0073C0B5EE86AD8A0010E0A
:100436000E5E11D008260550D8B0053C0926065098
:10044600D8B0063C0A260750D8B0073C0B26E86A07
:10045600D8B0010E0E260036070E0C6E0034083694
:1004660009360A360B360E36045000A012D0085E46
:100476000550D8A0053C095E0650D8A0063C0A5E89
:100486000750D8A0073C0B5EE86AD8A0010E0E5EA6
:1004960011D008260550D8B0053C09260650D8B01C
:1004A600063C0A260750D8B0073C0B26E86AD8B0A7
:1004B600010E0E2600360C2ED1D700B00ED00450F9
:1004C60008260550D8B0053C09260650D8B0063C8B
:0C04D6000A260750D8B0073C0B26120085
:1004E2000900F5CFE6FF0006FBE10106F9E1120083
:1004F2000450000A08E10550000A05E1FF0E006EF3
:100502007F0E016E57D00D6A096A086A0150001009
:10051200D8B4000C015005180A6E0ABE0D1E0B6AF3
:1005220005AE05D0041E051E042AD8B4052A01AE64
:1005320005D0001E011E002AD8B4012A0150051060
:100542000A6E0ABE10D08FDD0BB020D00DAE000CAB
:10055200001E011E002AD8B4012A081E091E082AFC
:10056200D8B4092A000C05AE0DD001BE07D0015047
:10057200096E0050086E016A006AE8D7016A006AD3
:10058200002A000C011E001E0B2ADDD7082AD8B44F
:10059200092A0450085CD8A4D9D70550095CD8A40C
:1005A200D5D7096A086A002AD8B4012A01AECED783
:0605B2000000FF0C120026
:1005B8000B6A0350D8B422EF03F002500A6E028E81
:1005C8008E0E035E03AE26EF03F0036C080E035C89
:1005D800D8A001EF03F0036E013602C001F0026AF1
:1005E800080E035CD8A001EF03F0036E0136016A20
:1005F8000350D8A4D8900BEF03F00350D8B40BEFF6
:1006080003F0D89002320132032E05EF03F00BBC41
:1006180001A018EF03F0D8A018EF03F0012AD8B40E
:10062800022A02BE35EF03F00AAE3AEF03F0021ECB
:10063800011E012AD8B4022A3AEF03F0026A016ABD
:100648003AEF03F00B800BAE3EEF03F0026A0AAEFE
:100658003EEF03F0FF0E026E016E0A3602323EEFE5
:1006680003F0010E0C6E6DDD40EF03F0000E0C6E12
:1006780040EF03F0FF0E0C6E0150006E0250016E49
:0206880012005E
:10068A00086A096A000E07620364CAEF03F002509F
:10069A0006180A6E075003267E0ED8A05BEF03F0F9
:1006AA00035ED8B0CEEF03F05FEF03F0035ED8A08D
:1006BA00D2EF03F0028E068E02C00EF001C00BF0DC
:1006CA0000C00DF000500402F4CF0CF001500502F6
:1006DA00F4CF00F0F3CF08F00402F3500C26F450E4
:1006EA000822000E00220D500502F3500C26F45089
:1006FA000822000E002202500402F3500826F45089
:10070A00002202500502016A000E0122F35000265F
:10071A00F45001220D500602F3500826F45000222C
:10072A00026A000E012202220B500602F350002632
:10073A00F4500122000E02220E500602F350012646
:10074A00F450022202BEB2EF03F008360036013638
:10075A0002360306D8B4D2EF03F0C5EF03F0D8800F
:10076A00800E08640030000E002201220222D8A066
:10077A00C5EF03F0023201320032034ACEEF03F032
:10078A000AAE029E000ED4EF03F0010E61DCD4EF34
:10079A0003F0020EC9DCD4EF03F0040E4CDC1200A5
:1007AA00CAEC04F0C186C184C182C180F28EF28C87
:1007BA00F288F19CF086F19A9D80CD8ACD88E70E69
:1007CA00CF6E960ECE6ECD809490926A956A5150F5
:1007DA0052105FE0516A526A29C025F02AC026F0F9
:1007EA002BC027F02CC028F043C053F044C054F06B
:1007FA005336539054362D0E5324D96E000E54207E
:10080A00DA6EDECF04F0DECF05F0000E066E076E5C
:10081A0029C000F02AC001F02BC002F02CC003F05E
:10082A00E5DC08C000F009C001F00AC002F00BC004
:10083A0003F000C025F001C026F002C027F003C073
:10084A0028F03F0E4324E96E000E4420EA6EEECFF4
:10085A0089FF1D0E5324D96E000E5420DA6EDECFA6
:10086A0004F0DECF05F0000E066E076EBFDC350E13
:10087A000024E96E000E0120EA6EEECF8CFF150E01
:10088A005324E96E000E5420EA6EEECF43F0EECF09
:10089A0044F0000E481802E1640E47185CE1451C5A
:1008AA00006E461C016E00C045F001C046F000B063
:1008BA0002D0829001D08280476A486A4FC000F015
:1008CA0050C001F073DC000E046E000E056E400E7F
:1008DA00066E7F0E076ED4DE6ADE00C053F001C0DA
:1008EA0054F053C049F054C04AF04BC000F04CC019
:1008FA0001F03C0E046E000E056E30DC00C055F0AF
:10090A0001C056F055C04DF056C04EF04F6A506ABD
:10091A004B6A4C6A53C000F054C001F0640E046E76
:10092A00000E056E1BDC00C053F001C054F0640ECB
:10093A00046E000E056E55C000F056C001F0D4DDFD
:10094A0000505324296E015054202A6E000E2ABEEC
:0A095A00FF0E2B6E2C6E3BD7FFD76B
:1009940010EE15F0300E006E010E016E640EF66E50
:0E09A400090EF76E000EF86E71EC02F01200F4
:08096400010002000300000085
:08096C00E80364000A00010029
:04097400000000007F
:04097800000000007B
:08097C001027E80364000A00E3
:0A098400C0F9A4B0999282F88090A7
:04098E000102040856
:02099200000063
:020000040030CA
:0D000100220F0EFFFF81FF0FC00FE00F4028
:00000001FF
