:0400000097EF20F066
:1000080000C016F001C015F0E1CF17F0E2CF18F0EC
:100018009EA00AD0010E0301546F000E556F0B0EFF
:10002800CF6EDC0ECE6E9E909EAA1BD003014C0EA6
:100038006625C06F000E6721C16F2BEC1FF0C0C38F
:10004800E1FFC1C3E2FF00C0E6FF0301664B672B77
:100058006751030A02E1000E661902E1666B676BDD
:100068009E9AF2A204D003015A4B5B2BF292F0A0A5
:1000780004D00301564B572BF09016C000F015C062
:0C00880001F017C0E1FF18C0E2FF1100FA
:100094000B820BAE54EF00F003680268016800683D
:0800A4000A360232FF0E1200C1
:0E00AC00026A016A006A086A036A000E120006
:0800BA000AAE029E000E1200C6
:1000C2000B840BAE6CEF00F0010E036E026A016A44
:0A00D200006A0A360232FF0E120027
:1000DC000CB0B0EF00F00CA256EF01F00E6A000E5F
:1000EC000264C7EF00F0F00E0214D8A492EF00F0F7
:1000FC00023A01380F0B02260138F00B016E003862
:10010C000F0B01260038F00B006E08380F0B002681
:10011C000838F00B086E0E84D89002BEABEF00F0DE
:10012C0008360036013602360E2A02BEABEF00F05E
:10013C0008360036013602360E2A02BEABEF00F04E
:10014C0008360036013602360E2A0E5003644CEF88
:10015C0001F0035E0BBC08AE51EF01F0D880800EAD
:10016C0008640030000E002201220222D8A051EFB8
:10017C0001F0023201320032034A56EF01F051EF26
:10018C0001F001C002F000C001F008C000F0086AE4
:10019C00000E0E860264FEEF00F0F00E0214D8A4DE
:1001AC00E6EF00F0023A01380F0B02260138F00B93
:1001BC00016E00380F0B01260038F00B006E0E8418
:1001CC00D89002BEABEF00F00036013602360E2A94
:1001DC0002BEABEF00F00036013602360E2A02BE2C
:1001EC00ABEF00F00036013602360E2AABEF00F012
:1001FC0001C002F000C001F0006A000E0E960E88DD
:10020C0002642BEF01F0F00E0214D8A416EF01F0EB
:10021C00023A01380F0B02260138F00B016E0E84E6
:10022C00D89002BEABEF00F0013602360E2A02BEA9
:10023C00ABEF00F0013602360E2A02BEABEF00F037
:10024C00013602360E2AABEF00F001C002F0016A53
:10025C00000E0E8602645BEF01F0F00E0214D8A4BF
:10026C003AEF01F0023A0E84D89002BEABEF00F0E8
:10027C0002360E2A02BEABEF00F002360E2A02BE88
:10028C00ABEF00F002360E2AABEF00F0010E0C6E55
:10029C0012DF5EEF01F0020E0C6E09DF5EEF01F073
:1002AC00040E0C6EF1DE5EEF01F0080E0C6EF8DE43
:0202BC0012002E
:1002BE00025006180E6E086A096A0B6A035007642C
:1002CE0052EF02F006500A6E068E028E03500B6E2F
:1002DE000750036E000E0B64A2EF01F00B50075E89
:1002EE00D8B443EF02F0070E076411EF02F0075E79
:1002FE0000C008F001C000F002C001F0026A074E13
:10030E0043EF02F00764E6EF01F0075E00C008F06D
:10031E0001C000F0016A074E43EF02F00764C4EF1C
:10032E0001F0075E00C008F0006A074E43EF02F0CE
:10033E000764ABEF01F00AC002F005C001F004C083
:10034E0000F0086A6CEF03F0030E0764B6EF01F0DD
:10035E00075E08380F0B086E074E43EF02F0D89079
:10036E000832074E43EF02F0D8900832074E43EFA3
:10037E0002F0D890083243EF02F0030E0764D5EF77
:10038E0001F0075E08380F0B086E0038F00B0826D8
:10039E0000380F0B006E074E43EF02F0D89000327C
:1003AE000832074E43EF02F0D89000320832074E63
:1003BE0043EF02F0D8900032083243EF02F0030E02
:1003CE000764FDEF01F0075E08380F0B086E00386A
:1003DE00F00B082600380F0B006E0138F00B0026CC
:1003EE0001380F0B016E074E43EF02F0D890013229
:1003FE0000320832074E43EF02F0D890013200323D
:10040E000832074E43EF02F0D89001320032083224
:10041E0043EF02F0030E07642EEF02F0075E08387A
:10042E000F0B086E0038F00B082600380F0B006E0D
:10043E000138F00B002601380F0B016E0238F00B5D
:10044E00012602380F0B026E074E43EF02F0D890D2
:10045E000232013200320832074E43EF02F0D890DA
:10046E000232013200320832074E43EF02F0D890CA
:10047E000232013200320832096A000E0EAE37EF38
:10048E0003F0081E001E011E021E082A0022012271
:10049E00022237EF03F00750D8A458EF02F06CEFAA
:1004AE0003F0096A02C00AF0028E068E0750035C42
:1004BE00076ED8B42AEF03F0070E0764F8EF02F0C8
:1004CE00075E0450096E0550046E0650056E066AEE
:1004DE00074E2AEF03F0070E0764CDEF02F0075E1A
:1004EE000450096E0550046E056A074E2AEF03F09C
:1004FE00070E0764ABEF02F0075E0450096E046A44
:10050E00074E2AEF03F0070E076492EF02F00AC0BF
:10051E0002F06CEF03F0030E07649DEF02F0075E2E
:10052E0009380F0B096E074E2AEF03F0D8900932E7
:10053E00074E2AEF03F0D8900932074E2AEF03F048
:10054E00D89009322AEF03F0030E0764BCEF02F0D5
:10055E00075E09380F0B096E0438F00B09260438B4
:10056E000F0B046E074E2AEF03F0D89004320932B7
:10057E00074E2AEF03F0D89004320932074E2AEFC5
:10058E0003F0D890043209322AEF03F0030E076409
:10059E00E4EF02F0075E09380F0B096E0438F00B1A
:1005AE00092604380F0B046E0538F00B04260538A7
:1005BE000F0B056E074E2AEF03F0D890053204326A
:1005CE000932074E2AEF03F0D89005320432093271
:1005DE00074E2AEF03F0D8900532043209322AEF83
:1005EE0003F0030E076415EF03F0075E09380F0BD7
:1005FE00096E0438F00B092604380F0B046E05380B
:10060E00F00B042605380F0B056E0638F00B052689
:10061E0006380F0B066E074E2AEF03F0D8900632FF
:10062E00053204320932074E2AEF03F0D890063213
:10063E00053204320932074E2AEF03F0D890063203
:10064E00053204320932086A000E0EAE37EF03F09F
:10065E00091E041E051E061E092A04220522062254
:10066E00095008260450002205500122065002228D
:10067E000EBE4EEF03F0D8A05DEF03F00232013252
:10068E0000320832033E5DEF03F067EF03F0D8B09F
:10069E0062EF03F0000E081E001E011E021E082A45
:1006AE000022012202220A7E62EF03F0010E0C6E7E
:1006BE000EDD6EEF03F0020E0C6E09DD6EEF03F031
:1006CE00040E0C6EE0DC6EEF03F0000E0C6E1200EA
:0E06DE00ACB202D00000FCD7BFC3ADFF1200CB
:1006EC000B800BAE82EF03F0026A0AAEFF0E026EB5
:0C06FC00016E006E0A360232FF0E120082
:100708000134083609360450085E0550D8A0053C67
:10071800095E003601360F0E0C6E013408360936B4
:10072800045000A006D0085E0550D8A0053C095E1C
:1007380005D008260550D8B0053C092600360136F4
:100748000C2EEBD700B006D0045008260550D8B0C0
:08075800053C09260000120017
:080760000B6A0B86FF0E12006C
:10076800086A096A000E0762036439EF04F0025050
:1007780006180A6E075003267E0ED8A0CAEF03F0AB
:10078800035ED8B03DEF04F0CEEF03F0035ED8A0CF
:1007980041EF04F0028E068E02C00EF001C00BF08D
:1007A80000C00DF000500402F4CF0CF00150050217
:1007B800F4CF00F0F3CF08F00402F3500C26F45005
:1007C8000822000E00220D500502F3500C26F450AA
:1007D8000822000E002202500402F3500826F450AA
:1007E800002202500502016A000E0122F350002681
:1007F800F45001220D500602F3500826F45000224E
:10080800026A000E012202220B500602F350002653
:10081800F4500122000E02220E500602F350012667
:10082800F450022202BE21EF04F0083600360136E9
:1008380002360306D8B441EF04F034EF04F0D88050
:10084800800E08640030000E002201220222D8A087
:1008580034EF04F0023201320032034A3DEF04F073
:100868000AAE029E000E43EF04F0010E1BDC43EFBC
:1008780004F0020E0BDC43EF04F0040E1EDC120041
:100888000D6A086A0050D8B4000C04180A6E0ABE33
:100898000D1E0B6A04AE02D0041E042A00AE02D05C
:1008A800001E002A005004100A6E0ABE1FD0045011
:1008B800085E003600340836045008260036060E56
:1008C8000C6E00340836045000B0085E00A00826FC
:1008D80000360C2EF6D700A008260BB015D00DAEAA
:1008E800000C001E002A081E082A000C04AE09D0BD
:1008F80000BE04D00050086E006AF1D7006A002AD2
:10090800000C001E0B2AD3D7082A0450085CD8A470
:0E091800E6D7086A002A00AEE2D7FF0C1200F4
:10092600086A080E0C6E003408360450085ED8B00B
:0E09360002D00826D89000360C2EF5D71200FD
:100944000450000A12E10550000A0FE10650000AA3
:100954000CE10750000A09E1FF0E006EFF0E016E64
:100964007F0E026EFF0E036EA7D0086A096A075055
:10097400D8B44DEF05F00350D8B451EF05F0025050
:1009840006180A6E028E068E0E6A02C008F001C0B6
:100994000CF000C00DF004500D5E0550D8A0053CCD
:1009A4000C5E0650D8A0063C085E086A0C6A0D6A04
:1009B400D8A0E4EF04F0D8900232013200320832B9
:1009C400010E0E6E0750035ED8A0F1EF04F07E0E08
:1009D4000E240326D8B056EF05F0F7EF04F07E0E90
:1009E4000E240326D8A05BEF05F0180E0B6E0D360F
:1009F4000C3608360036013602360E360450005ED8
:100A04000550D8A0053C015E0650D8A0063C025E05
:100A140006340E120EA012EF05F00D801DEF05F046
:100A2400045000260550D8B0053C01260650D8B025
:100A3400062802260D900B2EF9EF04F043EF05F083
:100A4400D8900036013602360E360450005E05504A
:100A5400D8A0053C015E0650D8A0063C025E0634D0
:100A64000E10010B0D26D8B00C2AD8B4082AD8A42D
:100A740043EF05F008320C320D32032AD8B456EF96
:100A840005F00AAE089E0850026E0C50016E0D501F
:100A9400006E5EEF05F0010E61DE5EEF05F0020E02
:100AA40056EC00F05EEF05F0040E4AEC00F05EEF49
:0A0AB40005F0080E61EC00F01200DE
:100ABE000B6A0C6A0A6A086A0350D8B4E7EF05F0AD
:100ACE00028E9E0E035E03BE72EF05F0D8B472EF77
:100ADE0005F0D7EF05F0036C080E035CD8A0A4EF69
:100AEE0005F0036E083600C008F001C000F002C029
:100AFE0001F0026A080E035CD8A0A4EF05F0036EA5
:100B0E00083600C008F001C000F0016A080E035C50
:100B1E00D8A0A4EF05F0036E083600C008F0006AF6
:100B2E00080E035CD8A0A4EF05F0036E0836086A21
:100B3E000350D8A4D890B0EF05F00350D8B4B0EF5E
:100B4E0005F0D8900232013200320832032EA8EF9F
:100B5E0005F00BBC08A0C1EF05F0D8A0C1EF05F061
:100B6E00082AD8B4002AD8B4012AD8B4022A02BE60
:100B7E00EBEF05F00AAEE7EF05F0021E011E001EB8
:100B8E00081E082AD8B4002AD8B4012AD8B4022ADA
:100B9E00E7EF05F0026A016A006A086AE7EF05F0FE
:100BAE000B800BAEF0EF05F0026A0AAEF0EF05F027
:100BBE00026E016E006E086E0A360232F0EF05F01C
:100BCE00000E0C6AF1EF05F0010E0C6E88DDF1EFF0
:100BDE0005F0FF0E0250036E0150026E0050016EC2
:060BEE000850006E120029
:100BF4000301BA51390806E3300EBA5D03E3010E6E
:080C0400006E01D0006A12002D
:100C0C000B6A0A6A096A00500402F4CF09F0F3CFA8
:100C1C0008F001500502F4CF0BF0F3CF0AF00050AE
:100C2C000502F3500926F4500A22E86A0B220150FF
:100C3C000402F3500926F4500A22E86A0B2208C079
:100C4C0000F009C001F00AC002F00BC003F0120062
:100C5C000050086E0150006E0250016E0350026E7F
:100C6C00036A0B6A0C6A9E0E036E0A6A020E0C6E05
:060C7C006EEC00F0120016
:100C82006E0E0301BA5DD8A0C3D0640E046EBAC35F
:100C920000F048DE120E0024056E066A000E0622DF
:100CA20005C000F006C001F0000E06BEFF0E026E87
:100CB200036E00360090013602360336003600908D
:100CC200013602360336260E0024F66E420E01204D
:100CD200F76E000E0220F86E0900F5CF00F0090051
:100CE200F5CF01F00900F5CF02F00900F5CF03F0CE
:100CF200000E046E000E056E000E066E7E0E076E6E
:100D020032DD00C0BBF301C0BCF302C0BDF303C0BF
:100D1200BEF3640E046EBAC300F004DE08C000F035
:100D22000A0E046EFFDD090E0024056E066A000E2F
:100D3200062205C000F006C001F0000E06BEFF0E3E
:100D4200026E036E0036009001360236033600361C
:100D52000090013602360336260E0024F66E420E4D
:100D62000120F76E000E0220F86E0900F5CF00F0A8
:100D72000900F5CF01F00900F5CF02F00900F5CF27
:100D820003F0BBC304F0BCC305F0BDC306F0BEC391
:100D920007F0E9DC00C0BBF301C0BCF302C0BDF345
:100DA20003C0BEF30A0E046EBAC300F0BBDD08C076
:100DB20000F000C001F0000E026E036E046E0136F8
:100DC20001900236033604360136019002360336AC
:100DD2000436260E0124F66E420E0220F76E000E35
:100DE2000320F86E0900F5CF00F00900F5CF01F0FD
:100DF2000900F5CF02F00900F5CF03F0BBC304F000
:100E0200BCC305F0BDC306F0BEC307F0ACDCADD079
:100E1200BA510A08D8B07AD00A0E046EBAC300F0EA
:100E220081DD090E0024056E066A000E062205C049
:100E320000F006C001F0000E06BEFF0E026E036E49
:100E42000036009001360236033600360090013635
:100E520002360336260E0024F66E420E0120F76E8D
:100E6200000E0220F86E0900F5CF00F00900F5CF60
:100E720001F00900F5CF02F00900F5CF03F0000EF2
:100E8200046E000E056E000E066E7E0E076E6BDCA3
:100E920000C0BBF301C0BCF302C0BDF303C0BEF38C
:100EA2000A0E046EBAC300F03DDD08C000F000C0B7
:100EB20001F0000E026E036E046E013601900236DE
:100EC2000336043601360190023603360436260E06
:100ED2000124F66E420E0220F76E000E0320F86E19
:100EE2000900F5CF00F00900F5CF01F00900F5CFB8
:100EF20002F00900F5CF03F0BBC304F0BCC305F058
:100F0200BDC306F0BEC307F02EDC2FD0BAC300F07B
:100F1200000E016E026E036E00360090013602363C
:100F2200033600360090013602360336260E0024C0
:100F3200F66E420E0120F76E000E0220F86E0900D6
:100F4200F5CF00F00900F5CF01F00900F5CF02F06E
:100F52000900F5CF03F0000E046E000E056E000EC0
:0C0F6200066E7E0E076EB4EC03F0120069
:100F6E000B6A0C6A086A0350D8B43BEF08F002C053
:100F7E000AF0028E9E0E035E03AE2BEF08F0036C9A
:100F8E00080E035CD8A0F8EF07F0036E083600C019
:100F9E0008F001C000F002C001F0026A080E035C06
:100FAE00D8A0F8EF07F0036E083600C008F001C0B5
:100FBE0000F0016A080E035CD8A0F8EF07F0036E8C
:100FCE00083600C008F0006A080E035CD8A0F8EFDF
:100FDE0007F0036E0836086A0350D8A4D89004EFC1
:100FEE0008F00350D8B404EF08F0D8900232013262
:100FFE0000320832032EFCEF07F00BBC08A015EFF1
:10100E0008F0D8A015EF08F0082AD8B4002AD8B4F2
:10101E00012AD8B4022A02BE3FEF08F00AAE3BEF17
:10102E0008F0021E011E001E081E082AD8B4002A4F
:10103E00D8B4012AD8B4022A3BEF08F0026A016A3A
:10104E00006A086A3BEF08F00B800BAE46EF08F023
:10105E00026A0AAE46EF08F0026E016E006E086E6E
:10106E000A36023246EF08F00C6A000E47EF08F01F
:10107E00010E0C6E000E76EC03F047EF08F0FF0E3B
:10108E000250036E0150026E0050016E0850006E49
:02109E0012003E
:0810A000067E5FEC01F0120076
:1010A8000B6A0A6A096A086A0E6A03340836045029
:1010B800085E0550D8A0053C095E0650D8A0063C3D
:1010C8000A5E0750D8A0073C0B5EE86AD8A0010E5C
:1010D8000E5E0336070E0C6E0334083609360A36E0
:1010E8000B360E36045003A012D0085E0550D8A067
:1010F800053C095E0650D8A0063C0A5E0750D8A0F9
:10110800073C0B5EE86AD8A0010E0E5E11D00826D7
:101118000550D8B0053C09260650D8B0063C0A262A
:101128000750D8B0073C0B26E86AD8B0010E0E2647
:1011380003360C2ED1D70234083609360A360B3658
:101148000E36045003A012D0085E0550D8A0053C06
:10115800095E0650D8A0063C0A5E0750D8A0073C96
:101168000B5EE86AD8A0010E0E5E11D00826055065
:10117800D8B0053C09260650D8B0063C0A260750C8
:10118800D8B0073C0B26E86AD8B0010E0E26023606
:10119800070E0C6E0234083609360A360B360E3640
:1011A800045002A012D0085E0550D8A0053C095E84
:1011B8000650D8A0063C0A5E0750D8A0073C0B5E34
:1011C800E86AD8A0010E0E5E11D008260550D8B0E6
:1011D800053C09260650D8B0063C0A260750D8B068
:1011E800073C0B26E86AD8B0010E0E2602360C2EF4
:1011F800D1D70134083609360A360B360E36045074
:1012080002A012D0085E0550D8A0053C095E065021
:10121800D8A0063C0A5E0750D8A0073C0B5EE86AD7
:10122800D8A0010E0E5E11D008260550D8B0053C96
:1012380009260650D8B0063C0A260750D8B0073C05
:101248000B26E86AD8B0010E0E260136070E0C6E82
:101258000134083609360A360B360E36045001A01A
:1012680012D0085E0550D8A0053C095E0650D8A0EB
:10127800063C0A5E0750D8A0073C0B5EE86AD8A077
:10128800010E0E5E11D008260550D8B0053C09267F
:101298000650D8B0063C0A260750D8B0073C0B26A3
:1012A800E86AD8B0010E0E2601360C2ED1D70034CC
:1012B800083609360A360B360E36045001A012D00D
:1012C800085E0550D8A0053C095E0650D8A0063C2B
:1012D8000A5E0750D8A0073C0B5EE86AD8A0010E4A
:1012E8000E5E11D008260550D8B0053C09260650D8
:1012F800D8B0063C0A260750D8B0073C0B26E86A47
:10130800D8B0010E0E260036070E0C6E00340836D3
:1013180009360A360B360E36045000A012D0085E85
:101328000550D8A0053C095E0650D8A0063C0A5EC8
:101338000750D8A0073C0B5EE86AD8A0010E0E5EE5
:1013480011D008260550D8B0053C09260650D8B05B
:10135800063C0A260750D8B0073C0B26E86AD8B0E6
:10136800010E0E2600360C2ED1D700B00ED0045038
:1013780008260550D8B0053C09260650D8B0063CCA
:0C1388000A260750D8B0073C0B261200C4
:10139400800E0301BA19006E800E000A005CD8B0FA
:1013A4006DD1BA510008016E01C0BAF3800E011864
:1013B400006E800E6E0A005CD8A0C0D0640E046E6D
:1013C400BAC300F044EC04F0120E0024056E000EC3
:1013D40000BEFF0E066E000E062205C000F006C019
:1013E40001F0000E06BEFF0E026E036E0036009082
:1013F40001360236033600360090013602360336D3
:10140400260E0024F66E420E0120F76E000E022016
:10141400F86E0900F5CFBBF30900F5CFBCF3090062
:10142400F5CFBDF30900F5CFBEF3640E046EBAC365
:1014340000F044EC04F008C000F00A0E046E44EC22
:1014440004F0090E0024056E000E00BEFF0E066EA9
:10145400000E062205C000F006C001F0000E06BE14
:10146400FF0E026E036E003600900136023603361C
:1014740000360090013602360336260E0024F66E3E
:10148400420E0120F76E000E0220F86E0900F5CF1F
:1014940000F00900F5CF01F00900F5CF02F00900D2
:1014A400F5CF03F0BBC304F0BCC305F0BDC306F025
:1014B400BEC307F0B4EC03F000C0BBF301C0BCF33F
:1014C40002C0BDF303C0BEF30A0E046EBAC300F03B
:1014D40044EC04F008C000F000C001F0000E00BEAF
:1014E400FF0E026E036E046E01360190023603365F
:1014F400043601360190023603360436260E0124E2
:10150400F66E420E0220F76E000E0320F86E0900FC
:10151400F5CF00F00900F5CF01F00900F5CF02F096
:101524000900F5CF03F0BBC304F0BCC305F0BDC391
:1015340006F0BEC307F0B4EC03F007D2800E0A0A2B
:10154400006E800EBA19005C71E20A0E046EBAC312
:1015540000F044EC04F0090E0024056E000E00BEF9
:10156400FF0E066E000E062205C000F006C001F054
:10157400000E06BEFF0E026E036E003600900136AA
:101584000236033600360090013602360336260E44
:101594000024F66E420E0120F76E000E0220F86E53
:1015A4000900F5CFBBF30900F5CFBCF30900F5CF73
:1015B400BDF30900F5CFBEF30A0E046EBAC300F002
:1015C40044EC04F008C000F000C001F0000E00BEBE
:1015D400FF0E026E036E046E01360190023603366E
:1015E400043601360190023603360436260E0124F1
:1015F400F66E420E0220F76E000E0320F86E09000C
:10160400F5CF00F00900F5CF01F00900F5CF02F0A5
:101614000900F5CF03F0BBC304F0BCC305F0BDC3A0
:1016240006F0BEC307F0B4EC03F08FD1BAC300F0E8
:10163400000EBABFFF0E016E026E036E00360090FC
:101644000136023603360036009001360236033680
:10165400260E0024F66E420E0120F76E000E0220C4
:10166400F86E0900F5CF00F00900F5CF01F009008C
:10167400F5CF02F00900F5CF03F067D1800EBA1957
:10168400006E800E6E0A005CD8A0C0D0640E046E9A
:10169400BAC300F044EC04F0120E0024056E000EF0
:1016A40000BEFF0E066E000E062205C000F006C046
:1016B40001F0000E06BEFF0E026E036E00360090AF
:1016C4000136023603360036009001360236033600
:1016D4005A0E0024F66E420E0120F76E000E022010
:1016E400F86E0900F5CFBBF30900F5CFBCF3090090
:1016F400F5CFBDF30900F5CFBEF3640E046EBAC393
:1017040000F044EC04F008C000F00A0E046E44EC4F
:1017140004F0090E0024056E000E00BEFF0E066ED6
:10172400000E062205C000F006C001F0000E06BE41
:10173400FF0E026E036E0036009001360236033649
:10174400003600900136023603365A0E0024F66E37
:10175400420E0120F76E000E0220F86E0900F5CF4C
:1017640000F00900F5CF01F00900F5CF02F00900FF
:10177400F5CF03F0BBC304F0BCC305F0BDC306F052
:10178400BEC307F0B4EC03F000C0BBF301C0BCF36C
:1017940002C0BDF303C0BEF30A0E046EBAC300F068
:1017A40044EC04F008C000F000C001F0000E00BEDC
:1017B400FF0E026E036E046E01360190023603368C
:1017C4000436013601900236033604365A0E0124DB
:1017D400F66E420E0220F76E000E0320F86E09002A
:1017E400F5CF00F00900F5CF01F00900F5CF02F0C4
:1017F4000900F5CF03F0BBC304F0BCC305F0BDC3BF
:1018040006F0BEC307F0B4EC03F09FD0800E0A0AC2
:10181400006E800EBA19005C71E20A0E046EBAC33F
:1018240000F044EC04F0090E0024056E000E00BE26
:10183400FF0E066E000E062205C000F006C001F081
:10184400000E06BEFF0E026E036E003600900136D7
:1018540002360336003600900136023603365A0E3D
:101864000024F66E420E0120F76E000E0220F86E80
:101874000900F5CFBBF30900F5CFBCF30900F5CFA0
:10188400BDF30900F5CFBEF30A0E046EBAC300F02F
:1018940044EC04F008C000F000C001F0000E00BEEB
:1018A400FF0E026E036E046E01360190023603369B
:1018B4000436013601900236033604365A0E0124EA
:1018C400F66E420E0220F76E000E0320F86E090039
:1018D400F5CF00F00900F5CF01F00900F5CF02F0D3
:1018E4000900F5CF03F0BBC304F0BCC305F0BDC3CE
:1018F40006F0BEC307F0B4EC03F027D0BAC300F07F
:10190400000EBABFFF0E016E026E036E0036009029
:1019140001360236033600360090013602360336AD
:101924005A0E0024F66E420E0120F76E000E0220BD
:10193400F86E0900F5CF00F00900F5CF01F00900B9
:0C194400F5CF02F00900F5CF03F012000F
:1019500003500718D8A4BCEF0CF002500618D8A406
:10196000BCEF0CF001500518D8A4BCEF0CF00050EF
:0E1970000418D8B4D8841200D89412001200C3
:10197E000450000A08E10550000A05E1FF0E006E52
:10198E007F0E016E58D00D6A096A086A0150001068
:10199E00D8B4000C015005180A6E0ABE0D1E0B6A53
:1019AE0005AE05D0041E051E042AD8B4052A01AEC4
:1019BE0005D0001E011E002AD8B4012A01500510C0
:1019CE000A6E0ABE10D084EC03F00BB020D00DAE20
:1019DE00000C001E011E002AD8B4012A081E091E82
:1019EE00082AD8B4092A000C05AE0DD001BE07D0C6
:1019FE000150096E0050086E016A006AE8D7016A4C
:101A0E00006A002A000C011E001E0B2ADDD7082AD0
:101A1E00D8B4092A0450085CD8A4D9D70550095C5B
:101A2E00D8A4D5D7096A086A002AD8B4012A01AE0B
:081A3E00CED70000FF0C1200DE
:101A46000A6A0350D8A40A800750D8A40A820A500A
:101A5600D8B486EF0DF0030AD8B43FEF0DF00AB004
:101A66003AEF0DF006AE84EF0DF082EF0DF002AE08
:101A760082EF0DF084EF0DF00250800B0A6E029E8D
:101A86000650800B069E0A18D8B450EF0DF00A5087
:101A9600D8B482EF0DF084EF0DF00750035CD8B494
:101AA6005AEF0DF0D8A076EF0DF07CEF0DF0065052
:101AB600025CD8B464EF0DF0D8A076EF0DF07CEFA1
:101AC6000DF00550015CD8B46EEF0DF0D8A076EF9E
:101AD6000DF07CEF0DF00450005CD8B486EF0DF0ED
:101AE600D8B07CEF0DF00A52D8B484EF0DF082EF37
:101AF6000DF00A52D8B482EF0DF084EF0DF0D880C5
:0E1B06001200D8901200D880D884120012006D
:101B1400F250026EF29E0500FF6A0150FE6E005004
:081B2400FD6E02BEF28E1200FC
:101B2C0096C300F003019607005228E092C3E9FF28
:101B3C0093C3EAFFEE50000A0CE092C3E9FF93C393
:101B4C00EAFF94C3D9FF95C3DAFFEE50DE1801E12A
:101B5C000FD092C3E9FF93C3EAFF94C3D9FF95C397
:101B6C00DAFFDE50EE5C006E016A000E015A08D0FE
:101B7C000301924B932B944B952BD2D7006A016A9D
:021B8C00120045
:101B8E0064C3E1FF65C3E2FF92C3E6FF62C300F0E8
:081B9E0063C301F0B8DF12007F
:101BA60092C3E9FF93C3EAFFEE500301941905E1DE
:101BB60092C300F093C301F010D092C300F093C318
:101BC60001F0924B932B00C0E9FF01C0EAFFEECF74
:0C1BD60000F00052E5E1006A016A120014
:101BE2000301B26BB36BA66BA76B94C300F095C3F2
:101BF20001F096C302F0010E9427000E952396235E
:101C020000C0F6FF01C0F7FF02C0F8FF0900F5CFE0
:101C120000F000C0A3F30052D8B4FEEF1DF0A351B0
:101C2200250A0BE092C3E1FF93C3E2FFA3C3E6FFE1
:101C3200924B932BB24BB32BD8D7A46BA56BA66B4D
:101C4200A76B23D0A687010E9427000E9523962317
:101C520059D0A681010E9427000E9523962352D0C7
:101C6200A683010E9427000E952396234BD0A787B7
:101C7200010E9427000E9523962344D0A685010ECB
:101C82009427000E952396233DD094C3F6FF95C367
:101C9200F7FF96C3F8FF0900F5CF01F001502D0AB6
:101CA200D1E094C3F6FF95C3F7FF96C3F8FF09008E
:101CB200F5CF01F00150200ACCE094C3F6FF95C3A2
:101CC200F7FF96C3F8FF0900F5CF01F001502B0A88
:101CD200C7E094C3F6FF95C3F7FF96C3F8FF090068
:101CE200F5CF01F00150230AC2E094C3F6FF95C379
:101CF200F7FF96C3F8FF0900F5CF01F00150300A53
:101D0200BDE001D09ED7A6A301D0A691A6A701D07F
:101D1200A69594C3F6FF95C3F7FF96C3F8FF090093
:101D2200F5CF00F0000E016E00C0BAF3FAEC05F038
:101D3200005236E0A46BA56BA4C300F0A5C301F06A
:101D42000A0E046E000E056E06EC06F094C3F6FF52
:101D520095C3F7FF96C3F8FF0900F5CF02F00250D2
:101D62000024A46F000E0120A56F300EA45F000EA8
:101D7200A55B010E9427000E9523962394C3F6FFCC
:101D820095C3F7FF96C3F8FF0900F5CF00F0000EE8
:101D9200016E00C0BAF3FAEC05F00052CDE133D087
:101DA20094C3F6FF95C3F7FF96C3F8FF0900F5CF7A
:101DB20001F001502A0A27E197C3E9FF98C3EAFF1D
:101DC200EECF00F0EECF01F000C0E9FF01C0EAFF64
:101DD200EECFA4F3EECFA5F397C3E9FF98C3EAFFD2
:101DE200020EEE24006E000EEE20016E97C3E1FF9C
:101DF20098C3E2FF00C0E6FF01C0E6FF010E942790
:101E0200000E9523962394C3F6FF95C3F7FF96C35E
:101E1200F8FF0900F5CF01F001502E0A70E1010E22
:101E22009427000E9523962394C3F6FF95C3F7FFDC
:101E320096C3F8FF0900F5CF01F001502A0A28E104
:101E420097C3E9FF98C3EAFFEECF00F0EECF01F0AF
:101E520000C0E9FF01C0EAFFEECFA1F3EECFA2F38B
:101E620097C3E9FF98C3EAFF020EEE24006E000E4C
:101E7200EE20016E97C3E1FF98C3E2FF00C0E6FFC8
:101E820001C0E6FF010E9427000E9523962336D05B
:101E9200A16BA26B94C3F6FF95C3F7FF96C3F8FF3D
:101EA2000900F5CF00F0000E016E00C0BAF3FAECA3
:101EB20005F0005223E0A1C300F0A2C301F00A0E14
:101EC200046E000E056E06EC06F094C3F6FF95C391
:101ED200F7FF96C3F8FF0900F5CF02F00250002485
:101EE200A16F000E0120A26F300EA15F000EA25B57
:101EF200010E9427000E95239623CCD703D0A16B15
:101F0200A26BA78994C300F095C301F096C302F0B7
:101F1200010E9427000E9523962300C0F6FF01C000
:101F2200F7FF02C0F8FF0900F5CFA3F3F9D0B2C35F
:101F320000F0B3C301F002EF1EF0A689E3D7A78534
:101F42002ED1A68BA7812BD1A78329D1A68D27D1EC
:101F520026D1A68BA68F23D197C3E9FF98C3EAFFA8
:101F6200EECF00F0EECF01F000C0E9FF01C0EAFFC2
:101F7200EECFAEF3EECFAFF397C3E9FF98C3EAFF1C
:101F8200020EEE24006E000EEE20016E97C3E1FFFA
:101F920098C3E2FF00C0E6FF01C0E6FF000EAF19E2
:101FA20002E1000EAE1904E1450EAE6F000EAF6FF6
:101FB200B06BB16BB051AE25E96EB151AF21EA6E93
:101FC200EE520BE0010EB025006E000EB121016E43
:101FD20000C0B0F301C0B1F3EDD7A151A2110AE0E4
:101FE200B151A25D02E1B051A15D04E2A1C3B0F31F
:101FF200A2C3B1F3A551B15D02E1A451B05D05E206
:10200200B051A45FB151A55B02D0A46BA56BA6B77A
:1020120016D0A4C300F0A5C301F0010EA45F000E08
:10202200A55B005001100BE092C3E1FF93C3E2FFF6
:10203200200EE66E924B932BB24BB32BEAD7B0C372
:1020420002F0B1C303F0010EB05D006E000EB15993
:10205200016E00C0B0F301C0B1F30250031019E0E9
:10206200AEC3E9FFAFC3EAFF92C3E1FF93C3E2FF4E
:10207200EECFE6FF924B932B010EAE25006E000EC3
:10208200AF21016E00C0AEF301C0AFF3B24BB32B70
:10209200D6D7A6A716D0A4C300F0A5C301F0010E9F
:1020A200A45F000EA55B005001100BE092C3E1FF9C
:1020B20093C3E2FF200EE66E924B932BB24BB32BEF
:1020C200EAD793D597C3E9FF98C3EAFFEECF00F0B2
:1020D200EECF01F000C0E9FF01C0EAFFEECFA3F3AB
:1020E20097C3E9FF98C3EAFF020EEE24006E000ECA
:1020F200EE20016E97C3E1FF98C3E2FF00C0E6FF46
:1021020001C0E6FFA30EAE6F030EAF6F010EB06FFC
:10211200000EB16F62D7C00EA613000EA7133FD0F8
:10212200A351000AD8B403D7A3516C0AD8B405D777
:10213200A3514C0AD8B401D7A351660AD8B4FFD62A
:10214200A351450AD8B4FDD6A351650AD8B4FAD62C
:10215200A351670AD8B4F8D6A3516F0AD8B4F6D6F9
:10216200A351640AD8B4F4D6A351690AD8B4F0D6FC
:10217200A351700AD8B4EDD6A351580AD8B4E9D6FF
:10218200A351780AD8B4E6D6A351730AD8B4E4D6D8
:10219200A351630A97E0A351750ABDE0B3D7000EBD
:1021A200A615006EA751070B016E00500110D8B49E
:1021B200A5EF19F0A7A904D0060EA16F000EA26F19
:1021C20097C3E9FF98C3EAFFEECF00F0EECF01F02C
:1021D20000C0E9FF01C0EAFFEECFA8F3EECFA9F3FA
:1021E200EECFAAF3EECFABF397C3E9FF98C3EAFFB2
:1021F200040EEE24006E000EEE20016E97C3E1FF86
:1022020098C3E2FF00C0E6FF01C0E6FF046A056A68
:10221200066A076AA8C300F0A9C301F0AAC302F0C4
:10222200ABC303F00FDC010ED8B0000E006E0052FB
:1022320005E0AA7F030EA613000EA713AC6BAD6BCD
:10224200A8C300F0A9C301F0AAC302F0ABC303F014
:10225200046A056A066A076AA8EC0CF0000ED8A4A4
:10226200010E006E0052D8B48AD0ABC300F0016AEE
:10227200026A036AFF0E0016000E01167E0E005E51
:10228200000E015A00C0ACF301C0ADF3010E005EB6
:10229200000E015A00C0ACF301C0ADF3030E046E90
:1022A200000E056E06EC06F000C0ACF301C0ADF303
:1022B2000A0E046E000E056EBFEC0CF000C0ACF30B
:1022C20001C0ADF3800E0118026E800E025C02E1C5
:1022D200000E005C05E2010E0301AC5F000EAD5B77
:1022E2000301AC510008BA6FCAEC09F0A8C304F0AC
:1022F200A9C305F0AAC306F0ABC307F0B4EC03F020
:1023020000C0AEF301C0AFF302C0B0F303C0B1F33B
:10231200000E046E000E056E000E066E7F0E076E36
:10232200AEC300F0AFC301F0B0C302F0B1C303F01B
:1023320023EC0DF0010ED8B0000E006E005205E045
:10234200010EAC5F000EAD5B1AD0000E046E000EE3
:10235200056E200E066E820E076EAEC300F0AFC38E
:1023620001F0B0C302F0B1C303F023EC0DF0000E94
:10237200D8B0010E006E005202E0AC4BAD2B800EC5
:10238200006E800EAD19005C02E1AC51000803E35F
:10239200010EA36F02D0ACC3A3F3A7B118D0A7A3B9
:1023A20015D0800EAD19006E7F0E005C02E1FC0EAE
:1023B200AC5D0BE3800EAD19006E800EA219005CBD
:1023C20002E1A151AC5D01E201D001D0EFD3A151F4
:1023D200A21106E0A7A304D0010EA15F000EA25B2A
:1023E200A251000802E1A151080803E2080EA36FFE
:1023F20002D0A1C3A3F3A8C300F0A9C301F0AAC3EA
:1024020002F0ABC303F0046A056A066A076AA8EC25
:102412000CF0000ED8A4010E006E0052D8B44BD1BD
:10242200ACC3BAF3CAEC09F000C004F001C005F075
:1024320002C006F003C007F0A8C300F0A9C301F070
:10244200AAC302F0ABC303F0A2EC04F000C0A8F3ED
:1024520001C0A9F302C0AAF303C0ABF30301A35165
:102462000008BA6FCAEC09F000C004F001C005F020
:1024720002C006F003C007F0A8C300F0A9C301F030
:10248200AAC302F0ABC303F0A2EC04F000C0B4F3A1
:1024920001C0B5F302C0B6F303C0B7F3B4C3A8F3E7
:1024A200B5C3A9F3B6C3AAF3B7C3ABF3B4C300F081
:1024B200B5C301F0B6C302F0B7C303F05FEC05F099
:1024C2002EEC06F000C004F001C005F002C006F0D8
:1024D20003C007F0B4C300F0B5C301F0B6C302F005
:1024E200B7C303F050EC08F0000E046E000E056E48
:1024F200000E066E7E0E076E23EC0DF0000ED8B0B5
:10250200010E006E00521AE0A8C300F0A9C301F048
:10251200AAC302F0ABC303F0000E046E000E056EF8
:10252200000E066E7E0E076E5FEC01F000C0A8F38F
:1025320001C0A9F302C0AAF303C0ABF3A8C300F021
:10254200A9C301F0AAC302F0ABC303F05FEC05F02C
:102552000301A351010F096E0A6A000E0A2209C083
:1025620004F00AC005F0000E0ABEFF0E066E076EEA
:1025720004360490053606360736043604900536CE
:1025820006360736F10E0424F66E420E0520F76E6B
:10259200000E0620F86E0900F5CF05F00900F5CF10
:1025A20006F00900F5CF07F00900F5CF08F0085052
:1025B200035C08E10750025C05E10650015C02E1A0
:1025C2000550005C1EE30301A8C300F0A9C301F09B
:1025D200AAC302F0ABC303F0CD0E046ECC0E056E9F
:1025E2004C0E066E7B0E076EB4EC03F000C0A8F32F
:1025F20001C0A9F302C0AAF303C0ABF3AC4BAD2BED
:102602005AD0A8C300F0A9C301F0AAC302F0ABC319
:1026120003F05FEC05F0A3C304F0000E056E066E36
:10262200076E0436049005360636073604360490E3
:10263200053606360736F10E0424F66E420E0520E4
:10264200F76E000E0620F86E0900F5CF05F00900BE
:10265200F5CF06F00900F5CF07F00900F5CF08F035
:102662000850035C08E10750025C05E10650015C7A
:1026720002E10550005C1FE20301A8C300F0A9C3F8
:1026820001F0AAC302F0ABC303F0000E046E000E09
:10269200056E200E066E820E076EB4EC03F000C0CB
:1026A200A8F301C0A9F302C0AAF303C0ABF3010E61
:1026B200AC5F000EAD5B0301A7A393D0A7B791D087
:1026C200800E000A006E800EA219005C02E1A15188
:1026D2000A0804E20A0EA16F000EA26FA8C300F05E
:1026E200A9C301F0AAC302F0ABC303F05FEC05F08B
:1026F20000C0AEF301C0AFF302C0B0F303C0B1F348
:10270200AE51AF11B011B11142E00A0E046E000ECB
:10271200056E066E076EAEC300F0AFC301F0B0C324
:1027220002F0B1C303F054EC08F008C000F009C095
:1027320001F00AC002F00BC003F0000E046E031891
:1027420008E10450021805E10450011802E10050AA
:10275200000A1DE1010EA15F000EA25B0A0E046ECB
:10276200000E056E066E076EAEC300F0AFC301F039
:10277200B0C302F0B1C303F054EC08F000C0AEF3F2
:1027820001C0AFF302C0B0F303C0B1F3B9D7800EFA
:10279200A219006E800E005C02E1A351A15D21E24C
:1027A200A151A35DBA6FCAEC09F000C004F001C0E8
:1027B20005F002C006F003C007F0A8C300F0A9C3E9
:1027C20001F0AAC302F0ABC303F0A2EC04F000C014
:1027D200A8F301C0A9F302C0AAF303C0ABF3A1C3DB
:1027E200A3F3050E0301A125006E000EA221016EC6
:1027F2000050A45F0150A55BA151A21103E1A7B74C
:1028020001D004D0010EA45F000EA55B030EA61535
:10281200006EA7C301F0000E01160050011004E083
:10282200010EA45F000EA55BA6A539D0A6A312D007
:10283200A6A103D02D0E996F02D02B0E996F92C3D1
:10284200E1FF93C3E2FF99C3E6FF924B932BB24B96
:10285200B32B0CD0A6A10AD092C3E1FF93C3E2FF2F
:10286200200EE66E924B932BB24BB32B800E006E72
:10287200800EA519005C02E1A45100080FE292C388
:10288200E1FF93C3E2FF300EE66E924B932BB24B05
:10289200B32B010EA45F000EA55BE8D73AD0A6B712
:1028A20018D0800E006E800EA519005C02E1A451C2
:1028B20000080FE292C3E1FF93C3E2FF200EE66E2F
:1028C200924B932BB24BB32B010EA45F000EA55B70
:1028D200E8D7A6A312D0A6A103D02D0E9A6F02D0DC
:1028E2002B0E9A6F92C3E1FF93C3E2FF9AC3E6FFF6
:1028F200924B932BB24BB32B0CD0A6A10AD092C30E
:10290200E1FF93C3E2FF200EE66E924B932BB24B94
:10291200B32BA8C300F0A9C301F0AAC302F0ABC352
:1029220003F05FEC05F000C0AEF301C0AFF302C0EC
:10293200B0F303C0B1F3A3C300F0000E016E026E48
:10294200036E0036009001360236033600360090E0
:10295200013602360336F10E0024F66E420E0120D5
:10296200F76E000E0220F86E0900F5CF04F00900A0
:10297200F5CF05F00900F5CF06F00900F5CF07F015
:10298200AEC300F0AFC301F0B0C302F0B1C303F0B5
:1029920054EC08F0300E002692C3E1FF93C3E2FF2D
:1029A20000C0E6FF924B932BB24BB32BA151A21165
:1029B20003E1A7B701D06FD092C3E1FF93C3E2FF57
:1029C2002E0EE66E924B932BB24BB32BA351A15F0B
:1029D200000EA25BA3534DE0A307A3C300F0000EB9
:1029E200016E026E036E0036009001360236033627
:1029F20000360090013602360336F10E0024F66EE0
:102A0200420E0120F76E000E0220F86E0900F5CF8B
:102A120004F00900F5CF05F00900F5CF06F0090032
:102A2200F5CF07F0AEC300F0AFC301F0B0C302F0C0
:102A3200B1C303F054EC08F00A0E046E000E056EEA
:102A4200066E076E54EC08F008C000F009C001F0F1
:102A52000AC002F00BC003F0300E002692C3E1FF61
:102A620093C3E2FF00C0E6FF924B932BB24BB32B12
:102A7200B1D7A151A2110FE092C3E1FF93C3E2FFCC
:102A8200300EE66E924B932BB24BB32B010EA15F2D
:102A9200000EA25BEED7A6AB0BD092C3E1FF93C3AD
:102AA200E2FF450EE66E924B932BB24BB32B0AD04C
:102AB20092C3E1FF93C3E2FF650EE66E924B932B46
:102AC200B24BB32B800EAD19006E800E005C02E19A
:102AD200000EAC5D11E2AC510008AC6FAD51000EBE
:102AE200AD5792C3E1FF93C3E2FF2D0EE66E924B08
:102AF200932BB24BB32B0AD092C3E1FF93C3E2FFF5
:102B02002B0EE66E924B932BB24BB32B0A0E046E36
:102B1200000E056EACC300F0ADC301F0BFEC0CF0CB
:102B2200300E002692C3E1FF93C3E2FF00C0E6FF2E
:102B32000301924B932BB24BB32B0A0E046E000E81
:102B4200056EACC300F0ADC301F0BFEC0CF008C0E1
:102B520000F009C001F0300E002692C3E1FF93C3DA
:102B6200E2FF00C0E6FF0301924B932BB24BB32B63
:102B7200A6A71AD0800E006E800EA519005C02E195
:102B8200A451000811E292C3E1FF93C3E2FF200EB9
:102B9200E66E924B932BB24BB32B010EA45F000E49
:102BA200A55BA451A511EFE1F6EF0DF0A7A3F3D0B9
:102BB200800EAD19006E800E005C02E1000EAC5D6D
:102BC2000AE2010EAC5D006E000EAD59016E0050BE
:102BD200A15F0150A25BA8C300F0A9C301F0AAC380
:102BE20002F0ABC303F05FEC05F000C0AEF301C02E
:102BF200AFF302C0B0F303C0B1F3010EA36FA35150
:102C02000A0A34E0A3C300F0000E016E026E036EE6
:102C12000036009001360236033600360090013647
:102C220002360336F10E0024F66E420E0120F76ED4
:102C3200000E0220F86E0900F5CF01F00900F5CF71
:102C420002F00900F5CF03F00900F5CF04F00450BB
:102C5200B15D08E10350B05D05E10250AF5D02E1F4
:102C62000150AE5D01E202D0A32BC9D7A351A15DF1
:102C7200B86F000EA259B96FB8C3A1F3B9C3A2F3DA
:102C8200AEC300F0AFC301F0B0C302F0B1C303F0B2
:102C92002EEC06F000C004F001C005F002C006F000
:102CA20003C007F0A8C300F0A9C301F0AAC302F051
:102CB200ABC303F050EC08F000C0B4F301C0B5F3AD
:102CC20002C0B6F303C0B7F3B8C3BAF3CAEC09F053
:102CD200B4C304F0B5C305F0B6C306F0B7C307F03A
:102CE200B4EC03F0000E046E000E056E000E066ECC
:102CF2007E0E076E5FEC01F05FEC05F000C0AEF3F4
:102D020001C0AFF302C0B0F303C0B1F3A151A211ED
:102D120042E00A0E046E000E056E066E076EAEC32A
:102D220000F0AFC301F0B0C302F0B1C303F054EC42
:102D320008F008C000F009C001F00AC002F00BC0A0
:102D420003F0000E046E031808E10450021805E1B6
:102D52000450011802E10050000A1DE10A0E046E3F
:102D6200000E056E066E076EAEC300F0AFC301F033
:102D7200B0C302F0B1C303F054EC08F000C0AEF3EC
:102D820001C0AFF302C0B0F303C0B1F3010EA15F03
:102D9200000EA25BBBD7800E006E800EA219005CF3
:102DA20002E1A1510C0816E3A1C3BAF341EC06F00B
:102DB200A8C304F0A9C305F0AAC306F0ABC307F089
:102DC2005FEC01F000C0A8F301C0A9F302C0AAF3AE
:102DD20003C0ABF3A8C300F0A9C301F0AAC302F079
:102DE200ABC303F0046A056A066A076AA8EC0CF032
:102DF200000ED8A4010E006E0052D8B477D0A8C33A
:102E020000F0A9C301F0AAC302F0ABC303F05FEC68
:102E120005F0000E046E031808E10450021805E1E3
:102E22000450011802E10050000A60E1800E006EB9
:102E3200800EAD19005C02E1AC51010857E2ACC34F
:102E4200BAF3CAEC09F000C004F001C005F002C0F8
:102E520006F003C007F0A8C300F0A9C301F0AAC39B
:102E620002F0ABC303F0A2EC04F05F0E046E700E2E
:102E7200056E090E066E810E076E23EC0DF0010E33
:102E8200D8B0000E006E005206E0090E0301AC5FDE
:102E9200000EAD5B05D00301080EAC5F000EAD5B0A
:102EA200ACC3BAF3CAEC09F000C004F001C005F0EB
:102EB20002C006F003C007F0A8C300F0A9C301F0E6
:102EC200AAC302F0ABC303F0A2EC04F05FEC05F07E
:102ED20000C0AEF301C0AFF302C0B0F303C0B1F360
:102EE2000301A86BA96BAA6BAB6B38D0A8C300F027
:102EF200A9C301F0AAC302F0ABC303F05FEC05F073
:102F020000C0AEF301C0AFF302C0B0F303C0B1F32F
:102F1200AEC300F0AFC301F0B0C302F0B1C303F01F
:102F22002EEC06F000C004F001C005F002C006F06D
:102F320003C007F0A8C300F0A9C301F0AAC302F0BE
:102F4200ABC303F050EC08F000C0A8F301C0A9F332
:102F520002C0AAF303C0ABF3AC6BAD6B010EA36F5F
:102F6200A3510A0A34E0A3C300F0000E016E026E00
:102F7200036E0036009001360236033600360090AA
:102F8200013602360336F10E0024F66E420E01209F
:102F9200F76E000E0220F86E0900F5CF01F009006D
:102FA200F5CF02F00900F5CF03F00900F5CF04F0E8
:102FB2000450B15D08E10350B05D05E10250AF5D20
:102FC20002E10150AE5D01E202D0A32BC9D7A351A9
:102FD200A125006E000EA221016EAC510026AD515A
:102FE20001220050A45F0150A55BA7B704D0A151F4
:102FF200A21101E104D0010EA45F000EA55B030E35
:10300200A615006EA7C301F0000E011600500110B4
:1030120004E0010EA45F000EA55BA6A539D0A6A30D
:1030220012D0A6A103D02D0E9B6F02D02B0E9B6F48
:1030320092C3E1FF93C3E2FF9BC3E6FF924B932B44
:10304200B24BB32B0CD0A6A10AD092C3E1FF93C31B
:10305200E2FF200EE66E924B932BB24BB32B800E07
:10306200006E800EA519005C02E1A45100080FE277
:1030720092C3E1FF93C3E2FF300EE66E924B932BB5
:10308200B24BB32B010EA45F000EA55BE8D73AD07A
:10309200A6B718D0800E006E800EA519005C02E162
:1030A200A45100080FE292C3E1FF93C3E2FF200E96
:1030B200E66E924B932BB24BB32B010EA45F000E24
:1030C200A55BE8D7A6A312D0A6A103D02D0E9C6FB4
:1030D20002D02B0E9C6F92C3E1FF93C3E2FF9CC30D
:1030E200E6FF924B932BB24BB32B0CD0A6A10AD086
:1030F20092C3E1FF93C3E2FF200EE66E924B932B45
:10310200B24BB32BA3C300F0A30700524CE0A3C3FE
:1031120000F0000E016E026E036E00360090013662
:103122000236033600360090013602360336F10EBF
:103132000024F66E420E0120F76E000E0220F86E99
:103142000900F5CF04F00900F5CF05F00900F5CF2D
:1031520006F00900F5CF07F0AEC300F0AFC301F0EF
:10316200B0C302F0B1C303F054EC08F00A0E046ECF
:10317200000E056E066E076E54EC08F008C000F0F3
:1031820009C001F00AC002F00BC003F0300E0026A5
:1031920092C3E1FF93C3E2FF00C0E6FF924B932B81
:1031A200B24BB32BAFD7800E006E800EAD19005C10
:1031B20002E1AC5100080FE292C3E1FF93C3E2FFC8
:1031C200300EE66E924B932BB24BB32B010EAC5FDB
:1031D200000EAD5BE8D7800E000A006E800EA219C9
:1031E200005C02E1A151080803E2080EA36F02D0BD
:1031F200A1C3A3F3A351A15F000EA25BA35303E1FA
:10320200A7B701D00AD092C3E1FF93C3E2FF2E0E0B
:10321200E66E924B932BB24BB32BA3C3BAF3CAEC19
:1032220009F0A8C304F0A9C305F0AAC306F0ABC312
:1032320007F0B4EC03F0B7EC07F000C0AEF301C046
:10324200AFF302C0B0F303C0B1F3A3534DE0A30741
:10325200A3C300F0000E016E026E036E00360090F2
:103262000136023603360036009001360236033646
:10327200F10E0024F66E420E0120F76E000E0220BF
:10328200F86E0900F5CF04F00900F5CF05F009004A
:10329200F5CF06F00900F5CF07F0AEC300F0AFC3DB
:1032A20001F0B0C302F0B1C303F054EC08F00A0E0F
:1032B200046E000E056E066E076E54EC08F008C030
:1032C20000F009C001F00AC002F00BC003F0300E9A
:1032D200002692C3E1FF93C3E2FF00C0E6FF924BD8
:1032E200932BB24BB32BB1D7A151A2110FE092C3D2
:1032F200E1FF93C3E2FF300EE66E924B932BB24B8B
:10330200B32B010EA15F000EA25BEED7A6A71AD0C7
:10331200800E006E800EA519005C02E1A451000827
:1033220011E292C3E1FF93C3E2FF200EE66E924BDD
:10333200932BB24BB32B010EA45F000EA55BA451DD
:10334200A511EFE1F6EF0DF0C00EA615016EA7C3B1
:1033520002F0000E0216000E021802E1000E011821
:10336200D8A480D0A6A927D097C3E9FF98C3EAFFC3
:10337200EECF00F0EECF01F000C0E9FF01C0EAFF9E
:10338200EECFAEF3EECFAFF3EECFB0F3EECFB1F3BD
:1033920097C3E9FF98C3EAFF040EEE24006E000E05
:1033A200EE20016E97C3E1FF98C3E2FF00C0E6FF83
:1033B20001C0E6FF2FD097C3E9FF98C3EAFFEECF23
:1033C20000F0EECF01F000C0E9FF01C0EAFFEECF4E
:1033D20000F0EECF01F0000E01BEFF0E026E036E92
:1033E20000C0AEF301C0AFF302C0B0F303C0B1F34B
:1033F20097C3E9FF98C3EAFF020EEE24006E000EA7
:10340200EE20016E97C3E1FF98C3E2FF00C0E6FF22
:1034120001C0E6FF800EB119006E800E005C08E16B
:10342200000EB05D05E1000EAF5D02E1000EAE5D83
:1034320018E2030EA613000EA713006A016A026ABD
:10344200036AAE51005EAF51015AB051025AB151F6
:10345200035A00C0AEF301C0AFF302C0B0F303C021
:10346200B1F34ED0A6A927D097C3E9FF98C3EAFFCC
:10347200EECF00F0EECF01F000C0E9FF01C0EAFF9D
:10348200EECFAEF3EECFAFF3EECFB0F3EECFB1F3BC
:1034920097C3E9FF98C3EAFF040EEE24006E000E04
:1034A200EE20016E97C3E1FF98C3E2FF00C0E6FF82
:1034B20001C0E6FF25D097C3E9FF98C3EAFFEECF2C
:1034C20000F0EECF01F000C0E9FF01C0EAFFEECF4D
:1034D200AEF3EECFAFF3000EB06FB16F97C3E9FF5B
:1034E20098C3EAFF020EEE24006E000EEE20016E7B
:1034F20097C3E1FF98C3E2FF00C0E6FF01C0E6FF09
:10350200000EA21902E1000EA1190FE1000E006ED9
:10351200B11908E10050B01905E10050AF1902E1FC
:10352200AE51000A02E1A14BA22BC00EA615006EFD
:1035320000C005F0AED0010EA36FA3510A0A34E019
:10354200A3C300F0000E016E026E036E00360090FF
:103552000136023603360036009001360236033653
:10356200F10E0024F66E420E0120F76E000E0220CC
:10357200F86E0900F5CF01F00900F5CF02F009005D
:10358200F5CF03F00900F5CF04F00450B15D08E176
:103592000350B05D05E10250AF5D02E10150AE5D46
:1035A20001E202D0A32BC9D782D0010EA36FA3518F
:1035B200080A34E0A3C300F0000E016E026E036E2F
:1035C200003600900136023603360036009001368E
:1035D20002360336190E0024F66E430E0120F76EF2
:1035E200000E0220F86E0900F5CF01F00900F5CFB8
:1035F20002F00900F5CF03F00900F5CF04F0045002
:10360200B15D08E10350B05D05E10250AF5D02E13A
:103612000150AE5D01E202D0A32BC9D748D0010E02
:10362200A36FA3510C0A34E0A3C300F0000E016E95
:10363200026E036E00360090013602360336003603
:103642000090013602360336C10E0024F66E420E99
:103652000120F76E000E0220F86E0900F5CF01F08E
:103662000900F5CF02F00900F5CF03F00900F5CF0C
:1036720004F00450B15D08E10350B05D05E1025071
:10368200AF5D02E10150AE5D01E202D0A32BC9D7CA
:103692000ED00550000AD8B44ED70550C00AD8B48F
:1036A2004AD70550800A81E00550400AB8E0800EF2
:1036B200006E800EA219005C02E1A151A35D03E23B
:1036C200A1C3A3F30DD0800EA219006E800E005C80
:1036D20002E1A351A15D04E2A3C3A1F3000EA26F14
:1036E200A451A5110EE0030EA615006EA7C301F0AA
:1036F200000E01160050011004E0010EA45F000E3E
:10370200A55B800EA219006E800EA519005C02E175
:10371200A451A15D05E2A151A45FA251A55B02D013
:10372200A46BA56BC40EA615016EA751080B026E01
:103732000250080A02E1400E011808E1A451A51145
:1037420004E0010EA45F000EA55B1CD0C00EA615FE
:10375200016EA751080B026E0250080A02E1800EA8
:10376200011810E1800E006E800EA519005C02E1C6
:10377200A451020805E2020EA45F000EA55B02D06E
:10378200A46BA56BA6A55DD0A6A312D0A6A103D05B
:103792002D0E9D6F02D02B0E9D6F92C3E1FF93C33E
:1037A200E2FF9DC3E6FF924B932BB24BB32B34D077
:1037B200A6A10BD092C3E1FF93C3E2FF200EE66EF7
:1037C200924B932BB24BB32B27D0C00EA615016E92
:1037D200A751080B026E0250080A02E1800E01187E
:1037E2001BE192C3E1FF93C3E2FF300EE66E924B00
:1037F200932BB24BB32BA6AB03D0580E9E6F02D0C5
:10380200780E9E6F92C3E1FF93C3E2FF9EC3E6FF71
:10381200924B932BB24BB32BA451A51111E092C33F
:10382200E1FF93C3E2FF300EE66E924B932BB24B55
:10383200B32B010EA45F000EA55BA451A511EFE10D
:1038420074D0A451A51113E0A6B711D092C3E1FF21
:1038520093C3E2FF200EE66E924B932BB24BB32B37
:10386200010EA45F000EA55BA451A511EFE1A6A372
:1038720012D0A6A103D02D0E9F6F02D02B0E9F6FE8
:1038820092C3E1FF93C3E2FF9FC3E6FF924B932BE8
:10389200B24BB32B0CD0A6A10AD092C3E1FF93C3C3
:1038A200E2FF200EE66E924B932BB24BB32BC00E6F
:1038B200A615016EA751080B026E0250080A02E11A
:1038C200400E01180BE192C3E1FF93C3E2FF300EF9
:1038D200E66E924B932BB24BB32B27D0C00EA6159C
:1038E200016EA751080B026E0250080A02E1800E17
:1038F20001181BE192C3E1FF93C3E2FF300EE66EB3
:10390200924B932BB24BB32BA6AB03D0580EA06FA6
:1039120002D0780EA06F92C3E1FF93C3E2FFA0C36F
:10392200E6FF924B932BB24BB32B800E006E800EB0
:10393200A219005C02E1A151A35D0BE292C3E1FF77
:1039420093C3E2FF300EE66E924B932BB24BB32B36
:10395200ECD7A1C300F0A2C301F0010EA15F000EDB
:10396200A25B00500110D8B42AD1C00EA615006E79
:1039720000C0B4F30AD1A1C300F0A2C301F0000E4B
:10398200A2BFFF0E026E036E0036009001360236B1
:10399200033600360090013602360336F10E00245B
:1039A200F66E420E0120F76E000E0220F86E09003C
:1039B200F5CF04F00900F5CF05F00900F5CF06F0C8
:1039C2000900F5CF07F0AEC300F0AFC301F0B0C3FA
:1039D20002F0B1C303F054EC08F00A0E046E000EBC
:1039E200056E066E076E54EC08F008C000F009C0C0
:1039F20001F00AC002F00BC003F0300E0024A36FE6
:103A0200D3D0A6AB45D0A1C300F0A2C301F0000EF3
:103A1200A2BFFF0E026E036E003600900136023620
:103A2200033600360090013602360336190E0024A2
:103A3200F66E430E0120F76E000E0220F86E0900AA
:103A4200F5CF04F00900F5CF05F00900F5CF06F037
:103A52000900F5CF07F0AEC300F0AFC301F0B0C369
:103A620002F0B1C303F054EC08F00F0E0016000E82
:103A72000116021603164A0E0024F66E430E0120AA
:103A8200F76E000E0220F86E0900F5CFA3F344D0C2
:103A9200A1C300F0A2C301F0000EA2BFFF0E026E8E
:103AA200036E00360090013602360336003600906F
:103AB200013602360336190E0024F66E430E01203B
:103AC200F76E000E0220F86E0900F5CF04F009002F
:103AD200F5CF05F00900F5CF06F00900F5CF07F0A4
:103AE200AEC300F0AFC301F0B0C302F0B1C303F044
:103AF20054EC08F00F0E0016000E01160216031603
:103B0200390E0024F66E430E0120F76E000E0220DD
:103B1200F86E0900F5CFA3F347D0A1C300F0A2C30A
:103B220001F0000EA2BFFF0E026E036E003600907F
:103B3200013602360336003600900136023603366D
:103B4200C10E0024F66E420E0120F76E000E022016
:103B5200F86E0900F5CF04F00900F5CF05F0090071
:103B6200F5CF06F00900F5CF07F0AEC300F0AFC302
:103B720001F0B0C302F0B1C303F054EC08F0070E39
:103B82000014A36F300EA3270FD0B451000AD8B48B
:103B9200F2D6B451C00AD8B4EED6B451800AD8B421
:103BA20030D7B451400AB9E092C3E1FF93C3E2FFB8
:103BB200A3C3E6FF924B932BB24BB32BCAD6A6A755
:103BC2001AD0800E006E800EA519005C02E1A4518D
:103BD200000811E292C3E1FF93C3E2FF200EE66EFA
:103BE200924B932BB24BB32B010EA45F000EA55B3D
:103BF200A451A511EFE1F6EF0DF0B2C300F0B3C38B
:043C020001F01200BB
:103C060092C302F093C303F002C000F003C001F0B8
:103C1600024A032A00C0E9FF01C0EAFFEE5201E0B2
:103C2600F3D703019251025C006E93510358016E63
:0A3C3600010E005E000E015A12009C
:103C4000000E0301881902E1000E871936E087C3D0
:103C5000E9FF88C3EAFFEE5230E089C392F38AC3DA
:103C600093F3D1DF00C096F387C392F388C393F335
:103C700089C394F38AC395F396EC0DF0000E0118F6
:103C800002E1000E001805E187C300F088C301F0CF
:103C900016D0010E03018725926F000E8821936FC5
:103CA00089C3E9FF8AC3EAFFEECF94F3D3EC0DF0AA
:103CB00000C087F301C088F3C3D7006A016A12000D
:103CC00003018A6B87C3E9FF88C3EAFFEECF89F35C
:103CD0008951000A0FE089C392F3C7EC0DF003018C
:103CE0008A2B8A518725E96E000E8821EA6EEECF75
:063CF00089F3EED712007B
:103CF6008C0E0301906F030E916F87C392F388C3F6
:103D060093F389C394F38AC395F38BC396F3900E0A
:103D1600976F030E986FF1EC0DF000C08EF301C0A3
:103D26008FF300508725E16E01508821E26EE66A26
:0A3D36008EC300F08FC301F01200ED
:103D40000C6A0E6A0250D8A4B9EF1EF001C002F04E
:103D500000C001F0006A0E860250D8A4B9EF1EF030
:103D600001C002F0016A0E960E880250D8B4CBEF63
:103D70001EF00E50035ED8A4D8A0D1EF1EF0D8904C
:103D800002BED7EF1EF0003601360236032EC0EF1A
:103D90001EF0D1EF1EF0010E0C6E56EC00F0DBEFC2
:103DA0001EF0020E0C6E61EC00F0DBEF1EF0040E54
:083DB0000C6E5DEC00F0120046
:103DB80003018A6B87C3E9FF88C3EAFFEECF89F363
:103DC8008951000A0FE089C3BFF36FEC03F00301C8
:103DD8008A2B8A518725E96E000E8821EA6EEECF7C
:063DE80089F3EED7120082
:103DEE00DE0E0301626F060E636FBF0E646F030E6D
:103DFE00656F560E5E6F3E0E5F6F000E606F000EAB
:103E0E00616FFF0E6C6FFF0E6D6F000E6E6F000E0A
:103E1E006F6FFF0E686FFF0E696F000E6A6F000EF8
:103E2E006B6FAC8A900EAB6E948E949C9EAA03D050
:083E3E00AECF00F0FBD712002B
:103E46000900F5CFE6FF0006FBE10106F9E11200E5
:103E5600AECF01F0ABA202D0AB98AB8801C000F0A8
:023E6600120048
:103E68004C0E0301876F000E886F190E896F000EC4
:103E78008A6FE2DE00C04CF301C04DF3000E01185A
:103E880002E1000E00184AE02B0E0301876F000EB6
:103E9800886F12DF120E726F000E736F800E731927
:103EA800006E800E005C02E11B0E725D0EE2725124
:103EB8004C25E96E73514D21EA6EEECF92F3C7ECB3
:103EC8000DF00301724B732BE9D70D0E926FC7ECFF
:103ED8000DF0200E0301876F000E886FEDDE1E0EB9
:103EE800726F000E736F800E7319006E800E005C87
:103EF80002E1280E725D0EE272514C25E96E735193
:103F08004D21EA6EEECF92F3C7EC0DF00301724B30
:0E3F1800732BE9D70D0E926FC7EC0DF012005F
:103F260081A409D08A988A9A8A8C010E0301586F57
:103F3600000E596F13D081A609D003018A988A8A88
:103F46008A9C020E586F000E596F08D003018A88AA
:0E3F56008A9A8A9C030E586F000E596F120053
:103F6400780E0301876F030E886F5B0E896F430E13
:103F74008A6F000E8B6F72C38CF373C38DF3B9DE3B
:103F84003A0E876F000E886F15DF780E876F030E69
:103F9400886F10DF0D0EBF6F6FEC03F07D0E030111
:103FA400876F030E886F5E0E896F430E8A6F000E53
:103FB4008B6F74C38CF375C38DF39BDE350E876FE3
:103FC400000E886FF7DE7D0E876F030E886FF2DEBA
:103FD4000D0EBF6F6FEC03F0820E0301876F030EAB
:103FE400886F610E896F430E8A6F000E8B6F76C3E4
:103FF4008CF377C38DF37DDE3F0E876F000E886FE1
:10400400D9DE820E876F030E886FD4DE0D0EBF6F6C
:064014006FEC03F0120046
:10401A000B6A0350D8B453EF20F002500A6E028E96
:10402A008E0E035E03AE57EF20F0036C080E035C9E
:10403A00D8A032EF20F0036E013602C001F0026A06
:10404A00080E035CD8A032EF20F0036E0136016A35
:10405A000350D8A4D8903CEF20F00350D8B43CEFDA
:10406A0020F0D89002320132032E36EF20F00BBC3A
:10407A0001A049EF20F0D8A049EF20F0012AD8B4D6
:10408A00022A02BE66EF20F00AAE6CEF20F0021E92
:10409A00011E012AD8B4022A6CEF20F0026A016AD2
:1040AA006CEF20F00B800BAE70EF20F0026A0AAEC4
:1040BA0070EF20F0FF0E026E016E0A36023270EFC8
:1040CA0020F0010E0C6E76EC03F072EF20F0000E79
:1040DA000C6E72EF20F0FF0E0C6E0150006E025053
:0440EA00016E120051
:1040EE0000C008F00150006E016A026A036A0B6A92
:1040FE000C6A016A026A036A960E036E0A6A00AEC1
:10410E008FEF20F0081E001E082AD8B4002A0A8E4F
:10411E0000C001F008C000F0086A026A0ADE120050
:10412E00B2EC21F0C186C184C182C180B886020E74
:10413E00B06E080EAF6EAC8453DEF28EF28C9D8A9A
:10414E00F288F19CF086F19A9D80CD8ACD88B18E51
:10415E000B0ECF6EDC0ECE6ECD80926A0F0E936E6E
:10416E00956A949C948E94905451551153E0524BF1
:10417E00532B546B556B000E531902E10A0E521954
:10418E0049E1526B536B4E1D006E4F1D016E00C008
:10419E004EF301C04FF300B002D08B9001D08B8054
:1041AE005CDE5AC300F05BC301F03C0E046E000EE1
:1041BE00056E06EC06F000C070F301C071F370C31B
:1041CE0050F371C351F356C300F057C301F088DFAB
:1041DE00000E046E000E056E400E066E7F0E076E0C
:1041EE00B4EC03F013DF00C05CF301C05DF370C3E9
:1041FE0072F371C373F300C074F301C075F358C347
:10420E0076F359C377F3A7DE03015A6B5B6B566BDC
:08421E00576B82DEA9D7FFD720
:1043640010EE19F0330E006E010E016E8E0EF66E15
:0E437400420EF76E000EF86E23EC1FF01200E2
:104226000000007FCDCC4C7B0AD723786F12037534
:1042360017B75171ACC5276EBD37066B95BF56676C
:1042460077CC2B645F700961FFE65B5D08E53C3C5B
:044256006042221B85
:10425A000000007F000020820000488500007A8864
:10426A0000401C8C0050438F00247492809618964C
:10427A0020BC3E99286B6E9CF90215A0EC782DC1E2
:04428A00CAF249E249
:07428E00244750474741009F
:0B4295006C6F6E6769747564653A0019
:0A42A0006C617469747564653A007E
:0542AA0076656C3A008E
:0542AF0072706D3A0081
:0642B400636F6D623A0029
:0742BA00286E756C6C2900F1
:1042C10001000000080000004000000000020000A2
:1042D1000010000000800000000004000000200029
:1042E1000000000100000008000000400000000084
:1042F100010000000A00000064000000E803000063
:1043010010270000A086010040420F00809698000F
:0843110000E1F50500CA9A3B2A
:104319000100000010000000000100000010000072
:104329000000010000001000000000010000001062
:104339003031323334353637383961626364656612
:014349000073
:10434A0030313233343536373839414243444546C1
:01435A000062
:03435B00256400D6
:03435E00256400D3
:03436100256400D0
:020000040030CA
:0E000000000C1F1EFF0381FF0FC00FE00F401A
:00000001FF
