:10000000E8EF01F00000000000EF00F00000000049
:0A0010000000000000000000F3D71C
:0C001C00100E0D6E0D2EFED7000012001D
:10002800080E0C6E230E0D6E0D2EFED70C2EFCD76F
:020038001200B4
:04003A0000001200B0
:10003E005CBE02D0819001D081805CBC02D08192E6
:10004E0001D081825CBA02D0819401D081845CB8E7
:10005E0002D0819601D0818649B002D0818A01D02A
:10006E00819A8188E3DF81985CB602D0819001D0BD
:10007E0081805CB402D0819201D081825CB202D0C8
:10008E00819401D081845CB002D0819601D08186AA
:10009E0049B002D0818A01D0819A8188C7DF8198C8
:0C00AE0049A002D0BADF01D0B2DF12007E
:0E00BA00ACB202D00000FCD75BC0ADFF12005C
:0C00C80049905BC05CF0B7DF498012007B
:1000D4005BC0C9FFC7B002D00000FCD7C9CF00F095
:0200E400120008
:1000E600086A096A100E0C6E013408360936045087
:1000F600085E0550D8A0053C095ED8B007D004506C
:1001060008260550D8B0053C0926D8900036013699
:060116000C2EEAD71200D6
:10011C0082905B6AD9DF00C055F05B6AD5DF00C006
:0E012C0054F0828054C000F055C001F0120063
:10013A00566A56505424E96E000E5520EA6EEE5265
:10014A000BE056505424E96E000E5520EA6EEECFAD
:0A015A005BF0B5DF562AEDD7120066
:060164009490828012005D
:10016A000900F5CFE6FF0006FBE10106F9E11200FE
:10017A00D40E396E000E3A6E5B0E3B6E000E3C6E6C
:10018A00FF0E356EFF0E366EFF0E376EFF0E386E9F
:10019A00949A94969488C66A400EC76EC68A1200CC
:1001AA00BA0E316E000E326E5B0E336E000E346E76
:1001BA00FF0E456EFF0E466E000E476E000E486E2D
:1001CA00FF0E416EFF0E426E000E436E000E446E2D
:1001DA00FF0E3D6EFF0E3E6E000E3F6E000E406E2D
:1001EA00AC8A900EAB6E948E949C9EAA03D0AECF2E
:0601FA0000F0FBD712002B
:10020000586A050E585C0AE258505624E16E000EFA
:100210005720E26E200EE66E582AF3D75850562427
:10022000E16E000E5720E26EE66A580658505624DA
:10023000596E000E57205A6E0A0E046E000E056E9F
:1002400054C000F055C001F04EDF08C000F009C0F6
:1002500001F0300E002659C0E1FF5AC0E2FF00C095
:10026000E6FF0A0E046E000E056E54C000F055C085
:1002700001F039DF00C054F001C055F0000E011844
:1002800002E1000E001801E102D05806CFD712009B
:10029000576A54C0E9FF55C0EAFFEECF56F05650FA
:1002A000000A0DE056C05BF008DF572A575054246F
:1002B000E96E000E5520EA6EEECF56F0F0D7120030
:1002C0009398939A93969394939293908198819A0A
:1002D0008190819281948196A7DEA6DEA5DE81843D
:1002E00081868188AADE81989FDE8188A6DE81983A
:1002F0009BDE8188A2DE819897DE819681889DDED3
:10030000819892DE818899DE8198819481808188AC
:1003100094DE819889DE8190818681888EDE819845
:10032000819681888ADE81987FDE818886DE819849
:100330008186818882DE819877DE819681887DDE64
:1003400081988180818281848186818876DE81980E
:060350006BDE4980120083
:100356000FD0800E546E19D0C00E546E16D0940E67
:10036600546E13D0D40E546E10D0800E546E0DD031
:100376005450010AEEE05450020AEEE05450030ACB
:10038600EEE05450040AEEE0F0D75504006E5450E7
:10039600002600C054F000C05CF04EDE4990586A5A
:1003A60058505624E96E000E5720EA6EEE520BE0C6
:1003B60058505624E96E000E5720EA6EEECF5BF0D9
:0A03C60080DE582AEDD749801200AE
:1003D00063EC02F0C186C184C182C180190EAF6E88
:1003E000AC84E3DECADEBEDE6BDF0C0E5C6E27DEA5
:1003F000010E5C6E24DE010E546E060E556E290E43
:10040000566E000E576EA7DF89DE00C04AF001C0AD
:100410004BF0F80E4A14016E4B507F0B026E023205
:100420000132029E02320132029E02320132029EEB
:1004300001C054F002C055F055325432559E4C0E56
:10044000566E000E576EDCDE020E546E010E556EB7
:10045000150E566E000E576E7EDF4E0E546E000E59
:10046000556E6BDEDF0E5B6E2FDE430E5B6E2CDE99
:100470001C0E546E000E556E0BDF4C0E546E000EAB
:10048000556E06DF0D0E5B6E18DE060E0B6E130E3C
:100490000C6EAD0E0D6E0D2EFED70C2EFCD70B2E56
:0A04A000FAD700000000B0D7FFD724
:1004C60010EE15F01C0E006E010E016EAA0EF66EF1
:0E04D600040EF76E000EF86EB5EC00F012008A
:0704AA0054656D703A20005B
:0D04B10074656D70657261747572613A005A
:0804BE004D4158363637350078
:020000040030CA
:0D000100220F0EFFFF81FF0FC00FE00F4028
:00000001FF
