:0400000001EF04F018
:100008009EA00BD0010E5D6E000E5E6E454A462A1C
:10001800E70ECF6E960ECE6E9E90F2A203D04B4A9C
:100028004C2AF292F0A003D04F4A502AF0901100C7
:080038000AAE029E000E120048
:100040000B840BAE2BEF00F0010E036E026A016A07
:0A005000006A0A360232FF0E1200A9
:0E005A00026A016A006A086A036A000E120058
:100068000134083609360450085E0550D8A0053C0E
:10007800095E003601360F0E0C6E0134083609365B
:10008800045000A006D0085E0550D8A0053C095EC3
:1000980005D008260550D8B0053C0926003601369B
:1000A8000C2EEBD700B006D0045008260550D8B067
:0800B800053C092600001200BE
:1000C0000C6A0E6A0250D8A479EF00F001C002F069
:1000D00000C001F0006A0E860250D8A479EF00F04B
:1000E00001C002F0016A0E960E880250D8B48BEF60
:1000F00000F00E50035ED8A4D8A090EF00F0D89086
:1001000002BE95EF00F0003601360236032E80EF76
:1001100000F090EF00F0010E0C6E9FDF98EF00F002
:10012000020E0C6E8DDF98EF00F0040E0C6E84DF73
:020130001200BB
:100132000B820BAEA3EF00F003680268016800684F
:080142000A360232FF0E120022
:10014A000B800BAEB1EF00F0026A0AAEFF0E026E30
:0C015A00016E006E0A360232FF0E120029
:10016600086A096A000E0762036438EF01F002505C
:1001760006180A6E075003267E0ED8A0C9EF00F0B7
:10018600035ED8B03CEF01F0CDEF00F0035ED8A0DF
:1001960040EF01F0028E068E02C00EF001C00BF099
:1001A60000C00DF000500402F4CF0CF0015005021F
:1001B600F4CF00F0F3CF08F00402F3500C26F4500D
:1001C6000822000E00220D500502F3500C26F450B2
:1001D6000822000E002202500402F3500826F450B2
:1001E600002202500502016A000E0122F350002689
:1001F600F45001220D500602F3500826F450002256
:10020600026A000E012202220B500602F35000265B
:10021600F4500122000E02220E500602F35001266F
:10022600F450022202BE20EF01F0083600360136F5
:1002360002360306D8B440EF01F033EF01F0D88060
:10024600800E08640030000E002201220222D8A08F
:1002560033EF01F0023201320032034A3CEF01F083
:100266000AAE029E000E42EF01F0010EF3DE42EFEF
:1002760001F0020E5BDF42EF01F0040EDEDE12003B
:1002860000C008F00150006E016A026A036A0B6A38
:100296000C6A016A026A036A960E036E0A6A00AE67
:1002A6005BEF01F0081E001E082AD8B4002A0A8E49
:1002B60000C001F008C000F0086A026AFEDE120003
:1002C600FF0E0001616FFF0E626FFF0E636FFF0E80
:1002D600646FFF0E556EFF0E566E000E576E000EC3
:1002E600586EFF0E516EFF0E526E000E536E000ECC
:1002F600546EFF0E596EFF0E5A6E000E5B6E000EA8
:100306005C6EAC8A900EAB6E948E949C9EAA03D0C3
:08031600AECF00F0FBD712008E
:10031E000900F5CFE6FF0006FBE10106F9E1120048
:10032E000B6A0A6A096A086A0E6A033408360450B0
:10033E00085E0550D8A0053C095E0650D8A0063CC4
:10034E000A5E0750D8A0073C0B5EE86AD8A0010EE3
:10035E000E5E0336070E0C6E0334083609360A3667
:10036E000B360E36045003A012D0085E0550D8A0EE
:10037E00053C095E0650D8A0063C0A5E0750D8A080
:10038E00073C0B5EE86AD8A0010E0E5E11D008265F
:10039E000550D8B0053C09260650D8B0063C0A26B2
:1003AE000750D8B0073C0B26E86AD8B0010E0E26CF
:1003BE0003360C2ED1D70234083609360A360B36E0
:1003CE000E36045003A012D0085E0550D8A0053C8E
:1003DE00095E0650D8A0063C0A5E0750D8A0073C1E
:1003EE000B5EE86AD8A0010E0E5E11D008260550ED
:1003FE00D8B0053C09260650D8B0063C0A26075050
:10040E00D8B0073C0B26E86AD8B0010E0E2602368D
:10041E00070E0C6E0234083609360A360B360E36C7
:10042E00045002A012D0085E0550D8A0053C095E0B
:10043E000650D8A0063C0A5E0750D8A0073C0B5EBB
:10044E00E86AD8A0010E0E5E11D008260550D8B06D
:10045E00053C09260650D8B0063C0A260750D8B0EF
:10046E00073C0B26E86AD8B0010E0E2602360C2E7B
:10047E00D1D70134083609360A360B360E360450FB
:10048E0002A012D0085E0550D8A0053C095E0650A9
:10049E00D8A0063C0A5E0750D8A0073C0B5EE86A5F
:1004AE00D8A0010E0E5E11D008260550D8B0053C1E
:1004BE0009260650D8B0063C0A260750D8B0073C8D
:1004CE000B26E86AD8B0010E0E260136070E0C6E0A
:1004DE000134083609360A360B360E36045001A0A2
:1004EE0012D0085E0550D8A0053C095E0650D8A073
:1004FE00063C0A5E0750D8A0073C0B5EE86AD8A0FF
:10050E00010E0E5E11D008260550D8B0053C092606
:10051E000650D8B0063C0A260750D8B0073C0B262A
:10052E00E86AD8B0010E0E2601360C2ED1D7003453
:10053E00083609360A360B360E36045001A012D094
:10054E00085E0550D8A0053C095E0650D8A0063CB2
:10055E000A5E0750D8A0073C0B5EE86AD8A0010ED1
:10056E000E5E11D008260550D8B0053C092606505F
:10057E00D8B0063C0A260750D8B0073C0B26E86ACE
:10058E00D8B0010E0E260036070E0C6E003408365B
:10059E0009360A360B360E36045000A012D0085E0D
:1005AE000550D8A0053C095E0650D8A0063C0A5E50
:1005BE000750D8A0073C0B5EE86AD8A0010E0E5E6D
:1005CE0011D008260550D8B0053C09260650D8B0E3
:1005DE00063C0A260750D8B0073C0B26E86AD8B06E
:1005EE00010E0E2600360C2ED1D700B00ED00450C0
:1005FE0008260550D8B0053C09260650D8B0063C52
:0C060E000A260750D8B0073C0B2612004B
:10061A000B6A0A6A096A00500402F4CF09F0F3CFA0
:10062A0008F001500502F4CF0BF0F3CF0AF00050A6
:10063A000502F3500926F4500A22E86A0B220150F7
:10064A000402F3500926F4500A22E86A0B2208C071
:10065A0000F009C001F00AC002F00BC003F012005A
:10066A000450000A08E10550000A05E1FF0E006E79
:10067A007F0E016E57D00D6A096A086A0150001090
:10068A00D8B4000C015005180A6E0ABE0D1E0B6A7A
:10069A0005AE05D0041E051E042AD8B4052A01AEEB
:1006AA0005D0001E011E002AD8B4012A01500510E7
:1006BA000A6E0ABE10D0D3DC0BB020D00DAE000CEF
:1006CA00001E011E002AD8B4012A081E091E082A83
:1006DA00D8B4092A000C05AE0DD001BE07D00150CE
:1006EA00096E0050086E016A006AE8D7016A006A5A
:1006FA00002A000C011E001E0B2ADDD7082AD8B4D6
:10070A00092A0450085CD8A4D9D70550095CD8A492
:10071A00D5D7096A086A002AD8B4012A01AECED709
:06072A000000FF0C1200AC
:100730000B6A0350D8B4DEEF03F002500A6E028E4B
:100740008E0E035E03AEE2EF03F0036C080E035C53
:10075000D8A0BDEF03F0036E013602C001F0026ABB
:10076000080E035CD8A0BDEF03F0036E0136016AEA
:100770000350D8A4D890C7EF03F00350D8B4C7EF04
:1007800003F0D89002320132032EC1EF03F00BBC0C
:1007900001A0D4EF03F0D8A0D4EF03F0012AD8B41D
:1007A000022A02BEF1EF03F00AAEF6EF03F0021EDA
:1007B000011E012AD8B4022AF6EF03F0026A016A88
:1007C000F6EF03F00B800BAEFAEF03F0026A0AAE0D
:1007D000FAEF03F0FF0E026E016E0A360232FAEFF4
:1007E00003F0010E0C6EB1DCFCEF03F0000E0C6E9A
:1007F000FCEF03F0FF0E0C6E0150006E0250016E14
:020800001200E4
:10080200FEEC04F0C186C184C182C180B886020EAA
:10081200B06E080EAF6EAC8455DDF28EF28CF288AB
:10082200F19CF086F19A9D80CD8ACD88E70ECF6E3D
:10083200960ECE6ECD809490926A956A5D505E104F
:100842005FE05D6A5E6A41C02DF042C02EF043C097
:100852002FF044C030F019C065F01AC066F0653759
:1008620065916637310E6525D96E000E6621DA6E06
:10087200DECF04F0DECF05F0000E066E076E41C03B
:1008820000F042C001F043C002F044C003F04EDD6C
:1008920008C000F009C001F00AC002F00BC003F06A
:1008A20000C02DF001C02EF002C02FF003C030F0C6
:1008B200150E1924E96E000E1A20EA6EEECF89FF9A
:1008C200390E6525D96E000E6621DA6EDECF04F090
:1008D200DECF05F0000E066E076E28DD1B0E00242B
:1008E200E96E000E0120EA6EEECF8CFF250E652523
:1008F200E96E000E6621EA6EEECF19F0EECF1AF025
:10090200000E461802E1640E45185DE1471C006EB8
:10091200481C016E00C047F001C048F000B002D090
:10092200829001D08280456A466A4FC000F050C072
:1009320001F0A8DC000E046E000E056E400E066E7D
:100942007F0E076E0FDCF3DE00C065F001C066F0BB
:1009520065C04DF066C04EF04BC000F04CC001F0D7
:100962003C0E046E000E056E57DE00C067F001C03B
:1009720068F067C049F068C04AF04F6A506A4B6A33
:100982004C6A65C000F066C001F0640E046E000E91
:10099200056E42DE00C065F001C066F0640E046EB2
:1009A200000E056E67C000F068C001F05DDE005009
:1009B20000016525416E01506621426E000E42BE65
:0A09C200FF0E436E446E3AD7FFD7D4
:1009FC0010EE15F0300E006E010E016ECC0EF66E80
:0E0A0C00090EF76E000EF86E8FEC01F012006E
:0409CC000102040818
:0209D000000025
:0A09D200C0F9A4B0999282F8809059
:0809DC0001000200030000000D
:0409E400000000000F
:0809E8001027E80364000A0077
:0809F000E80364000A000100A5
:0409F80000000000FB
:020000040030CA
:0E000000000C1F1EFF0381FF0FC00FE00F401A
:00000001FF
